{
  "address": "0x2cec3fE963b919C4eCC15df9fE282303238237c1",
  "abi": [
    {
      "inputs": [],
      "stateMutability": "nonpayable",
      "type": "constructor"
    },
    {
      "anonymous": false,
      "inputs": [
        {
          "indexed": true,
          "internalType": "uint256",
          "name": "claimTopic",
          "type": "uint256"
        }
      ],
      "name": "ClaimTopicAdded",
      "type": "event"
    },
    {
      "anonymous": false,
      "inputs": [
        {
          "indexed": true,
          "internalType": "uint256",
          "name": "claimTopic",
          "type": "uint256"
        }
      ],
      "name": "ClaimTopicRemoved",
      "type": "event"
    },
    {
      "inputs": [
        {
          "internalType": "uint256",
          "name": "_claimTopic",
          "type": "uint256"
        }
      ],
      "name": "addClaimTopic",
      "outputs": [],
      "stateMutability": "nonpayable",
      "type": "function"
    },
    {
      "inputs": [],
      "name": "getClaimTopics",
      "outputs": [
        {
          "internalType": "uint256[]",
          "name": "",
          "type": "uint256[]"
        }
      ],
      "stateMutability": "view",
      "type": "function"
    },
    {
      "inputs": [
        {
          "internalType": "uint256",
          "name": "_claimTopic",
          "type": "uint256"
        }
      ],
      "name": "hasClaimTopic",
      "outputs": [
        {
          "internalType": "bool",
          "name": "",
          "type": "bool"
        }
      ],
      "stateMutability": "view",
      "type": "function"
    },
    {
      "inputs": [
        {
          "internalType": "uint256",
          "name": "_claimTopic",
          "type": "uint256"
        }
      ],
      "name": "removeClaimTopic",
      "outputs": [],
      "stateMutability": "nonpayable",
      "type": "function"
    }
  ],
  "transactionHash": "0x1fc4bf154cce4c101f3b624f0627f7721f76e6d6eb8f5b217124ea48eb40619f",
  "args": [],
  "numDeployments": 1,
  "solcInputHash": "d7b9a1448eec80ffb400f3093fc4c601",
  "bytecode": "0x608060405234801561001057600080fd5b50600061002561003e60201b6103d11760201c565b60020180546001600160a01b0319163317905550610062565b7ff2d5df6e03e329d7472e7e5b48a0fcc7231d5839f07cce006029241344d5145f90565b610735806100716000396000f3fe608060405234801561001057600080fd5b506004361061004c5760003560e01c80630829784614610051578063c7b2255114610066578063da22d41f14610079578063df09d604146100a1575b600080fd5b61006461005f366004610615565b6100b6565b005b610064610074366004610615565b61023d565b61008c610087366004610615565b61036b565b60405190151581526020015b60405180910390f35b6100a961039f565b604051610098919061062e565b336100f57fc8fcad8db84d3cc18b4c41d551ea0ee66dd599cde068d998e57d5e09332c13205473ffffffffffffffffffffffffffffffffffffffff1690565b73ffffffffffffffffffffffffffffffffffffffff16148061011657503033145b6101675760405162461bcd60e51b815260206004820152601f60248201527f6e6f7420617574686f72697a656420746f2063616c6c2066756e6374696f6e0060448201526064015b60405180910390fd5b7ff2d5df6e03e329d7472e7e5b48a0fcc7231d5839f07cce006029241344d5145f60008290036101d95760405162461bcd60e51b815260206004820152601b60248201527f43616e6e6f742072656d6f766520636c61696d20746f70696320300000000000604482015260640161015e565b6101e381836103f5565b61022f5760405162461bcd60e51b815260206004820152601a60248201527f436c61696d20746f70696320646f6573206e6f74206578697374000000000000604482015260640161015e565b6102398183610410565b5050565b3361027c7fc8fcad8db84d3cc18b4c41d551ea0ee66dd599cde068d998e57d5e09332c13205473ffffffffffffffffffffffffffffffffffffffff1690565b73ffffffffffffffffffffffffffffffffffffffff16148061029d57503033145b6102e95760405162461bcd60e51b815260206004820152601f60248201527f6e6f7420617574686f72697a656420746f2063616c6c2066756e6374696f6e00604482015260640161015e565b7ff2d5df6e03e329d7472e7e5b48a0fcc7231d5839f07cce006029241344d5145f61031481836103f5565b156103615760405162461bcd60e51b815260206004820152601a60248201527f436c61696d20746f70696320616c726561647920657869737473000000000000604482015260640161015e565b610239818361055c565b60007ff2d5df6e03e329d7472e7e5b48a0fcc7231d5839f07cce006029241344d5145f61039881846103f5565b9392505050565b60607ff2d5df6e03e329d7472e7e5b48a0fcc7231d5839f07cce006029241344d5145f6103cb816105b9565b91505090565b7ff2d5df6e03e329d7472e7e5b48a0fcc7231d5839f07cce006029241344d5145f90565b600081815260018301602052604090205460ff165b92915050565b60005b82548110156104f9578183600001828154811061043257610432610672565b9060005260206000200154036104e757825483906104529060019061069e565b8154811061046257610462610672565b906000526020600020015483600001828154811061048257610482610672565b600091825260209091200155825483908061049f5761049f6106b1565b60019003818190600052602060002001600090559055817f0b1381093c776453c1bbe54fd68be1b235c65db61d099cb50d194b2991e0eec560405160405180910390a2505050565b806104f1816106c7565b915050610413565b50600081815260018301602052604090819020805460ff191690555162461bcd60e51b815261015e9060040160208082526016908201527f436c61696d20746f706963206e6f7420666f756e642e00000000000000000000604082015260600190565b815460018181018455600084815260208082209093018490558381528185019092526040808320805460ff19169092179091555182917f01c928b7f7ade2949e92366aa9454dbef3a416b731cf6ec786ba9595bbd814d691a25050565b60608160000180548060200260200160405190810160405280929190818152602001828054801561060957602002820191906000526020600020905b8154815260200190600101908083116105f5575b50505050509050919050565b60006020828403121561062757600080fd5b5035919050565b6020808252825182820181905260009190848201906040850190845b818110156106665783518352928401929184019160010161064a565b50909695505050505050565b634e487b7160e01b600052603260045260246000fd5b634e487b7160e01b600052601160045260246000fd5b8181038181111561040a5761040a610688565b634e487b7160e01b600052603160045260246000fd5b60007fffffffffffffffffffffffffffffffffffffffffffffffffffffffffffffffff82036106f8576106f8610688565b506001019056fea26469706673582212209e52045fb60cbc0573d1519089b633622a4c97b1fad72e223eb894c3c2c4176164736f6c63430008110033",
  "libraries": {
    "AddressSet": "0xe816f9c968c92bef011eabc25bb1e062f23f0ce3",
    "AttributeLib": "0x54b27B50D22583c3F8D44062105fa3746092F98D",
    "Base64": "0x18f7751ECdE5e9A20F7ba3b3E6419e5486dce02C",
    "Bytes32Set": "0xF8cF9DDd669304191Db084053CB0CB2B996721A8",
    "ClaimStorageLib": "0xb355293012312F75756CE66d5D6208D50E9570D9",
    "ClaimTopicLib": "0xfA5F92fB7D658b83Bd8eb891CFa1de03B2dE6ca0",
    "DiamondFactoryLib": "0x5e3a72a725e885D3297Df110fed8513c1A89590F",
    "DiamondLib": "0xfF3811e752E2fB8ca0192Ac977ec7EE0154C27D7",
    "ERC721AEnumerationLib": "0x3862fD7Aee0687c461D40A3c6AbaD9bD9F15e6c4",
    "ERC721ALib": "0x185d29cB9B14a6EA5d114534EF1A99C205d13204",
    "IdentityLib": "0x8187074C0542Adc6f8679958106A546F2Ac498cc",
    "LibDiamond": "0x0ef6EE0407615E57bC04bF16C21a9aeA1530f650",
    "MetadataLib": "0xFFa8D07fA502AbD668CFdba501999F3074f1a78c",
    "StringsLib": "0xfe30ea7bcFa85debB8FC3c8AA925ebEb22011b6f",
    "Strings": "0x9fF441f16e0163DCa2109c376d15348b3001232D",
    "SVGTemplatesLib": "0xB66E75ed2C1202b29F37e862e00CdA37B4edA8A3",
    "TrustedIssuerLib": "0x2DE50b277A2b56220F676E9C84524f9c3fdc12F3",
    "UInt256Set": "0xCA610CCce4b2aB25Adc1072a0C21df42320478A3",
    "IdentityFactory": "0xEA0f9DE12192E09bA196a2819081c196BAc99104"
  },
  "devdoc": {
    "kind": "dev",
    "methods": {
      "addClaimTopic(uint256)": {
        "details": "Only the owner can call this function",
        "params": {
          "_claimTopic": "The claim topic to add"
        }
      },
      "getClaimTopics()": {
        "returns": {
          "_0": "claimTopics The claim topics"
        }
      },
      "removeClaimTopic(uint256)": {
        "details": "Only the owner can call this function",
        "params": {
          "_claimTopic": "The claim topic to remove"
        }
      }
    },
    "title": "ClaimTopicsRegistryFacet",
    "version": 1
  },
  "userdoc": {
    "kind": "user",
    "methods": {
      "addClaimTopic(uint256)": {
        "notice": "Add a claim topic"
      },
      "getClaimTopics()": {
        "notice": "Get the claim topics"
      },
      "removeClaimTopic(uint256)": {
        "notice": "Remove a claim topic"
      }
    },
    "notice": "This contract is used to manage the claim topics registry",
    "version": 1
  },
  "storageLayout": {
    "storage": [],
    "types": null
  }
}