{
  "address": "0x8fdEa8243DA3535eCb4F8f6c8c5af1331316FCD2",
  "abi": [
    {
      "inputs": [],
      "stateMutability": "nonpayable",
      "type": "constructor"
    },
    {
      "anonymous": false,
      "inputs": [
        {
          "indexed": true,
          "internalType": "uint256",
          "name": "claimTopic",
          "type": "uint256"
        }
      ],
      "name": "ClaimTopicAdded",
      "type": "event"
    },
    {
      "anonymous": false,
      "inputs": [
        {
          "indexed": true,
          "internalType": "uint256",
          "name": "claimTopic",
          "type": "uint256"
        }
      ],
      "name": "ClaimTopicRemoved",
      "type": "event"
    },
    {
      "inputs": [
        {
          "internalType": "uint256",
          "name": "_claimTopic",
          "type": "uint256"
        }
      ],
      "name": "addClaimTopic",
      "outputs": [],
      "stateMutability": "nonpayable",
      "type": "function"
    },
    {
      "inputs": [],
      "name": "getClaimTopics",
      "outputs": [
        {
          "internalType": "uint256[]",
          "name": "",
          "type": "uint256[]"
        }
      ],
      "stateMutability": "view",
      "type": "function"
    },
    {
      "inputs": [
        {
          "internalType": "uint256",
          "name": "_claimTopic",
          "type": "uint256"
        }
      ],
      "name": "removeClaimTopic",
      "outputs": [],
      "stateMutability": "nonpayable",
      "type": "function"
    }
  ],
  "transactionHash": "0xf01957e9149ea5e74364f6a25b310c77a403d589c418240fb4dbee33e84959f0",
  "args": [],
  "numDeployments": 1,
  "solcInputHash": "db7be833eb31146ace18bf1ce65f8bcb",
  "bytecode": "0x608060405234801561001057600080fd5b50600061002561003e60201b6102751760201c565b60010180546001600160a01b0319163317905550610062565b7ff2d5df6e03e329d7472e7e5b48a0fcc7231d5839f07cce006029241344d5145f90565b610590806100716000396000f3fe608060405234801561001057600080fd5b50600436106100415760003560e01c80630829784614610046578063c7b225511461005b578063df09d6041461006e575b600080fd5b61005961005436600461046a565b61008c565b005b61005961006936600461046a565b61016c565b610076610243565b6040516100839190610483565b60405180910390f35b336100cb7fc8fcad8db84d3cc18b4c41d551ea0ee66dd599cde068d998e57d5e09332c13205473ffffffffffffffffffffffffffffffffffffffff1690565b73ffffffffffffffffffffffffffffffffffffffff1614806100ec57503033145b61013d5760405162461bcd60e51b815260206004820152601f60248201527f6e6f7420617574686f72697a656420746f2063616c6c2066756e6374696f6e0060448201526064015b60405180910390fd5b7ff2d5df6e03e329d7472e7e5b48a0fcc7231d5839f07cce006029241344d5145f6101688183610299565b5050565b336101ab7fc8fcad8db84d3cc18b4c41d551ea0ee66dd599cde068d998e57d5e09332c13205473ffffffffffffffffffffffffffffffffffffffff1690565b73ffffffffffffffffffffffffffffffffffffffff1614806101cc57503033145b6102185760405162461bcd60e51b815260206004820152601f60248201527f6e6f7420617574686f72697a656420746f2063616c6c2066756e6374696f6e006044820152606401610134565b7ff2d5df6e03e329d7472e7e5b48a0fcc7231d5839f07cce006029241344d5145f61016881836103cb565b60607ff2d5df6e03e329d7472e7e5b48a0fcc7231d5839f07cce006029241344d5145f61026f8161040e565b91505090565b7ff2d5df6e03e329d7472e7e5b48a0fcc7231d5839f07cce006029241344d5145f90565b60005b825481101561038257818360000182815481106102bb576102bb6104c7565b90600052602060002001540361037057825483906102db906001906104f3565b815481106102eb576102eb6104c7565b906000526020600020015483600001828154811061030b5761030b6104c7565b60009182526020909120015582548390806103285761032861050c565b60019003818190600052602060002001600090559055817f0b1381093c776453c1bbe54fd68be1b235c65db61d099cb50d194b2991e0eec560405160405180910390a2505050565b8061037a81610522565b91505061029c565b5060405162461bcd60e51b815260206004820152601660248201527f436c61696d20746f706963206e6f7420666f756e642e000000000000000000006044820152606401610134565b815460018101835560008381526020812090910182905560405182917f01c928b7f7ade2949e92366aa9454dbef3a416b731cf6ec786ba9595bbd814d691a25050565b60608160000180548060200260200160405190810160405280929190818152602001828054801561045e57602002820191906000526020600020905b81548152602001906001019080831161044a575b50505050509050919050565b60006020828403121561047c57600080fd5b5035919050565b6020808252825182820181905260009190848201906040850190845b818110156104bb5783518352928401929184019160010161049f565b50909695505050505050565b634e487b7160e01b600052603260045260246000fd5b634e487b7160e01b600052601160045260246000fd5b81810381811115610506576105066104dd565b92915050565b634e487b7160e01b600052603160045260246000fd5b60007fffffffffffffffffffffffffffffffffffffffffffffffffffffffffffffffff8203610553576105536104dd565b506001019056fea264697066735822122033117ac6adefe1c87a9ae84fd1f9bf3eefedd5067060e233f3d6dcefc21ac85464736f6c63430008110033",
  "libraries": {
    "AddressSet": "0x99D84A2aA566300d09323EE12ad120177B7654bA",
    "AttributeLib": "0x929098055005A237C806Df3e2dC0E9B07390D83D",
    "Base64": "0x672911b00d6E0d0f6959A1726B4960090a357a4f",
    "Bytes32Set": "0xdDe75BdD8C22C231325997274D523aa0588648cf",
    "ClaimStorageLib": "0x245Fa7026c58705C70557586693F6575327E170c",
    "ClaimTopicLib": "0xEB45Bf980CfdfEAbde13A10b97B3494b78841bed",
    "DiamondFactoryLib": "0x0eDb1d08BeD07306Ca8F41Ac92149B92edB5a9ae",
    "DiamondLib": "0xC3A48dfc8d0b95404E416B9E76C046299e582431",
    "ERC721AEnumerationLib": "0x2F25585979FD3EAda22229F7Cf1c41D59D2AA6e8",
    "ERC721ALib": "0x409f63a3961986d9BeBfB9B5B11464e925804A90",
    "IdentityLib": "0x4E8e895927958e8E924C0d5145D08A6bdd0F0670",
    "LibDiamond": "0x07af5C2d7417f303eb35fff3943cD593Ca2c4352",
    "MetadataLib": "0x17276309aca9bb8272367aB843d0E869405Dd5B6",
    "StringsLib": "0x09a89Cfbdbe53e34fF1E919006a47d12a6aABd40",
    "Strings": "0xE0e88D1dFaf4Bf95dAFB567fE65862827849AAbE",
    "SVGTemplatesLib": "0x318B833110D5d0DEB641bF3bd723DDc830BbBBd8",
    "TrustedIssuerLib": "0x24657fBB0f8Ed0961Ea034250D06b6e71231b277",
    "UInt256Set": "0x8d8632635555c6c20F54a1b0b4A79b7A69f04026",
    "IdentityFactory": "0x72A85A19daeeCC35bDc5208b3bc338CD680dA729"
  },
  "devdoc": {
    "kind": "dev",
    "methods": {
      "addClaimTopic(uint256)": {
        "details": "Only the owner can call this function",
        "params": {
          "_claimTopic": "The claim topic to add"
        }
      },
      "getClaimTopics()": {
        "returns": {
          "_0": "claimTopics The claim topics"
        }
      },
      "removeClaimTopic(uint256)": {
        "details": "Only the owner can call this function",
        "params": {
          "_claimTopic": "The claim topic to remove"
        }
      }
    },
    "title": "ClaimTopicsRegistryFacet",
    "version": 1
  },
  "userdoc": {
    "kind": "user",
    "methods": {
      "addClaimTopic(uint256)": {
        "notice": "Add a claim topic"
      },
      "getClaimTopics()": {
        "notice": "Get the claim topics"
      },
      "removeClaimTopic(uint256)": {
        "notice": "Remove a claim topic"
      }
    },
    "notice": "This contract is used to manage the claim topics registry",
    "version": 1
  },
  "storageLayout": {
    "storage": [],
    "types": null
  }
}