{
  "address": "0xAd86397Cc6A7885C2C55Fb4A1F75E7745b454371",
  "abi": [
    {
      "inputs": [],
      "stateMutability": "nonpayable",
      "type": "constructor"
    },
    {
      "anonymous": false,
      "inputs": [
        {
          "indexed": true,
          "internalType": "uint256",
          "name": "claimTopic",
          "type": "uint256"
        }
      ],
      "name": "ClaimTopicAdded",
      "type": "event"
    },
    {
      "anonymous": false,
      "inputs": [
        {
          "indexed": true,
          "internalType": "uint256",
          "name": "claimTopic",
          "type": "uint256"
        }
      ],
      "name": "ClaimTopicRemoved",
      "type": "event"
    },
    {
      "inputs": [
        {
          "internalType": "uint256",
          "name": "_claimTopic",
          "type": "uint256"
        }
      ],
      "name": "addClaimTopic",
      "outputs": [],
      "stateMutability": "nonpayable",
      "type": "function"
    },
    {
      "inputs": [],
      "name": "getClaimTopics",
      "outputs": [
        {
          "internalType": "uint256[]",
          "name": "",
          "type": "uint256[]"
        }
      ],
      "stateMutability": "view",
      "type": "function"
    },
    {
      "inputs": [
        {
          "internalType": "uint256",
          "name": "_claimTopic",
          "type": "uint256"
        }
      ],
      "name": "removeClaimTopic",
      "outputs": [],
      "stateMutability": "nonpayable",
      "type": "function"
    }
  ],
  "transactionHash": "0x7ab377d87e656a47290e921e80952a950050e04d80a722bcc238e72c4a28195f",
  "args": [],
  "numDeployments": 2,
  "solcInputHash": "c40d435922e18c8d727f6f47445da42c",
  "bytecode": "0x608060405234801561001057600080fd5b50600061002561003e60201b6102771760201c565b60010180546001600160a01b0319163317905550610062565b7ff2d5df6e03e329d7472e7e5b48a0fcc7231d5839f07cce006029241344d5145f90565b6106b5806100716000396000f3fe608060405234801561001057600080fd5b50600436106100415760003560e01c80630829784614610046578063c7b225511461005b578063df09d6041461006e575b600080fd5b61005961005436600461058f565b61008c565b005b61005961006936600461058f565b61016d565b610076610245565b60405161008391906105a8565b60405180910390f35b336100cb7fc8fcad8db84d3cc18b4c41d551ea0ee66dd599cde068d998e57d5e09332c13205473ffffffffffffffffffffffffffffffffffffffff1690565b73ffffffffffffffffffffffffffffffffffffffff1614806100ec57503033145b61013d5760405162461bcd60e51b815260206004820152601f60248201527f6e6f7420617574686f72697a656420746f2063616c6c2066756e6374696f6e0060448201526064015b60405180910390fd5b7ff2d5df6e03e329d7472e7e5b48a0fcc7231d5839f07cce006029241344d5145f61016981833361029b565b5050565b336101ac7fc8fcad8db84d3cc18b4c41d551ea0ee66dd599cde068d998e57d5e09332c13205473ffffffffffffffffffffffffffffffffffffffff1690565b73ffffffffffffffffffffffffffffffffffffffff1614806101cd57503033145b6102195760405162461bcd60e51b815260206004820152601f60248201527f6e6f7420617574686f72697a656420746f2063616c6c2066756e6374696f6e006044820152606401610134565b7ff2d5df6e03e329d7472e7e5b48a0fcc7231d5839f07cce006029241344d5145f610169818333610461565b60607ff2d5df6e03e329d7472e7e5b48a0fcc7231d5839f07cce006029241344d5145f61027181610533565b91505090565b7ff2d5df6e03e329d7472e7e5b48a0fcc7231d5839f07cce006029241344d5145f90565b807ff2d5df6e03e329d7472e7e5b48a0fcc7231d5839f07cce006029241344d5145f6001015473ffffffffffffffffffffffffffffffffffffffff8281169116146103285760405162461bcd60e51b815260206004820152601760248201527f43616c6c6572206973206e6f7420746865206f776e65720000000000000000006044820152606401610134565b60005b8454811015610412578385600001828154811061034a5761034a6105ec565b906000526020600020015403610400578454859061036a90600190610618565b8154811061037a5761037a6105ec565b906000526020600020015485600001828154811061039a5761039a6105ec565b60009182526020909120015584548590806103b7576103b7610631565b60019003818190600052602060002001600090559055837f0b1381093c776453c1bbe54fd68be1b235c65db61d099cb50d194b2991e0eec560405160405180910390a25061045b565b8061040a81610647565b91505061032b565b5060405162461bcd60e51b815260206004820152601660248201527f436c61696d20746f706963206e6f7420666f756e642e000000000000000000006044820152606401610134565b50505050565b807ff2d5df6e03e329d7472e7e5b48a0fcc7231d5839f07cce006029241344d5145f6001015473ffffffffffffffffffffffffffffffffffffffff8281169116146104ee5760405162461bcd60e51b815260206004820152601760248201527f43616c6c6572206973206e6f7420746865206f776e65720000000000000000006044820152606401610134565b835460018101855560008581526020812090910184905560405184917f01c928b7f7ade2949e92366aa9454dbef3a416b731cf6ec786ba9595bbd814d691a250505050565b60608160000180548060200260200160405190810160405280929190818152602001828054801561058357602002820191906000526020600020905b81548152602001906001019080831161056f575b50505050509050919050565b6000602082840312156105a157600080fd5b5035919050565b6020808252825182820181905260009190848201906040850190845b818110156105e0578351835292840192918401916001016105c4565b50909695505050505050565b634e487b7160e01b600052603260045260246000fd5b634e487b7160e01b600052601160045260246000fd5b8181038181111561062b5761062b610602565b92915050565b634e487b7160e01b600052603160045260246000fd5b60007fffffffffffffffffffffffffffffffffffffffffffffffffffffffffffffffff820361067857610678610602565b506001019056fea26469706673582212203a8074a6d57bd35e626aafefa89d3d429c6a04d1f9334e8ab63823d30784f9f664736f6c63430008110033",
  "libraries": {
    "AddressSet": "0x99D84A2aA566300d09323EE12ad120177B7654bA",
    "AttributeLib": "0x929098055005A237C806Df3e2dC0E9B07390D83D",
    "Base64": "0x672911b00d6E0d0f6959A1726B4960090a357a4f",
    "Bytes32Set": "0xdDe75BdD8C22C231325997274D523aa0588648cf",
    "ClaimStorageLib": "0xd7b49da1a4b6f5f847367934d205267069E79772",
    "ClaimTopicLib": "0x74F75CF7495D01F851E49c9e0b6cfA1E4e874940",
    "DiamondFactoryLib": "0xf718448Cc7F47f8A41Df4369B3DB85654c895dA8",
    "DiamondLib": "0xe6b068a7e6129Ca173Ea322B7Eaa97F1A4d6ebBC",
    "ERC721AEnumerationLib": "0x2F25585979FD3EAda22229F7Cf1c41D59D2AA6e8",
    "ERC721ALib": "0x2C0A3c204108b7432d6378Fa52070Afa63a40785",
    "IdentityLib": "0x53709DA9782E836FB703Dd3E5d34B83a17da2773",
    "LibDiamond": "0x71c73a51f4Ab21532035DDCfc11656AbBF0c3a42",
    "MetadataLib": "0x17276309aca9bb8272367aB843d0E869405Dd5B6",
    "StringsLib": "0x09a89Cfbdbe53e34fF1E919006a47d12a6aABd40",
    "Strings": "0xE0e88D1dFaf4Bf95dAFB567fE65862827849AAbE",
    "SVGTemplatesLib": "0x318B833110D5d0DEB641bF3bd723DDc830BbBBd8",
    "TrustedIssuerLib": "0x0f367e5aa7a7f9a004ae37BC3c2e66A09FF95DA8",
    "UInt256Set": "0x8d8632635555c6c20F54a1b0b4A79b7A69f04026"
  },
  "devdoc": {
    "kind": "dev",
    "methods": {},
    "version": 1
  },
  "userdoc": {
    "kind": "user",
    "methods": {},
    "version": 1
  },
  "storageLayout": {
    "storage": [],
    "types": null
  }
}