{
  "address": "0x9Ad791c68762937005698a267972a7BEff48FFA6",
  "abi": [
    {
      "inputs": [],
      "stateMutability": "nonpayable",
      "type": "constructor"
    },
    {
      "anonymous": false,
      "inputs": [
        {
          "indexed": true,
          "internalType": "address",
          "name": "contractAddress",
          "type": "address"
        },
        {
          "indexed": true,
          "internalType": "address",
          "name": "controllerAddress",
          "type": "address"
        }
      ],
      "name": "ControllerAdded",
      "type": "event"
    },
    {
      "anonymous": false,
      "inputs": [
        {
          "indexed": true,
          "internalType": "address",
          "name": "contractAddress",
          "type": "address"
        },
        {
          "indexed": true,
          "internalType": "address",
          "name": "controllerAddress",
          "type": "address"
        }
      ],
      "name": "ControllerRemoved",
      "type": "event"
    },
    {
      "anonymous": false,
      "inputs": [
        {
          "indexed": true,
          "internalType": "address",
          "name": "factory",
          "type": "address"
        },
        {
          "indexed": true,
          "internalType": "string",
          "name": "symbol",
          "type": "string"
        },
        {
          "indexed": true,
          "internalType": "address",
          "name": "diamond",
          "type": "address"
        }
      ],
      "name": "DiamondAdd",
      "type": "event"
    },
    {
      "anonymous": false,
      "inputs": [
        {
          "indexed": true,
          "internalType": "address",
          "name": "factory",
          "type": "address"
        },
        {
          "indexed": true,
          "internalType": "string",
          "name": "symbol",
          "type": "string"
        },
        {
          "components": [
            {
              "internalType": "address",
              "name": "owner",
              "type": "address"
            },
            {
              "internalType": "address",
              "name": "factory",
              "type": "address"
            },
            {
              "internalType": "address",
              "name": "svgManager",
              "type": "address"
            },
            {
              "internalType": "string",
              "name": "symbol",
              "type": "string"
            },
            {
              "internalType": "string",
              "name": "name",
              "type": "string"
            }
          ],
          "indexed": false,
          "internalType": "struct DiamondSettings",
          "name": "settings",
          "type": "tuple"
        }
      ],
      "name": "DiamondCreated",
      "type": "event"
    },
    {
      "anonymous": false,
      "inputs": [
        {
          "indexed": true,
          "internalType": "address",
          "name": "factory",
          "type": "address"
        },
        {
          "indexed": true,
          "internalType": "string",
          "name": "symbol",
          "type": "string"
        },
        {
          "indexed": true,
          "internalType": "address",
          "name": "diamond",
          "type": "address"
        }
      ],
      "name": "DiamondRemoved",
      "type": "event"
    },
    {
      "anonymous": false,
      "inputs": [
        {
          "indexed": false,
          "internalType": "uint8",
          "name": "version",
          "type": "uint8"
        }
      ],
      "name": "Initialized",
      "type": "event"
    },
    {
      "inputs": [
        {
          "internalType": "string",
          "name": "symbol",
          "type": "string"
        },
        {
          "internalType": "address payable",
          "name": "diamondAddress",
          "type": "address"
        }
      ],
      "name": "add",
      "outputs": [],
      "stateMutability": "nonpayable",
      "type": "function"
    },
    {
      "inputs": [
        {
          "internalType": "address",
          "name": "_controller",
          "type": "address"
        }
      ],
      "name": "addController",
      "outputs": [],
      "stateMutability": "nonpayable",
      "type": "function"
    },
    {
      "inputs": [
        {
          "components": [
            {
              "internalType": "address",
              "name": "owner",
              "type": "address"
            },
            {
              "internalType": "address",
              "name": "factory",
              "type": "address"
            },
            {
              "internalType": "address",
              "name": "svgManager",
              "type": "address"
            },
            {
              "internalType": "string",
              "name": "symbol",
              "type": "string"
            },
            {
              "internalType": "string",
              "name": "name",
              "type": "string"
            }
          ],
          "internalType": "struct DiamondSettings",
          "name": "params",
          "type": "tuple"
        },
        {
          "internalType": "address",
          "name": "diamondInit",
          "type": "address"
        },
        {
          "internalType": "bytes",
          "name": "_calldata",
          "type": "bytes"
        },
        {
          "components": [
            {
              "internalType": "address",
              "name": "facetAddress",
              "type": "address"
            },
            {
              "internalType": "enum IDiamondCut.FacetCutAction",
              "name": "action",
              "type": "uint8"
            },
            {
              "internalType": "bytes4[]",
              "name": "functionSelectors",
              "type": "bytes4[]"
            }
          ],
          "internalType": "struct IDiamondCut.FacetCut[]",
          "name": "facets",
          "type": "tuple[]"
        }
      ],
      "name": "create",
      "outputs": [
        {
          "internalType": "address payable",
          "name": "diamondAddress",
          "type": "address"
        }
      ],
      "stateMutability": "nonpayable",
      "type": "function"
    },
    {
      "inputs": [
        {
          "components": [
            {
              "internalType": "address",
              "name": "owner",
              "type": "address"
            },
            {
              "internalType": "address",
              "name": "factory",
              "type": "address"
            },
            {
              "internalType": "address",
              "name": "svgManager",
              "type": "address"
            },
            {
              "internalType": "string",
              "name": "symbol",
              "type": "string"
            },
            {
              "internalType": "string",
              "name": "name",
              "type": "string"
            }
          ],
          "internalType": "struct DiamondSettings",
          "name": "params",
          "type": "tuple"
        },
        {
          "internalType": "address",
          "name": "diamondInit",
          "type": "address"
        },
        {
          "internalType": "bytes",
          "name": "_calldata",
          "type": "bytes"
        },
        {
          "internalType": "string",
          "name": "facets",
          "type": "string"
        }
      ],
      "name": "createFromSet",
      "outputs": [
        {
          "internalType": "address payable",
          "name": "diamondAddress",
          "type": "address"
        }
      ],
      "stateMutability": "nonpayable",
      "type": "function"
    },
    {
      "inputs": [
        {
          "internalType": "string",
          "name": "symbol",
          "type": "string"
        }
      ],
      "name": "exists",
      "outputs": [
        {
          "internalType": "bool",
          "name": "",
          "type": "bool"
        }
      ],
      "stateMutability": "view",
      "type": "function"
    },
    {
      "inputs": [
        {
          "internalType": "string",
          "name": "symbol",
          "type": "string"
        }
      ],
      "name": "getDiamondAddress",
      "outputs": [
        {
          "internalType": "address",
          "name": "",
          "type": "address"
        }
      ],
      "stateMutability": "view",
      "type": "function"
    },
    {
      "inputs": [
        {
          "internalType": "string",
          "name": "facetSet",
          "type": "string"
        }
      ],
      "name": "getFacets",
      "outputs": [
        {
          "components": [
            {
              "internalType": "address",
              "name": "facetAddress",
              "type": "address"
            },
            {
              "internalType": "enum IDiamondCut.FacetCutAction",
              "name": "action",
              "type": "uint8"
            },
            {
              "internalType": "bytes4[]",
              "name": "functionSelectors",
              "type": "bytes4[]"
            }
          ],
          "internalType": "struct IDiamondCut.FacetCut[]",
          "name": "",
          "type": "tuple[]"
        }
      ],
      "stateMutability": "view",
      "type": "function"
    },
    {
      "inputs": [
        {
          "components": [
            {
              "internalType": "string",
              "name": "setName",
              "type": "string"
            },
            {
              "components": [
                {
                  "internalType": "address",
                  "name": "facetAddress",
                  "type": "address"
                },
                {
                  "internalType": "enum IDiamondCut.FacetCutAction",
                  "name": "action",
                  "type": "uint8"
                },
                {
                  "internalType": "bytes4[]",
                  "name": "functionSelectors",
                  "type": "bytes4[]"
                }
              ],
              "internalType": "struct IDiamondCut.FacetCut[]",
              "name": "facetAddresses",
              "type": "tuple[]"
            }
          ],
          "internalType": "struct DiamondFactoryInit",
          "name": "initData",
          "type": "tuple"
        }
      ],
      "name": "initialize",
      "outputs": [],
      "stateMutability": "nonpayable",
      "type": "function"
    },
    {
      "inputs": [
        {
          "internalType": "address",
          "name": "_address",
          "type": "address"
        }
      ],
      "name": "isController",
      "outputs": [
        {
          "internalType": "bool",
          "name": "allowed",
          "type": "bool"
        }
      ],
      "stateMutability": "view",
      "type": "function"
    },
    {
      "inputs": [],
      "name": "relinquishControl",
      "outputs": [],
      "stateMutability": "nonpayable",
      "type": "function"
    },
    {
      "inputs": [
        {
          "internalType": "string",
          "name": "symbol",
          "type": "string"
        }
      ],
      "name": "remove",
      "outputs": [],
      "stateMutability": "nonpayable",
      "type": "function"
    },
    {
      "inputs": [
        {
          "internalType": "string",
          "name": "facetSet",
          "type": "string"
        }
      ],
      "name": "removeFacets",
      "outputs": [],
      "stateMutability": "nonpayable",
      "type": "function"
    },
    {
      "inputs": [
        {
          "internalType": "string",
          "name": "facetSet",
          "type": "string"
        },
        {
          "internalType": "uint256",
          "name": "idx",
          "type": "uint256"
        },
        {
          "components": [
            {
              "internalType": "address",
              "name": "facetAddress",
              "type": "address"
            },
            {
              "internalType": "enum IDiamondCut.FacetCutAction",
              "name": "action",
              "type": "uint8"
            },
            {
              "internalType": "bytes4[]",
              "name": "functionSelectors",
              "type": "bytes4[]"
            }
          ],
          "internalType": "struct IDiamondCut.FacetCut",
          "name": "facetAddress",
          "type": "tuple"
        }
      ],
      "name": "setFacet",
      "outputs": [],
      "stateMutability": "nonpayable",
      "type": "function"
    },
    {
      "inputs": [
        {
          "internalType": "string",
          "name": "facetSet",
          "type": "string"
        },
        {
          "components": [
            {
              "internalType": "address",
              "name": "facetAddress",
              "type": "address"
            },
            {
              "internalType": "enum IDiamondCut.FacetCutAction",
              "name": "action",
              "type": "uint8"
            },
            {
              "internalType": "bytes4[]",
              "name": "functionSelectors",
              "type": "bytes4[]"
            }
          ],
          "internalType": "struct IDiamondCut.FacetCut[]",
          "name": "facetAddress",
          "type": "tuple[]"
        }
      ],
      "name": "setFacets",
      "outputs": [],
      "stateMutability": "nonpayable",
      "type": "function"
    },
    {
      "inputs": [],
      "name": "symbols",
      "outputs": [
        {
          "internalType": "string[]",
          "name": "",
          "type": "string[]"
        }
      ],
      "stateMutability": "view",
      "type": "function"
    }
  ],
  "transactionHash": "0xd58db95b37b7563e4488f14daaf0f4d1413b6be72091a22df52fa8015a9c6f7a",
  "args": [],
  "numDeployments": 1,
  "solcInputHash": "dbcfcf842e810514aedd8e426522bfbb",
  "bytecode": "0x608060405234801561001057600080fd5b50336000908152600160208190526040909120805460ff191690911790556152178061003d6000396000f3fe608060405234801561001057600080fd5b50600436106100f55760003560e01c80639c3516bc11610097578063c2686d2611610066578063c2686d2614610200578063e100ce5114610213578063e1c28bef14610233578063f3821a871461023b57600080fd5b80639c3516bc146101b4578063a1892e61146101c7578063a7fc7a07146101da578063b429afeb146101ed57600080fd5b8063261a323e116100d3578063261a323e146101585780632bffc7ed1461017b57806358a9ba371461018e57806380599e4b146101a157600080fd5b806307039ff9146100fa578063149b5367146101185780631d034c6b14610143575b600080fd5b61010261024e565b60405161010f9190611a61565b60405180910390f35b61012b610126366004611e86565b610344565b6040516001600160a01b03909116815260200161010f565b610156610151366004611f29565b610502565b005b61016b610166366004611f29565b6105be565b604051901515815260200161010f565b610156610189366004611f66565b610614565b61012b61019c366004611fb8565b61077e565b6101566101af366004611f29565b6108d1565b61012b6101c2366004611f29565b6109f4565b6101566101d536600461204e565b610a53565b6101566101e83660046120f5565b610bd0565b61016b6101fb3660046120f5565b610c6a565b61015661020e366004612112565b610c8b565b610226610221366004611f29565b610d2b565b60405161010f9190612271565b610156610ebc565b610156610249366004612284565b610f35565b60607fc0847719db856b4649f5945ac2d5ad21b3a9b6cc6e5915f5e0d7e81737456def80546040805160208084028201810190925282815292919060009084015b8282101561033b5783829060005260206000200180546102ae906122e8565b80601f01602080910402602001604051908101604052809291908181526020018280546102da906122e8565b80156103275780601f106102fc57610100808354040283529160200191610327565b820191906000526020600020905b81548152906001019060200180831161030a57829003601f168201915b50505050508152602001906001019061028f565b50505050905090565b33600090815260016020819052604082205460ff161515148061036657503033145b6103b75760405162461bcd60e51b815260206004820152601a60248201527f63616c6c6572206973206e6f74206120636f6e74726f6c6c657200000000000060448201526064015b60405180910390fd5b60608601516040516000917fc0847719db856b4649f5945ac2d5ad21b3a9b6cc6e5915f5e0d7e81737456df0916103ee9190612322565b908152604051908190036020019020546001600160a01b03161461043d5760405162461bcd60e51b815260206004820152600660248201526565786973747360d01b60448201526064016103ae565b61049c3087878787604051806020016104559061187d565b601f1982820381018352601f90910116604052886104907fc0847719db856b4649f5945ac2d5ad21b3a9b6cc6e5915f5e0d7e81737456def90565b96959493929190610fcf565b905085606001516040516104b09190612322565b6040518091039020306001600160a01b03167fa9e4ed5c52fc03bd0d98fc3e0f1c55420035f14b46239a3c935af7ea5e1733e7886040516104f19190612399565b60405180910390a395945050505050565b3360009081526001602081905260409091205460ff161515148061052557503033145b6105715760405162461bcd60e51b815260206004820152601a60248201527f63616c6c6572206973206e6f74206120636f6e74726f6c6c657200000000000060448201526064016103ae565b6040517fc0847719db856b4649f5945ac2d5ad21b3a9b6cc6e5915f5e0d7e81737456df1906105a1908390612322565b908152602001604051809103902060006105bb919061188a565b50565b60405160009081907fc0847719db856b4649f5945ac2d5ad21b3a9b6cc6e5915f5e0d7e81737456df0906105f3908590612322565b908152604051908190036020019020546001600160a01b0316141592915050565b3360009081526001602081905260409091205460ff161515148061063757503033145b6106835760405162461bcd60e51b815260206004820152601a60248201527f63616c6c6572206973206e6f74206120636f6e74726f6c6c657200000000000060448201526064016103ae565b6040516000907fc0847719db856b4649f5945ac2d5ad21b3a9b6cc6e5915f5e0d7e81737456df0906106b6908590612322565b908152604051908190036020019020546001600160a01b0316146107055760405162461bcd60e51b815260206004820152600660248201526565786973747360d01b60448201526064016103ae565b6107307fc0847719db856b4649f5945ac2d5ad21b3a9b6cc6e5915f5e0d7e81737456def8383611169565b806001600160a01b0316826040516107489190612322565b6040519081900381209030907f53eeb4412af1dc4bbf2d05ef723ff9e78b4336024e5789b824f92de98e077ddc90600090a45050565b33600090815260016020819052604082205460ff16151514806107a057503033145b6107ec5760405162461bcd60e51b815260206004820152601a60248201527f63616c6c6572206973206e6f74206120636f6e74726f6c6c657200000000000060448201526064016103ae565b60608601516040516000917fc0847719db856b4649f5945ac2d5ad21b3a9b6cc6e5915f5e0d7e81737456df0916108239190612322565b908152604051908190036020019020546001600160a01b0316146108725760405162461bcd60e51b815260206004820152600660248201526565786973747360d01b60448201526064016103ae565b61049c30878787876040518060200161088a9061187d565b601f1982820381018352601f90910116604052886108c57fc0847719db856b4649f5945ac2d5ad21b3a9b6cc6e5915f5e0d7e81737456def90565b969594939291906111dd565b3360009081526001602081905260409091205460ff16151514806108f457503033145b6109405760405162461bcd60e51b815260206004820152601a60248201527f63616c6c6572206973206e6f74206120636f6e74726f6c6c657200000000000060448201526064016103ae565b61096a7fc0847719db856b4649f5945ac2d5ad21b3a9b6cc6e5915f5e0d7e81737456def82611328565b6040517fc0847719db856b4649f5945ac2d5ad21b3a9b6cc6e5915f5e0d7e81737456df09061099a908390612322565b908152604051908190036020018120546001600160a01b0316906109bf908390612322565b6040519081900381209030907f4811a91c36c8933cf786c67c36e85035604164809ee2f5ce6ca9a96842a0225c90600090a450565b6000610a4d308360405180602001610a0b9061187d565b601f1982820381018352601f90910116604052610a457fc0847719db856b4649f5945ac2d5ad21b3a9b6cc6e5915f5e0d7e81737456def90565b929190611465565b92915050565b600054610100900460ff1615808015610a735750600054600160ff909116105b80610a8d5750303b158015610a8d575060005460ff166001145b610aff5760405162461bcd60e51b815260206004820152602e60248201527f496e697469616c697a61626c653a20636f6e747261637420697320616c72656160448201527f647920696e697469616c697a656400000000000000000000000000000000000060648201526084016103ae565b6000805460ff191660011790558015610b22576000805461ff0019166101001790555b81516020830151610b5791907fc0847719db856b4649f5945ac2d5ad21b3a9b6cc6e5915f5e0d7e81737456def5b91906114a9565b81517fc0847719db856b4649f5945ac2d5ad21b3a9b6cc6e5915f5e0d7e81737456df290610b8590826123fa565b508015610bcc576000805461ff0019169055604051600181527f7f26b83ff96e1f2b6a682f133852f6798a09c465da95921460cefb38474024989060200160405180910390a15b5050565b3360009081526001602081905260409091205460ff1615151480610bf357503033145b610c3f5760405162461bcd60e51b815260206004820152601a60248201527f63616c6c6572206973206e6f74206120636f6e74726f6c6c657200000000000060448201526064016103ae565b6105bb816001600160a01b03166000908152600160208190526040909120805460ff19169091179055565b6001600160a01b03811660009081526001602052604081205460ff16610a4d565b3360009081526001602081905260409091205460ff1615151480610cae57503033145b610cfa5760405162461bcd60e51b815260206004820152601a60248201527f63616c6c6572206973206e6f74206120636f6e74726f6c6c657200000000000060448201526064016103ae565b610d267fc0847719db856b4649f5945ac2d5ad21b3a9b6cc6e5915f5e0d7e81737456def8484846115c4565b505050565b6040516060907fc0847719db856b4649f5945ac2d5ad21b3a9b6cc6e5915f5e0d7e81737456df190610d5e908490612322565b9081526020016040518091039020805480602002602001604051908101604052809291908181526020016000905b82821015610eb15760008481526020908190206040805160608101909152600285810290920180546001600160a01b0381168352919390929084019174010000000000000000000000000000000000000000900460ff1690811115610df357610df361217f565b6002811115610e0457610e0461217f565b815260200160018201805480602002602001604051908101604052809291908181526020018280548015610e9957602002820191906000526020600020906000905b82829054906101000a900460e01b7bffffffffffffffffffffffffffffffffffffffffffffffffffffffff191681526020019060040190602082600301049283019260010382029150808411610e465790505b50505050508152505081526020019060010190610d8c565b505050509050919050565b3360009081526001602081905260409091205460ff1615151480610edf57503033145b610f2b5760405162461bcd60e51b815260206004820152601a60248201527f63616c6c6572206973206e6f74206120636f6e74726f6c6c657200000000000060448201526064016103ae565b610f336116b8565b565b3360009081526001602081905260409091205460ff1615151480610f5857503033145b610fa45760405162461bcd60e51b815260206004820152601a60248201527f63616c6c6572206973206e6f74206120636f6e74726f6c6c657200000000000060448201526064016103ae565b610bcc82827fc0847719db856b4649f5945ac2d5ad21b3a9b6cc6e5915f5e0d7e81737456def610b50565b60006110096000898960600151604051602001610fed9291906124ba565b6040516020818303038152906040528051906020012085611740565b90506001600160a01b0381166110615760405162461bcd60e51b815260206004820152600d60248201527f6372656174655f6661696c65640000000000000000000000000000000000000060448201526064016103ae565b8089600001600101886060015160405161107b9190612322565b90815260405160209181900382019020805473ffffffffffffffffffffffffffffffffffffffff19166001600160a01b03939093169290921790915560608801518a54600181018c5560008c815292909220909101906110db90826123fa565b506040517fcde7b2c10000000000000000000000000000000000000000000000000000000081526001600160a01b0382169063cde7b2c19061112b9033908b9087908c908c908c90600401612530565b600060405180830381600087803b15801561114557600080fd5b505af1158015611159573d6000803e3d6000fd5b5050505098975050505050505050565b80836000016001018360405161117f9190612322565b90815260405160209181900382019020805473ffffffffffffffffffffffffffffffffffffffff19166001600160a01b0393909316929092179091558354600181018555600085815291909120016111d783826123fa565b50505050565b60006111fb6000898960600151604051602001610fed9291906124ba565b90506001600160a01b0381166112535760405162461bcd60e51b815260206004820152600d60248201527f6372656174655f6661696c65640000000000000000000000000000000000000060448201526064016103ae565b8089600001600101886060015160405161126d9190612322565b90815260405160209181900382019020805473ffffffffffffffffffffffffffffffffffffffff19166001600160a01b03939093169290921790915560608801518a54600181018c5560008c815292909220909101906112cd90826123fa565b50806001600160a01b031663cde7b2c133898c600001600201866040516112f49190612322565b9081526040519081900360200181206001600160e01b031960e086901b16825261112b9392918c908c908c90600401612590565b6000826000016001018260405161133f9190612322565b90815260405190819003602001902080546001600160a01b039290921673ffffffffffffffffffffffffffffffffffffffff1990921691909117905560005b8254811015610d26578151602083012083548490839081106113a2576113a2612870565b906000526020600020016040516113b99190612886565b60405180910390200361145357825483906113d690600190612912565b815481106113e6576113e6612870565b9060005260206000200183600001600001828154811061140857611408612870565b90600052602060002001908161141e9190612925565b50825483908061143057611430612a00565b60019003818190600052602060002001600061144c91906118ab565b9055505050565b8061145d81612a16565b91505061137e565b60006114a0848460405160200161147d9291906124ba565b60405160208183030381529060405280519060200120838051906020012061184b565b95945050505050565b60005b81518110156111d75760405160028501906114c8908590612322565b90815260200160405180910390208282815181106114e8576114e8612870565b60209081029190910181015182546001810184556000938452928290208151600294850290910180546001600160a01b0390921673ffffffffffffffffffffffffffffffffffffffff19831681178255938301519294909384927fffffffffffffffffffffff0000000000000000000000000000000000000000001617907401000000000000000000000000000000000000000090849081111561158e5761158e61217f565b0217905550604082015180516115ae9160018401916020909101906118e5565b50505080806115bc90612a16565b9150506114ac565b8084600001600201846040516115da9190612322565b908152602001604051809103902083815481106115f9576115f9612870565b60009182526020918290208351600292830290910180546001600160a01b0390921673ffffffffffffffffffffffffffffffffffffffff19831681178255938501519093909284927fffffffffffffffffffffff00000000000000000000000000000000000000000016909117907401000000000000000000000000000000000000000090849081111561168f5761168f61217f565b0217905550604082015180516116af9160018401916020909101906118e5565b50505050505050565b3360009081526001602081905260409091205460ff16151514806116db57503033145b6117275760405162461bcd60e51b815260206004820152601a60248201527f63616c6c6572206973206e6f74206120636f6e74726f6c6c657200000000000060448201526064016103ae565b336000908152600160205260409020805460ff19169055565b6000834710156117925760405162461bcd60e51b815260206004820152601d60248201527f437265617465323a20696e73756666696369656e742062616c616e636500000060448201526064016103ae565b81516000036117e35760405162461bcd60e51b815260206004820181905260248201527f437265617465323a2062797465636f6465206c656e677468206973207a65726f60448201526064016103ae565b8282516020840186f590506001600160a01b0381166118445760405162461bcd60e51b815260206004820152601960248201527f437265617465323a204661696c6564206f6e206465706c6f790000000000000060448201526064016103ae565b9392505050565b60006118448383306000604051836040820152846020820152828152600b8101905060ff815360559020949350505050565b6127b180612a3183390190565b50805460008255600202906000526020600020908101906105bb9190611991565b5080546118b7906122e8565b6000825580601f106118c7575050565b601f0160209004906000526020600020908101906105bb91906119d7565b828054828255906000526020600020906007016008900481019282156119815791602002820160005b8382111561194f57835183826101000a81548163ffffffff021916908360e01c0217905550926020019260040160208160030104928301926001030261190e565b801561197f5782816101000a81549063ffffffff021916905560040160208160030104928301926001030261194f565b505b5061198d9291506119d7565b5090565b8082111561198d5780547fffffffffffffffffffffff00000000000000000000000000000000000000000016815560006119ce60018301826119ec565b50600201611991565b5b8082111561198d57600081556001016119d8565b5080546000825560070160089004906000526020600020908101906105bb91906119d7565b60005b83811015611a2c578181015183820152602001611a14565b50506000910152565b60008151808452611a4d816020860160208601611a11565b601f01601f19169290920160200192915050565b6000602080830181845280855180835260408601915060408160051b870101925083870160005b82811015611ad4577fffffffffffffffffffffffffffffffffffffffffffffffffffffffffffffffc0888603018452611ac2858351611a35565b94509285019290850190600101611a88565b5092979650505050505050565b634e487b7160e01b600052604160045260246000fd5b6040516060810167ffffffffffffffff81118282101715611b1a57611b1a611ae1565b60405290565b604051601f8201601f1916810167ffffffffffffffff81118282101715611b4957611b49611ae1565b604052919050565b6001600160a01b03811681146105bb57600080fd5b8035611b7181611b51565b919050565b600082601f830112611b8757600080fd5b813567ffffffffffffffff811115611ba157611ba1611ae1565b611bb46020601f19601f84011601611b20565b818152846020838601011115611bc957600080fd5b816020850160208301376000918101602001919091529392505050565b600060a08284031215611bf857600080fd5b60405160a0810167ffffffffffffffff8282108183111715611c1c57611c1c611ae1565b8160405282935084359150611c3082611b51565b908252602084013590611c4282611b51565b816020840152611c5460408601611b66565b60408401526060850135915080821115611c6d57600080fd5b611c7986838701611b76565b60608401526080850135915080821115611c9257600080fd5b50611c9f85828601611b76565b6080830152505092915050565b60008083601f840112611cbe57600080fd5b50813567ffffffffffffffff811115611cd657600080fd5b602083019150836020828501011115611cee57600080fd5b9250929050565b600067ffffffffffffffff821115611d0f57611d0f611ae1565b5060051b60200190565b600060608284031215611d2b57600080fd5b611d33611af7565b90508135611d4081611b51565b815260208281013560038110611d5557600080fd5b82820152604083013567ffffffffffffffff811115611d7357600080fd5b8301601f81018513611d8457600080fd5b8035611d97611d9282611cf5565b611b20565b81815260059190911b82018301908381019087831115611db657600080fd5b928401925b82841015611deb5783356001600160e01b031981168114611ddc5760008081fd5b82529284019290840190611dbb565b6040860152509295945050505050565b600082601f830112611e0c57600080fd5b81356020611e1c611d9283611cf5565b82815260059290921b84018101918181019086841115611e3b57600080fd5b8286015b84811015611e7b57803567ffffffffffffffff811115611e5f5760008081fd5b611e6d8986838b0101611d19565b845250918301918301611e3f565b509695505050505050565b600080600080600060808688031215611e9e57600080fd5b853567ffffffffffffffff80821115611eb657600080fd5b611ec289838a01611be6565b965060208801359150611ed482611b51565b90945060408701359080821115611eea57600080fd5b611ef689838a01611cac565b90955093506060880135915080821115611f0f57600080fd5b50611f1c88828901611dfb565b9150509295509295909350565b600060208284031215611f3b57600080fd5b813567ffffffffffffffff811115611f5257600080fd5b611f5e84828501611b76565b949350505050565b60008060408385031215611f7957600080fd5b823567ffffffffffffffff811115611f9057600080fd5b611f9c85828601611b76565b9250506020830135611fad81611b51565b809150509250929050565b600080600080600060808688031215611fd057600080fd5b853567ffffffffffffffff80821115611fe857600080fd5b611ff489838a01611be6565b96506020880135915061200682611b51565b9094506040870135908082111561201c57600080fd5b61202889838a01611cac565b9095509350606088013591508082111561204157600080fd5b50611f1c88828901611b76565b60006020828403121561206057600080fd5b813567ffffffffffffffff8082111561207857600080fd5b908301906040828603121561208c57600080fd5b6040516040810181811083821117156120a7576120a7611ae1565b6040528235828111156120b957600080fd5b6120c587828601611b76565b8252506020830135828111156120da57600080fd5b6120e687828601611dfb565b60208301525095945050505050565b60006020828403121561210757600080fd5b813561184481611b51565b60008060006060848603121561212757600080fd5b833567ffffffffffffffff8082111561213f57600080fd5b61214b87838801611b76565b945060208601359350604086013591508082111561216857600080fd5b5061217586828701611d19565b9150509250925092565b634e487b7160e01b600052602160045260246000fd5b600381106121b357634e487b7160e01b600052602160045260246000fd5b9052565b6000815180845260208085019450848260051b86018286016000805b86811015612263578484038a52825160608086016001600160a01b038351168752888301516122048a890182612195565b506040928301519287019190915281519081905290870190608086019084905b8082101561224e5783516001600160e01b0319168352928901929189019160019190910190612224565b50509a87019a945050918501916001016121d3565b509198975050505050505050565b60208152600061184460208301846121b7565b6000806040838503121561229757600080fd5b823567ffffffffffffffff808211156122af57600080fd5b6122bb86838701611b76565b935060208501359150808211156122d157600080fd5b506122de85828601611dfb565b9150509250929050565b600181811c908216806122fc57607f821691505b60208210810361231c57634e487b7160e01b600052602260045260246000fd5b50919050565b60008251612334818460208701611a11565b9190910192915050565b60006001600160a01b0380835116845280602084015116602085015280604084015116604085015250606082015160a0606085015261238060a0850182611a35565b9050608083015184820360808601526114a08282611a35565b602081526000611844602083018461233e565b601f821115610d2657600081815260208120601f850160051c810160208610156123d35750805b601f850160051c820191505b818110156123f2578281556001016123df565b505050505050565b815167ffffffffffffffff81111561241457612414611ae1565b6124288161242284546122e8565b846123ac565b602080601f83116001811461245d57600084156124455750858301515b600019600386901b1c1916600185901b1785556123f2565b600085815260208120601f198616915b8281101561248c5788860151825594840194600190910190840161246d565b50858210156124aa5787850151600019600388901b60f8161c191681555b5050505050600190811b01905550565b7fffffffffffffffffffffffffffffffffffffffff0000000000000000000000008360601b168152600082516124f7816014850160208701611a11565b919091016014019392505050565b818352818160208501375060006020828401015260006020601f19601f840116840101905092915050565b60006001600160a01b03808916835260a0602084015261255360a084018961233e565b838103604085015261256581896121b7565b905081871660608501528381036080850152612582818688612505565b9a9950505050505050505050565b60006001600160a01b03808916835260a060208401526125b360a084018961233e565b838103604085015280885480835260208301915060208160051b8401018a600052602060002060005b8381101561283b57601f19868403018552815487811684526126076020850160ff8360a01c16612195565b5060606040840152606083016001830154612626818390815260200190565b915061263b6001850160009081526020902090565b60005b82600782011015612705578154612661858260e01b6001600160e01b0319169052565b6001600160e01b031960c082901b8116602087015260a082901b81166040870152608082901b811660608701526126a960808701828460601b166001600160e01b0319169052565b6126c460a08701828460401b166001600160e01b0319169052565b6126df60c08701828460201b166001600160e01b0319169052565b166001600160e01b03191660e0850152610100909301926001919091019060080161263e565b9054908281101561273157612726848360e01b6001600160e01b0319169052565b602093909301926001015b82811015612754576001600160e01b031960c083901b1684526020909301926001015b82811015612777576001600160e01b031960a083901b1684526020909301926001015b8281101561279a576001600160e01b0319608083901b1684526020909301926001015b828110156127bd576001600160e01b0319606083901b1684526020909301926001015b828110156127e0576001600160e01b0319604083901b1684526020909301926001015b8281101561280457602082901b6001600160e01b0319168452602093909301926001015b82811015612820576001600160e01b0319821684526020840193505b505050602095909501949250600291909101906001016125dc565b50506001600160a01b038a166060880152868103608088015261285f81898b612505565b9d9c50505050505050505050505050565b634e487b7160e01b600052603260045260246000fd5b6000808354612894816122e8565b600182811680156128ac57600181146128c1576128f0565b60ff19841687528215158302870194506128f0565b8760005260208060002060005b858110156128e75781548a8201529084019082016128ce565b50505082870194505b50929695505050505050565b634e487b7160e01b600052601160045260246000fd5b81810381811115610a4d57610a4d6128fc565b818103612930575050565b61293a82546122e8565b67ffffffffffffffff81111561295257612952611ae1565b6129608161242284546122e8565b6000601f821160018114612994576000831561297c5750848201545b600019600385901b1c1916600184901b1784556129f9565b600085815260209020601f19841690600086815260209020845b838110156129ce57828601548255600195860195909101906020016129ae565b50858310156129ec5781850154600019600388901b60f8161c191681555b50505060018360011b0184555b5050505050565b634e487b7160e01b600052603160045260246000fd5b60006000198203612a2957612a296128fc565b506001019056fe608060405234801561001057600080fd5b50612791806100206000396000f3fe60806040526004361061009a5760003560e01c80638da5cb5b11610069578063cde7b2c11161004e578063cde7b2c114610253578063cdffacc614610273578063f2fde38b146102d2576100a1565b80638da5cb5b146101f9578063adfca15e14610226576100a1565b806301ffc9a7146101605780631f931c1c1461019557806352ef6b2c146101b55780637a0ed627146101d7576100a1565b366100a157005b600080356001600160e01b03191681527fc8fcad8db84d3cc18b4c41d551ea0ee66dd599cde068d998e57d5e09332c131c602081905260409091205481906001600160a01b03168061013a5760405162461bcd60e51b815260206004820181905260248201527f4469616d6f6e643a2046756e6374696f6e20646f6573206e6f7420657869737460448201526064015b60405180910390fd5b3660008037600080366000845af43d6000803e808015610159573d6000f35b3d6000fd5b005b34801561016c57600080fd5b5061018061017b366004611d37565b6102f2565b60405190151581526020015b60405180910390f35b3480156101a157600080fd5b5061015e6101b0366004611db2565b61040b565b3480156101c157600080fd5b506101ca61045c565b60405161018c9190611e64565b3480156101e357600080fd5b506101ec6104e1565b60405161018c9190611ef6565b34801561020557600080fd5b5061020e6106d3565b6040516001600160a01b03909116815260200161018c565b34801561023257600080fd5b50610246610241366004611f91565b61070b565b60405161018c9190611fac565b34801561025f57600080fd5b5061015e61026e366004612269565b6107fe565b34801561027f57600080fd5b5061020e61028e366004611d37565b6001600160e01b03191660009081527fc8fcad8db84d3cc18b4c41d551ea0ee66dd599cde068d998e57d5e09332c131c60205260409020546001600160a01b031690565b3480156102de57600080fd5b5061015e6102ed366004611f91565b610c34565b60007fc8fcad8db84d3cc18b4c41d551ea0ee66dd599cde068d998e57d5e09332c131c6001600160e01b031983167f01ffc9a700000000000000000000000000000000000000000000000000000000148061037657507f80ac58cd000000000000000000000000000000000000000000000000000000006001600160e01b03198416145b806103aa57507f5b5e139f000000000000000000000000000000000000000000000000000000006001600160e01b03198416145b806103de57507f780e9d63000000000000000000000000000000000000000000000000000000006001600160e01b03198416145b8061040457506001600160e01b03198316600090815260038201602052604090205460ff165b9392505050565b610455610418858761239e565b8484848080601f016020809104026020016040519081016040528093929190818152602001838380828437600092019190915250610c4092505050565b5050505050565b606060007fc8fcad8db84d3cc18b4c41d551ea0ee66dd599cde068d998e57d5e09332c131c600281018054604080516020808402820181019092528281529394508301828280156104d657602002820191906000526020600020905b81546001600160a01b031681526001909101906020018083116104b8575b505050505091505090565b7fc8fcad8db84d3cc18b4c41d551ea0ee66dd599cde068d998e57d5e09332c131e546060907fc8fcad8db84d3cc18b4c41d551ea0ee66dd599cde068d998e57d5e09332c131c908067ffffffffffffffff81111561054157610541611fee565b60405190808252806020026020018201604052801561058757816020015b60408051808201909152600081526060602082015281526020019060019003908161055f5790505b50925060005b818110156106cd5760008360020182815481106105ac576105ac6123ab565b9060005260206000200160009054906101000a90046001600160a01b03169050808583815181106105df576105df6123ab565b6020908102919091018101516001600160a01b03928316905290821660009081526001860182526040908190208054825181850281018501909352808352919290919083018282801561069357602002820191906000526020600020906000905b82829054906101000a900460e01b7bffffffffffffffffffffffffffffffffffffffffffffffffffffffff1916815260200190600401906020826003010492830192600103820291508084116106405790505b50505050508583815181106106aa576106aa6123ab565b6020026020010151602001819052505080806106c5906123d7565b91505061058d565b50505090565b60006107067fc8fcad8db84d3cc18b4c41d551ea0ee66dd599cde068d998e57d5e09332c1320546001600160a01b031690565b905090565b6001600160a01b03811660009081527fc8fcad8db84d3cc18b4c41d551ea0ee66dd599cde068d998e57d5e09332c131d602090815260409182902080548351818402810184019094528084526060937fc8fcad8db84d3cc18b4c41d551ea0ee66dd599cde068d998e57d5e09332c131c93909291908301828280156107f157602002820191906000526020600020906000905b82829054906101000a900460e01b7bffffffffffffffffffffffffffffffffffffffffffffffffffffffff19168152602001906004019060208260030104928301926001038202915080841161079e5790505b5050505050915050919050565b600054610100900460ff161580801561081e5750600054600160ff909116105b806108385750303b158015610838575060005460ff166001145b6108aa5760405162461bcd60e51b815260206004820152602e60248201527f496e697469616c697a61626c653a20636f6e747261637420697320616c72656160448201527f647920696e697469616c697a65640000000000000000000000000000000000006064820152608401610131565b6000805460ff1916600117905580156108cd576000805461ff0019166101001790555b7fc8fcad8db84d3cc18b4c41d551ea0ee66dd599cde068d998e57d5e09332c131f60209081527f699d9daa71b280d05a152715774afa0a81a312594b2d731d6b0b2552b7d6f69f8054600160ff1991821681179092557ff97e938d8af42f52387bb74b8b526fda8f184cc2aa534340a8d75a88fbecc77580548216831790557f65d510a5d8f7ef134ec444f7f34ee808c8eeb5177cdfd16be0c40fe1ab43369580548216831790557f5622121b47b8cd0120c4efe45dd5483242f54a3d49bd7679be565d47694918c380548216831790557fb0f299ecb5b93181be17d5e233721498930c5361f367b1d41c5b827d4fe4d38080548216831790557f5b5e139f000000000000000000000000000000000000000000000000000000006000527f806e5513950c43892aa01780f899fe3e3229f9425b66a2610b01231f5799f44e8054909116909117905560408051601f8501839004830281018301909152838152610a5591879187918790879081908401838280828437600092019190915250610c4092505050565b7f3b28ada7424160f36dba04e603ff68d11ac4a3eeb1ef7a9911d79d949607b74080546001600160a01b03891673ffffffffffffffffffffffffffffffffffffffff199091161790556060860151604080517f73796d626f6c000000000000000000000000000000000000000000000000000081527f3b28ada7424160f36dba04e603ff68d11ac4a3eeb1ef7a9911d79d949607b7456006820152905190819003602601902090610b069082612479565b506080860151604080517f6e616d650000000000000000000000000000000000000000000000000000000081527f3b28ada7424160f36dba04e603ff68d11ac4a3eeb1ef7a9911d79d949607b7456004820152905190819003602401902090610b6f9082612479565b5085516040517ff2fde38b0000000000000000000000000000000000000000000000000000000081526001600160a01b039091166004820152309063f2fde38b90602401600060405180830381600087803b158015610bcd57600080fd5b505af1158015610be1573d6000803e3d6000fd5b505050508015610c2b576000805461ff0019169055604051600181527f7f26b83ff96e1f2b6a682f133852f6798a09c465da95921460cefb38474024989060200160405180910390a15b50505050505050565b610c3d81610e67565b50565b60005b8351811015610e1c576000848281518110610c6057610c606123ab565b602002602001015160200151905060006002811115610c8157610c81612539565b816002811115610c9357610c93612539565b03610ce157610cdc858381518110610cad57610cad6123ab565b602002602001015160000151868481518110610ccb57610ccb6123ab565b602002602001015160400151610f09565b610e09565b6001816002811115610cf557610cf5612539565b03610d3e57610cdc858381518110610d0f57610d0f6123ab565b602002602001015160000151868481518110610d2d57610d2d6123ab565b6020026020010151604001516111ea565b6002816002811115610d5257610d52612539565b03610d9b57610cdc858381518110610d6c57610d6c6123ab565b602002602001015160000151868481518110610d8a57610d8a6123ab565b6020026020010151604001516114db565b60405162461bcd60e51b815260206004820152602760248201527f4c69624469616d6f6e644375743a20496e636f7272656374204661636574437560448201527f74416374696f6e000000000000000000000000000000000000000000000000006064820152608401610131565b5080610e14816123d7565b915050610c43565b507f8faa70878671ccd212d20771b795c50af8fd3ff6cf27f4bde57e5d4de0aeb673838383604051610e509392919061259f565b60405180910390a1610e628282611668565b505050565b7fc8fcad8db84d3cc18b4c41d551ea0ee66dd599cde068d998e57d5e09332c1320805473ffffffffffffffffffffffffffffffffffffffff1981166001600160a01b038481169182179093556040517fc8fcad8db84d3cc18b4c41d551ea0ee66dd599cde068d998e57d5e09332c131c939092169182907f8be0079c531659141344cd1fd0a4f28419497f9722a3daafe3b4186f6b6457e090600090a3505050565b6000815111610f805760405162461bcd60e51b815260206004820152602b60248201527f4c69624469616d6f6e644375743a204e6f2073656c6563746f727320696e206660448201527f6163657420746f206375740000000000000000000000000000000000000000006064820152608401610131565b7fc8fcad8db84d3cc18b4c41d551ea0ee66dd599cde068d998e57d5e09332c131c6001600160a01b03831661101d5760405162461bcd60e51b815260206004820152602c60248201527f4c69624469616d6f6e644375743a204164642066616365742063616e2774206260448201527f65206164647265737328302900000000000000000000000000000000000000006064820152608401610131565b6001600160a01b0383166000908152600182016020526040812054906bffffffffffffffffffffffff8216900361105857611058828561188c565b60005b8351811015610455576000848281518110611078576110786123ab565b6020908102919091018101516001600160e01b031981166000908152918690526040909120549091506001600160a01b0316801561111e5760405162461bcd60e51b815260206004820152603560248201527f4c69624469616d6f6e644375743a2043616e2774206164642066756e6374696f60448201527f6e207468617420616c72656164792065786973747300000000000000000000006064820152608401610131565b6001600160e01b0319821660008181526020878152604080832080546001600160a01b03908116600160a01b6bffffffffffffffffffffffff8c16021782558c168085526001808c0185529285208054938401815585528385206008840401805463ffffffff60079095166004026101000a948502191660e08a901c949094029390931790925593909252879052815473ffffffffffffffffffffffffffffffffffffffff1916179055836111d281612686565b945050505080806111e2906123d7565b91505061105b565b60008151116112615760405162461bcd60e51b815260206004820152602b60248201527f4c69624469616d6f6e644375743a204e6f2073656c6563746f727320696e206660448201527f6163657420746f206375740000000000000000000000000000000000000000006064820152608401610131565b7fc8fcad8db84d3cc18b4c41d551ea0ee66dd599cde068d998e57d5e09332c131c6001600160a01b0383166112fe5760405162461bcd60e51b815260206004820152602c60248201527f4c69624469616d6f6e644375743a204164642066616365742063616e2774206260448201527f65206164647265737328302900000000000000000000000000000000000000006064820152608401610131565b6001600160a01b0383166000908152600182016020526040812054906bffffffffffffffffffffffff8216900361133957611339828561188c565b60005b8351811015610455576000848281518110611359576113596123ab565b6020908102919091018101516001600160e01b031981166000908152918690526040909120549091506001600160a01b0390811690871681036114045760405162461bcd60e51b815260206004820152603860248201527f4c69624469616d6f6e644375743a2043616e2774207265706c6163652066756e60448201527f6374696f6e20776974682073616d652066756e6374696f6e00000000000000006064820152608401610131565b61140f858284611903565b6001600160e01b0319821660008181526020878152604080832080546001600160a01b03908116600160a01b6bffffffffffffffffffffffff8c16021782558c168085526001808c0185529285208054938401815585528385206008840401805463ffffffff60079095166004026101000a948502191660e08a901c949094029390931790925593909252879052815473ffffffffffffffffffffffffffffffffffffffff1916179055836114c381612686565b945050505080806114d3906123d7565b91505061133c565b60008151116115525760405162461bcd60e51b815260206004820152602b60248201527f4c69624469616d6f6e644375743a204e6f2073656c6563746f727320696e206660448201527f6163657420746f206375740000000000000000000000000000000000000000006064820152608401610131565b7fc8fcad8db84d3cc18b4c41d551ea0ee66dd599cde068d998e57d5e09332c131c6001600160a01b038316156115f05760405162461bcd60e51b815260206004820152603660248201527f4c69624469616d6f6e644375743a2052656d6f7665206661636574206164647260448201527f657373206d7573742062652061646472657373283029000000000000000000006064820152608401610131565b60005b8251811015611662576000838281518110611610576116106123ab565b6020908102919091018101516001600160e01b031981166000908152918590526040909120549091506001600160a01b031661164d848284611903565b5050808061165a906123d7565b9150506115f3565b50505050565b6001600160a01b0382166116ef578051156116eb5760405162461bcd60e51b815260206004820152603c60248201527f4c69624469616d6f6e644375743a205f696e697420697320616464726573732860448201527f3029206275745f63616c6c64617461206973206e6f7420656d707479000000006064820152608401610131565b5050565b60008151116117665760405162461bcd60e51b815260206004820152603d60248201527f4c69624469616d6f6e644375743a205f63616c6c6461746120697320656d707460448201527f7920627574205f696e6974206973206e6f7420616464726573732830290000006064820152608401610131565b6001600160a01b0382163014611798576117988260405180606001604052806028815260200161271060289139611cf9565b600080836001600160a01b0316836040516117b391906126b1565b600060405180830381855af49150503d80600081146117ee576040519150601f19603f3d011682016040523d82523d6000602084013e6117f3565b606091505b5091509150816116625780511561181e578060405162461bcd60e51b815260040161013191906126cd565b60405162461bcd60e51b815260206004820152602660248201527f4c69624469616d6f6e644375743a205f696e69742066756e6374696f6e20726560448201527f76657274656400000000000000000000000000000000000000000000000000006064820152608401610131565b6118ae8160405180606001604052806024815260200161273860249139611cf9565b6002820180546001600160a01b03909216600081815260019485016020908152604082208601859055948401835591825292902001805473ffffffffffffffffffffffffffffffffffffffff19169091179055565b6001600160a01b03821661197f5760405162461bcd60e51b815260206004820152603760248201527f4c69624469616d6f6e644375743a2043616e27742072656d6f76652066756e6360448201527f74696f6e207468617420646f65736e27742065786973740000000000000000006064820152608401610131565b306001600160a01b038316036119fd5760405162461bcd60e51b815260206004820152602e60248201527f4c69624469616d6f6e644375743a2043616e27742072656d6f766520696d6d7560448201527f7461626c652066756e6374696f6e0000000000000000000000000000000000006064820152608401610131565b6001600160e01b03198116600090815260208481526040808320546001600160a01b0386168452600180880190935290832054600160a01b9091046bffffffffffffffffffffffff169291611a51916126e0565b9050808214611b48576001600160a01b03841660009081526001860160205260408120805483908110611a8657611a866123ab565b600091825260208083206008830401546001600160a01b038916845260018a019091526040909220805460079092166004026101000a90920460e01b925082919085908110611ad757611ad76123ab565b600091825260208083206008830401805463ffffffff60079094166004026101000a938402191660e09590951c929092029390931790556001600160e01b03199290921682528690526040902080546001600160a01b0316600160a01b6bffffffffffffffffffffffff8516021790555b6001600160a01b03841660009081526001860160205260409020805480611b7157611b716126f9565b60008281526020808220600860001990940193840401805463ffffffff600460078716026101000a0219169055919092556001600160e01b03198516825286905260408120819055819003610455576002850154600090611bd4906001906126e0565b6001600160a01b0386166000908152600180890160205260409091200154909150808214611c90576000876002018381548110611c1357611c136123ab565b6000918252602090912001546002890180546001600160a01b039092169250829184908110611c4457611c446123ab565b6000918252602080832091909101805473ffffffffffffffffffffffffffffffffffffffff19166001600160a01b03948516179055929091168152600189810190925260409020018190555b86600201805480611ca357611ca36126f9565b600082815260208082208301600019908101805473ffffffffffffffffffffffffffffffffffffffff191690559092019092556001600160a01b0388168252600189810190915260408220015550505050505050565b813b81816116625760405162461bcd60e51b815260040161013191906126cd565b80356001600160e01b031981168114611d3257600080fd5b919050565b600060208284031215611d4957600080fd5b61040482611d1a565b80356001600160a01b0381168114611d3257600080fd5b60008083601f840112611d7b57600080fd5b50813567ffffffffffffffff811115611d9357600080fd5b602083019150836020828501011115611dab57600080fd5b9250929050565b600080600080600060608688031215611dca57600080fd5b853567ffffffffffffffff80821115611de257600080fd5b818801915088601f830112611df657600080fd5b813581811115611e0557600080fd5b8960208260051b8501011115611e1a57600080fd5b60208301975080965050611e3060208901611d52565b94506040880135915080821115611e4657600080fd5b50611e5388828901611d69565b969995985093965092949392505050565b6020808252825182820181905260009190848201906040850190845b81811015611ea55783516001600160a01b031683529284019291840191600101611e80565b50909695505050505050565b600081518084526020808501945080840160005b83811015611eeb5781516001600160e01b03191687529582019590820190600101611ec5565b509495945050505050565b60006020808301818452808551808352604092508286019150828160051b87010184880160005b83811015611f83578883037fffffffffffffffffffffffffffffffffffffffffffffffffffffffffffffffc0018552815180516001600160a01b03168452870151878401879052611f7087850182611eb1565b9588019593505090860190600101611f1d565b509098975050505050505050565b600060208284031215611fa357600080fd5b61040482611d52565b6020808252825182820181905260009190848201906040850190845b81811015611ea55783516001600160e01b03191683529284019291840191600101611fc8565b634e487b7160e01b600052604160045260246000fd5b6040516060810167ffffffffffffffff8111828210171561202757612027611fee565b60405290565b60405160a0810167ffffffffffffffff8111828210171561202757612027611fee565b604051601f8201601f1916810167ffffffffffffffff8111828210171561207957612079611fee565b604052919050565b600082601f83011261209257600080fd5b813567ffffffffffffffff8111156120ac576120ac611fee565b6120bf6020601f19601f84011601612050565b8181528460208386010111156120d457600080fd5b816020850160208301376000918101602001919091529392505050565b600067ffffffffffffffff82111561210b5761210b611fee565b5060051b60200190565b6000612128612123846120f1565b612050565b8381529050602080820190600585811b85018781111561214757600080fd5b855b8181101561223d57803567ffffffffffffffff8082111561216a5760008081fd5b908801906060828c03121561217f5760008081fd5b612187612004565b61219083611d52565b815286830135600381106121a45760008081fd5b81880152604083810135838111156121bc5760008081fd5b8085019450508c601f8501126121d457600092508283fd5b833592506121e4612123846120f1565b83815292871b8401880192888101908e8511156122015760008081fd5b948901945b848610156122265761221786611d1a565b82529489019490890190612206565b918301919091525087525050938301938301612149565b50505050509392505050565b600082601f83011261225a57600080fd5b61040483833560208501612115565b60008060008060008060a0878903121561228257600080fd5b61228b87611d52565b9550602087013567ffffffffffffffff808211156122a857600080fd5b9088019060a0828b0312156122bc57600080fd5b6122c461202d565b6122cd83611d52565b81526122db60208401611d52565b60208201526122ec60408401611d52565b604082015260608301358281111561230357600080fd5b61230f8c828601612081565b60608301525060808301358281111561232757600080fd5b6123338c828601612081565b6080830152509650604089013591508082111561234f57600080fd5b61235b8a838b01612249565b955061236960608a01611d52565b9450608089013591508082111561237f57600080fd5b5061238c89828a01611d69565b979a9699509497509295939492505050565b6000610404368484612115565b634e487b7160e01b600052603260045260246000fd5b634e487b7160e01b600052601160045260246000fd5b600060001982036123ea576123ea6123c1565b5060010190565b600181811c9082168061240557607f821691505b60208210810361242557634e487b7160e01b600052602260045260246000fd5b50919050565b601f821115610e6257600081815260208120601f850160051c810160208610156124525750805b601f850160051c820191505b818110156124715782815560010161245e565b505050505050565b815167ffffffffffffffff81111561249357612493611fee565b6124a7816124a184546123f1565b8461242b565b602080601f8311600181146124dc57600084156124c45750858301515b600019600386901b1c1916600185901b178555612471565b600085815260208120601f198616915b8281101561250b578886015182559484019460019091019084016124ec565b50858210156125295787850151600019600388901b60f8161c191681555b5050505050600190811b01905550565b634e487b7160e01b600052602160045260246000fd5b60005b8381101561256a578181015183820152602001612552565b50506000910152565b6000815180845261258b81602086016020860161254f565b601f01601f19169290920160200192915050565b6000606080830181845280875180835260808601915060808160051b87010192506020808a016000805b84811015612656577fffffffffffffffffffffffffffffffffffffffffffffffffffffffffffffff808a880301865282516001600160a01b038151168852848101516003811061262757634e487b7160e01b84526021600452602484fd5b8886015260409081015190880189905261264389890182611eb1565b97505094830194918301916001016125c9565b5050506001600160a01b038916908701525050838103604085015261267b8186612573565b979650505050505050565b60006bffffffffffffffffffffffff8083168181036126a7576126a76123c1565b6001019392505050565b600082516126c381846020870161254f565b9190910192915050565b6020815260006104046020830184612573565b818103818111156126f3576126f36123c1565b92915050565b634e487b7160e01b600052603160045260246000fdfe4c69624469616d6f6e644375743a205f696e6974206164647265737320686173206e6f20636f64654c69624469616d6f6e644375743a204e657720666163657420686173206e6f20636f6465a26469706673582212205f240e34c9c4c5c61a35d03aa3bb7f26d49a3bf52ff649698ac16a325ece0b5964736f6c63430008110033a26469706673582212207a57d8c25f7b9422ad0aba6f52e2d6b9464618a15090242a1673ae2ace2414b164736f6c63430008110033",
  "libraries": {
    "AddressSet": "0xe816f9c968c92bef011eabc25bb1e062f23f0ce3",
    "AttributeLib": "0x54b27B50D22583c3F8D44062105fa3746092F98D",
    "Base64": "0x18f7751ECdE5e9A20F7ba3b3E6419e5486dce02C",
    "Bytes32Set": "0xF8cF9DDd669304191Db084053CB0CB2B996721A8",
    "ClaimStorageLib": "0xb355293012312F75756CE66d5D6208D50E9570D9",
    "ClaimTopicLib": "0xfA5F92fB7D658b83Bd8eb891CFa1de03B2dE6ca0",
    "DiamondFactoryLib": "0x5e3a72a725e885D3297Df110fed8513c1A89590F",
    "DiamondLib": "0xfF3811e752E2fB8ca0192Ac977ec7EE0154C27D7",
    "ERC721AEnumerationLib": "0x3862fD7Aee0687c461D40A3c6AbaD9bD9F15e6c4",
    "ERC721ALib": "0x185d29cB9B14a6EA5d114534EF1A99C205d13204",
    "IdentityLib": "0x8187074C0542Adc6f8679958106A546F2Ac498cc",
    "LibDiamond": "0x0ef6EE0407615E57bC04bF16C21a9aeA1530f650",
    "MetadataLib": "0xFFa8D07fA502AbD668CFdba501999F3074f1a78c",
    "StringsLib": "0xfe30ea7bcFa85debB8FC3c8AA925ebEb22011b6f",
    "Strings": "0x9fF441f16e0163DCa2109c376d15348b3001232D",
    "SVGTemplatesLib": "0xB66E75ed2C1202b29F37e862e00CdA37B4edA8A3",
    "TrustedIssuerLib": "0x2DE50b277A2b56220F676E9C84524f9c3fdc12F3",
    "UInt256Set": "0xCA610CCce4b2aB25Adc1072a0C21df42320478A3",
    "IdentityFactory": "0xEA0f9DE12192E09bA196a2819081c196BAc99104"
  },
  "devdoc": {
    "kind": "dev",
    "methods": {
      "add(string,address)": {
        "params": {
          "diamondAddress": "the address of the diamond",
          "symbol": "the symbol of the diamond"
        }
      },
      "addController(address)": {
        "details": "Add an address allowed to control this contract"
      },
      "create((address,address,address,string,string),address,bytes,(address,uint8,bytes4[])[])": {
        "params": {
          "_calldata": "the calldata to pass to the diamond init contract",
          "diamondInit": "the diamond init contract",
          "params": "diamond init parameters"
        }
      },
      "createFromSet((address,address,address,string,string),address,bytes,string)": {
        "params": {
          "_calldata": "the calldata to pass to the diamond init contract",
          "diamondInit": "the diamond init contract",
          "params": "diamond init parameters"
        }
      },
      "exists(string)": {
        "params": {
          "symbol": "the symbol of the diamond to check"
        }
      },
      "getDiamondAddress(string)": {
        "params": {
          "symbol": "the symbol of the diamond"
        },
        "returns": {
          "_0": "the address of the diamond"
        }
      },
      "initialize((string,(address,uint8,bytes4[])[]))": {
        "params": {
          "initData": "the address of the diamond init contract"
        }
      },
      "isController(address)": {
        "details": "Check if this address is a controller"
      },
      "relinquishControl()": {
        "details": "Remove the sender address from the list of controllers"
      },
      "remove(string)": {
        "params": {
          "symbol": "the symbol of the diamond to remove"
        }
      },
      "removeFacets(string)": {
        "params": {
          "facetSet": "the facet set to remove"
        }
      },
      "setFacet(string,uint256,(address,uint8,bytes4[]))": {
        "params": {
          "facetAddress": "the facet to set",
          "idx": "the index of the facet to set"
        }
      },
      "setFacets(string,(address,uint8,bytes4[])[])": {
        "params": {
          "facetAddress": "the facet to set",
          "facetSet": "the index of the facet to set"
        }
      },
      "symbols()": {
        "returns": {
          "_0": "the symbols"
        }
      }
    },
    "title": "Diamond Factory",
    "version": 1
  },
  "userdoc": {
    "events": {
      "ControllerAdded(address,address)": {
        "notice": "emitted when a controller is added."
      },
      "ControllerRemoved(address,address)": {
        "notice": "emitted when a controller is removed."
      }
    },
    "kind": "user",
    "methods": {
      "add(string,address)": {
        "notice": "add an existing diamong to the factory. it will then be returned by the getDiamondAddress function"
      },
      "create((address,address,address,string,string),address,bytes,(address,uint8,bytes4[])[])": {
        "notice": "create a new diamond token with the given symbol"
      },
      "createFromSet((address,address,address,string,string),address,bytes,string)": {
        "notice": "create a new diamond token with the given symbol"
      },
      "exists(string)": {
        "notice": "check if the token exists"
      },
      "getDiamondAddress(string)": {
        "notice": "get the address of the diamond"
      },
      "getFacets(string)": {
        "notice": "get the facets for the diamond"
      },
      "initialize((string,(address,uint8,bytes4[])[]))": {
        "notice": "initiiate the factory"
      },
      "remove(string)": {
        "notice": "remove a diamond from this factory"
      },
      "removeFacets(string)": {
        "notice": "remote a facet set from the factory"
      },
      "setFacet(string,uint256,(address,uint8,bytes4[]))": {
        "notice": "set a template facet on this factory"
      },
      "setFacets(string,(address,uint8,bytes4[])[])": {
        "notice": "set a number of template facets on this factory"
      },
      "symbols()": {
        "notice": "get all the symbols from the factory"
      }
    },
    "notice": "This contract is used to create new Diamond contracts.",
    "version": 1
  },
  "storageLayout": {
    "storage": [
      {
        "astId": 211,
        "contract": "src/DiamondFactory.sol:DiamondFactory",
        "label": "_initialized",
        "offset": 0,
        "slot": "0",
        "type": "t_uint8"
      },
      {
        "astId": 214,
        "contract": "src/DiamondFactory.sol:DiamondFactory",
        "label": "_initializing",
        "offset": 1,
        "slot": "0",
        "type": "t_bool"
      },
      {
        "astId": 23774,
        "contract": "src/DiamondFactory.sol:DiamondFactory",
        "label": "_controllers",
        "offset": 0,
        "slot": "1",
        "type": "t_mapping(t_address,t_bool)"
      }
    ],
    "types": {
      "t_address": {
        "encoding": "inplace",
        "label": "address",
        "numberOfBytes": "20"
      },
      "t_bool": {
        "encoding": "inplace",
        "label": "bool",
        "numberOfBytes": "1"
      },
      "t_mapping(t_address,t_bool)": {
        "encoding": "mapping",
        "key": "t_address",
        "label": "mapping(address => bool)",
        "numberOfBytes": "32",
        "value": "t_bool"
      },
      "t_uint8": {
        "encoding": "inplace",
        "label": "uint8",
        "numberOfBytes": "1"
      }
    }
  }
}