{
  "address": "0x76350d10286882D264bC7a15b015Cb5Df90dFe3C",
  "abi": [
    {
      "inputs": [
        {
          "internalType": "uint256",
          "name": "id",
          "type": "uint256"
        },
        {
          "internalType": "string",
          "name": "key",
          "type": "string"
        }
      ],
      "name": "getAttribute",
      "outputs": [
        {
          "components": [
            {
              "internalType": "string",
              "name": "key",
              "type": "string"
            },
            {
              "internalType": "enum AttributeType",
              "name": "attributeType",
              "type": "uint8"
            },
            {
              "internalType": "string",
              "name": "value",
              "type": "string"
            }
          ],
          "internalType": "struct Attribute",
          "name": "",
          "type": "tuple"
        }
      ],
      "stateMutability": "view",
      "type": "function"
    },
    {
      "inputs": [
        {
          "internalType": "uint256",
          "name": "id",
          "type": "uint256"
        }
      ],
      "name": "getAttributeKeys",
      "outputs": [
        {
          "internalType": "string[]",
          "name": "",
          "type": "string[]"
        }
      ],
      "stateMutability": "view",
      "type": "function"
    },
    {
      "inputs": [
        {
          "internalType": "uint256",
          "name": "id",
          "type": "uint256"
        },
        {
          "components": [
            {
              "internalType": "string",
              "name": "key",
              "type": "string"
            },
            {
              "internalType": "enum AttributeType",
              "name": "attributeType",
              "type": "uint8"
            },
            {
              "internalType": "string",
              "name": "value",
              "type": "string"
            }
          ],
          "internalType": "struct Attribute",
          "name": "attrib",
          "type": "tuple"
        }
      ],
      "name": "setAttribute",
      "outputs": [],
      "stateMutability": "nonpayable",
      "type": "function"
    }
  ],
  "transactionHash": "0xf8f327c944bf07ed47db8b805514da38c573ee7e749e63cf44d4a345a5d5e09e",
  "args": [],
  "numDeployments": 1,
  "solcInputHash": "dbcfcf842e810514aedd8e426522bfbb",
  "bytecode": "0x608060405234801561001057600080fd5b50610c40806100206000396000f3fe608060405234801561001057600080fd5b50600436106100415760003560e01c806325d0d9f614610046578063c536080a1461005b578063eaf1c6d314610084575b600080fd5b610059610054366004610827565b6100a4565b005b61006e6100693660046108db565b610163565b60405161007b9190610944565b60405180910390f35b6100976100923660046109c4565b610174565b60405161007b9190610a21565b336100e37fc8fcad8db84d3cc18b4c41d551ea0ee66dd599cde068d998e57d5e09332c13205473ffffffffffffffffffffffffffffffffffffffff1690565b73ffffffffffffffffffffffffffffffffffffffff16148061010457503033145b6101555760405162461bcd60e51b815260206004820152601f60248201527f6e6f7420617574686f72697a656420746f2063616c6c2066756e6374696f6e0060448201526064015b60405180910390fd5b61015f82826101a1565b5050565b606061016e826101d2565b92915050565b6040805160608082018352808252600060208301529181019190915261019a83836102f3565b9392505050565b7f264f51f07aa3d51ea784d74d6ff6227c6463cf789f1512b893918a8860f146e46101cd818484610343565b505050565b60008181527f264f51f07aa3d51ea784d74d6ff6227c6463cf789f1512b893918a8860f146e66020908152604080832080548251818502810185019093528083526060947f264f51f07aa3d51ea784d74d6ff6227c6463cf789f1512b893918a8860f146e49484015b828210156102e757838290600052602060002001805461025a90610a8d565b80601f016020809104026020016040519081016040528092919081815260200182805461028690610a8d565b80156102d35780601f106102a8576101008083540402835291602001916102d3565b820191906000526020600020905b8154815290600101906020018083116102b657829003601f168201915b50505050508152602001906001019061023b565b50505050915050919050565b604080516060808201835280825260006020830152918101919091527f264f51f07aa3d51ea784d74d6ff6227c6463cf789f1512b893918a8860f146e461033b818585610548565b949350505050565b60008281526020849052604090205460ff16156103a25760405162461bcd60e51b815260206004820152601560248201527f546f6b656e20686173206265656e206275726e65640000000000000000000000604482015260640161014c565b6000828152600384016020526040908190208251915190916103c391610ac7565b908152602001604051809103902054600014801561041d57506000828152600184016020526040908190208251915190916103fd91610ac7565b9081526020016040518091039020600201805461041990610a8d565b1590505b156104a3576000828152600284016020908152604082208351815460018101835591845291909220909101906104539082610b29565b50600082815260028401602052604090205461047190600190610be9565b60008381526003850160205260409081902083519151909161049291610ac7565b908152604051908190036020019020555b6000828152600184016020526040908190208251915183926104c491610ac7565b908152604051908190036020019020815181906104e19082610b29565b5060208201516001808301805490917fffffffffffffffffffffffffffffffffffffffffffffffffffffffffffffff009091169083600681111561052757610527610a0b565b0217905550604082015160028201906105409082610b29565b505050505050565b6040805160608082018352808252600060208301529181019190915260008381526020859052604090205460ff16156105c35760405162461bcd60e51b815260206004820152601560248201527f546f6b656e20686173206265656e206275726e65640000000000000000000000604482015260640161014c565b60008381526001850160205260409081902090516105e2908490610ac7565b908152602001604051809103902060405180606001604052908160008201805461060b90610a8d565b80601f016020809104026020016040519081016040528092919081815260200182805461063790610a8d565b80156106845780601f1061065957610100808354040283529160200191610684565b820191906000526020600020905b81548152906001019060200180831161066757829003601f168201915b5050509183525050600182015460209091019060ff1660068111156106ab576106ab610a0b565b60068111156106bc576106bc610a0b565b81526020016002820180546106d090610a8d565b80601f01602080910402602001604051908101604052809291908181526020018280546106fc90610a8d565b80156107495780601f1061071e57610100808354040283529160200191610749565b820191906000526020600020905b81548152906001019060200180831161072c57829003601f168201915b50505050508152505090509392505050565b634e487b7160e01b600052604160045260246000fd5b6040516060810167ffffffffffffffff811182821017156107945761079461075b565b60405290565b600082601f8301126107ab57600080fd5b813567ffffffffffffffff808211156107c6576107c661075b565b604051601f8301601f19908116603f011681019082821181831017156107ee576107ee61075b565b8160405283815286602085880101111561080757600080fd5b836020870160208301376000602085830101528094505050505092915050565b6000806040838503121561083a57600080fd5b82359150602083013567ffffffffffffffff8082111561085957600080fd5b908401906060828703121561086d57600080fd5b610875610771565b82358281111561088457600080fd5b6108908882860161079a565b8252506020830135600781106108a557600080fd5b60208201526040830135828111156108bc57600080fd5b6108c88882860161079a565b6040830152508093505050509250929050565b6000602082840312156108ed57600080fd5b5035919050565b60005b8381101561090f5781810151838201526020016108f7565b50506000910152565b600081518084526109308160208601602086016108f4565b601f01601f19169290920160200192915050565b6000602080830181845280855180835260408601915060408160051b870101925083870160005b828110156109b7577fffffffffffffffffffffffffffffffffffffffffffffffffffffffffffffffc08886030184526109a5858351610918565b9450928501929085019060010161096b565b5092979650505050505050565b600080604083850312156109d757600080fd5b82359150602083013567ffffffffffffffff8111156109f557600080fd5b610a018582860161079a565b9150509250929050565b634e487b7160e01b600052602160045260246000fd5b602081526000825160606020840152610a3d6080840182610918565b9050602084015160078110610a6257634e487b7160e01b600052602160045260246000fd5b806040850152506040840151601f19848303016060850152610a848282610918565b95945050505050565b600181811c90821680610aa157607f821691505b602082108103610ac157634e487b7160e01b600052602260045260246000fd5b50919050565b60008251610ad98184602087016108f4565b9190910192915050565b601f8211156101cd57600081815260208120601f850160051c81016020861015610b0a5750805b601f850160051c820191505b8181101561054057828155600101610b16565b815167ffffffffffffffff811115610b4357610b4361075b565b610b5781610b518454610a8d565b84610ae3565b602080601f831160018114610b8c5760008415610b745750858301515b600019600386901b1c1916600185901b178555610540565b600085815260208120601f198616915b82811015610bbb57888601518255948401946001909101908401610b9c565b5085821015610bd95787850151600019600388901b60f8161c191681555b5050505050600190811b01905550565b8181038181111561016e57634e487b7160e01b600052601160045260246000fdfea26469706673582212206f6dbdeb59769d7b3e5ee8b5ff5e9f6ead1275e5399cd17f57cd8366d2ef0e1364736f6c63430008110033",
  "libraries": {
    "AddressSet": "0xe816f9c968c92bef011eabc25bb1e062f23f0ce3",
    "AttributeLib": "0x54b27B50D22583c3F8D44062105fa3746092F98D",
    "Base64": "0x18f7751ECdE5e9A20F7ba3b3E6419e5486dce02C",
    "Bytes32Set": "0xF8cF9DDd669304191Db084053CB0CB2B996721A8",
    "ClaimStorageLib": "0xb355293012312F75756CE66d5D6208D50E9570D9",
    "ClaimTopicLib": "0xfA5F92fB7D658b83Bd8eb891CFa1de03B2dE6ca0",
    "DiamondFactoryLib": "0x5e3a72a725e885D3297Df110fed8513c1A89590F",
    "DiamondLib": "0xfF3811e752E2fB8ca0192Ac977ec7EE0154C27D7",
    "ERC721AEnumerationLib": "0x3862fD7Aee0687c461D40A3c6AbaD9bD9F15e6c4",
    "ERC721ALib": "0x185d29cB9B14a6EA5d114534EF1A99C205d13204",
    "IdentityLib": "0x8187074C0542Adc6f8679958106A546F2Ac498cc",
    "LibDiamond": "0x0ef6EE0407615E57bC04bF16C21a9aeA1530f650",
    "MetadataLib": "0xFFa8D07fA502AbD668CFdba501999F3074f1a78c",
    "StringsLib": "0xfe30ea7bcFa85debB8FC3c8AA925ebEb22011b6f",
    "Strings": "0x9fF441f16e0163DCa2109c376d15348b3001232D",
    "SVGTemplatesLib": "0xB66E75ed2C1202b29F37e862e00CdA37B4edA8A3",
    "TrustedIssuerLib": "0x2DE50b277A2b56220F676E9C84524f9c3fdc12F3",
    "UInt256Set": "0xCA610CCce4b2aB25Adc1072a0C21df42320478A3",
    "IdentityFactory": "0xEA0f9DE12192E09bA196a2819081c196BAc99104"
  },
  "devdoc": {
    "kind": "dev",
    "methods": {},
    "title": "ERC721AAttributes",
    "version": 1
  },
  "userdoc": {
    "kind": "user",
    "methods": {
      "setAttribute(uint256,(string,uint8,string))": {
        "notice": "set an attribute value"
      }
    },
    "notice": "the total balance of a token type",
    "version": 1
  },
  "storageLayout": {
    "storage": [],
    "types": null
  }
}