{
  "address": "0xEeA134BB7d23B516Ac46993E361c9e355a969dD5",
  "abi": [
    {
      "inputs": [],
      "name": "ApprovalCallerNotOwnerNorApproved",
      "type": "error"
    },
    {
      "inputs": [],
      "name": "ApprovalQueryForNonexistentToken",
      "type": "error"
    },
    {
      "inputs": [],
      "name": "ApprovalToCurrentOwner",
      "type": "error"
    },
    {
      "inputs": [],
      "name": "ApproveToCaller",
      "type": "error"
    },
    {
      "inputs": [],
      "name": "BalanceQueryForZeroAddress",
      "type": "error"
    },
    {
      "inputs": [],
      "name": "OwnerQueryForNonexistentToken",
      "type": "error"
    },
    {
      "inputs": [],
      "name": "TransferCallerNotOwnerNorApproved",
      "type": "error"
    },
    {
      "inputs": [],
      "name": "TransferFromIncorrectOwner",
      "type": "error"
    },
    {
      "inputs": [],
      "name": "TransferToNonERC721ReceiverImplementer",
      "type": "error"
    },
    {
      "inputs": [],
      "name": "TransferToZeroAddress",
      "type": "error"
    },
    {
      "anonymous": false,
      "inputs": [
        {
          "indexed": true,
          "internalType": "address",
          "name": "owner",
          "type": "address"
        },
        {
          "indexed": true,
          "internalType": "address",
          "name": "approved",
          "type": "address"
        },
        {
          "indexed": true,
          "internalType": "uint256",
          "name": "tokenId",
          "type": "uint256"
        }
      ],
      "name": "Approval",
      "type": "event"
    },
    {
      "anonymous": false,
      "inputs": [
        {
          "indexed": true,
          "internalType": "address",
          "name": "owner",
          "type": "address"
        },
        {
          "indexed": true,
          "internalType": "address",
          "name": "operator",
          "type": "address"
        },
        {
          "indexed": false,
          "internalType": "bool",
          "name": "approved",
          "type": "bool"
        }
      ],
      "name": "ApprovalForAll",
      "type": "event"
    },
    {
      "anonymous": false,
      "inputs": [
        {
          "indexed": true,
          "internalType": "address",
          "name": "from",
          "type": "address"
        },
        {
          "indexed": true,
          "internalType": "address",
          "name": "to",
          "type": "address"
        },
        {
          "indexed": true,
          "internalType": "uint256",
          "name": "tokenId",
          "type": "uint256"
        },
        {
          "indexed": false,
          "internalType": "bytes",
          "name": "data",
          "type": "bytes"
        }
      ],
      "name": "ERC721ATransfer",
      "type": "event"
    },
    {
      "anonymous": false,
      "inputs": [
        {
          "indexed": false,
          "internalType": "uint8",
          "name": "version",
          "type": "uint8"
        }
      ],
      "name": "Initialized",
      "type": "event"
    },
    {
      "anonymous": false,
      "inputs": [
        {
          "indexed": true,
          "internalType": "address",
          "name": "from",
          "type": "address"
        },
        {
          "indexed": true,
          "internalType": "address",
          "name": "to",
          "type": "address"
        },
        {
          "indexed": true,
          "internalType": "uint256",
          "name": "tokenId",
          "type": "uint256"
        }
      ],
      "name": "Transfer",
      "type": "event"
    },
    {
      "inputs": [
        {
          "internalType": "address",
          "name": "to",
          "type": "address"
        },
        {
          "internalType": "uint256",
          "name": "tokenId",
          "type": "uint256"
        }
      ],
      "name": "approve",
      "outputs": [],
      "stateMutability": "nonpayable",
      "type": "function"
    },
    {
      "inputs": [
        {
          "internalType": "address",
          "name": "owner",
          "type": "address"
        }
      ],
      "name": "balanceOf",
      "outputs": [
        {
          "internalType": "uint256",
          "name": "",
          "type": "uint256"
        }
      ],
      "stateMutability": "view",
      "type": "function"
    },
    {
      "inputs": [
        {
          "internalType": "uint256",
          "name": "tokenId",
          "type": "uint256"
        }
      ],
      "name": "getApproved",
      "outputs": [
        {
          "internalType": "address",
          "name": "",
          "type": "address"
        }
      ],
      "stateMutability": "view",
      "type": "function"
    },
    {
      "inputs": [
        {
          "internalType": "address",
          "name": "owner",
          "type": "address"
        },
        {
          "internalType": "address",
          "name": "operator",
          "type": "address"
        }
      ],
      "name": "isApprovedForAll",
      "outputs": [
        {
          "internalType": "bool",
          "name": "",
          "type": "bool"
        }
      ],
      "stateMutability": "view",
      "type": "function"
    },
    {
      "inputs": [
        {
          "internalType": "uint256",
          "name": "tokenId",
          "type": "uint256"
        }
      ],
      "name": "ownerOf",
      "outputs": [
        {
          "internalType": "address",
          "name": "",
          "type": "address"
        }
      ],
      "stateMutability": "view",
      "type": "function"
    },
    {
      "inputs": [
        {
          "internalType": "address",
          "name": "from",
          "type": "address"
        },
        {
          "internalType": "address",
          "name": "to",
          "type": "address"
        },
        {
          "internalType": "uint256",
          "name": "tokenId",
          "type": "uint256"
        }
      ],
      "name": "safeTransferFrom",
      "outputs": [],
      "stateMutability": "nonpayable",
      "type": "function"
    },
    {
      "inputs": [
        {
          "internalType": "address",
          "name": "from",
          "type": "address"
        },
        {
          "internalType": "address",
          "name": "to",
          "type": "address"
        },
        {
          "internalType": "uint256",
          "name": "tokenId",
          "type": "uint256"
        },
        {
          "internalType": "bytes",
          "name": "_data",
          "type": "bytes"
        }
      ],
      "name": "safeTransferFrom",
      "outputs": [],
      "stateMutability": "nonpayable",
      "type": "function"
    },
    {
      "inputs": [
        {
          "internalType": "address",
          "name": "operator",
          "type": "address"
        },
        {
          "internalType": "bool",
          "name": "approved",
          "type": "bool"
        }
      ],
      "name": "setApprovalForAll",
      "outputs": [],
      "stateMutability": "nonpayable",
      "type": "function"
    },
    {
      "inputs": [],
      "name": "totalSupply",
      "outputs": [
        {
          "internalType": "uint256",
          "name": "",
          "type": "uint256"
        }
      ],
      "stateMutability": "view",
      "type": "function"
    },
    {
      "inputs": [
        {
          "internalType": "address",
          "name": "from",
          "type": "address"
        },
        {
          "internalType": "address",
          "name": "to",
          "type": "address"
        },
        {
          "internalType": "uint256",
          "name": "tokenId",
          "type": "uint256"
        }
      ],
      "name": "transferFrom",
      "outputs": [],
      "stateMutability": "nonpayable",
      "type": "function"
    },
    {
      "inputs": [
        {
          "internalType": "address",
          "name": "from",
          "type": "address"
        },
        {
          "internalType": "address",
          "name": "to",
          "type": "address"
        },
        {
          "internalType": "uint256",
          "name": "tokenId",
          "type": "uint256"
        },
        {
          "internalType": "bytes",
          "name": "data",
          "type": "bytes"
        }
      ],
      "name": "transferFrom",
      "outputs": [],
      "stateMutability": "nonpayable",
      "type": "function"
    }
  ],
  "transactionHash": "0xa81248eae5b7f12a8241d30364cc8d1b116649945e7b80ea2c7613eaf4fa75f6",
  "args": [],
  "numDeployments": 1,
  "solcInputHash": "dbcfcf842e810514aedd8e426522bfbb",
  "bytecode": "0x608060405234801561001057600080fd5b5061122c806100206000396000f3fe608060405234801561001057600080fd5b50600436106100c95760003560e01c80636352211e11610081578063ab67aa581161005b578063ab67aa58146101c6578063b88d4fde146101d9578063e985e9c5146101ec57600080fd5b80636352211e1461018d57806370a08231146101a0578063a22cb465146101b357600080fd5b806318160ddd116100b257806318160ddd1461011357806323b872dd1461016757806342842e0e1461017a57600080fd5b8063081812fc146100ce578063095ea7b3146100fe575b600080fd5b6100e16100dc366004610e25565b61020f565b6040516001600160a01b0390911681526020015b60405180910390f35b61011161010c366004610e5a565b610241565b005b7f93e809ada3cf5b31b7706b8d066b0c0bb88561defd7e5e0c17ade53797b935da547f93e809ada3cf5b31b7706b8d066b0c0bb88561defd7e5e0c17ade53797b935d954035b6040519081526020016100f5565b610111610175366004610e84565b610300565b610111610188366004610e84565b610366565b6100e161019b366004610e25565b610381565b6101596101ae366004610ec0565b610393565b6101116101c1366004610edb565b6103bf565b6101116101d4366004610f17565b610431565b6101116101e7366004610fe1565b610491565b6101ff6101fa3660046110bd565b610530565b60405190151581526020016100f5565b600061023b7f93e809ada3cf5b31b7706b8d066b0c0bb88561defd7e5e0c17ade53797b935d983610582565b92915050565b600061024c82610381565b9050806001600160a01b0316836001600160a01b031603610299576040517f943f7b8c00000000000000000000000000000000000000000000000000000000815260040160405180910390fd5b336001600160a01b038216148015906102b957506102b78133610530565b155b156102f0576040517fcfb3b94200000000000000000000000000000000000000000000000000000000815260040160405180910390fd5b6102fb8383836105e4565b505050565b61030b838383610677565b80826001600160a01b0316846001600160a01b03167f5217aa86c8654468635893eb5313c447995a9a4fd1a5db5f44c98d589084f62860405161035990602080825260009082015260400190565b60405180910390a4505050565b6102fb83838360405180602001604052806000815250610491565b600061038c826106a4565b5192915050565b600061023b7f93e809ada3cf5b31b7706b8d066b0c0bb88561defd7e5e0c17ade53797b935d9836106eb565b336001600160a01b03831603610401576040517fb06307db00000000000000000000000000000000000000000000000000000000815260040160405180910390fd5b61042d7f93e809ada3cf5b31b7706b8d066b0c0bb88561defd7e5e0c17ade53797b935d9338484610757565b5050565b61043c858585610677565b82846001600160a01b0316866001600160a01b03167f5217aa86c8654468635893eb5313c447995a9a4fd1a5db5f44c98d589084f62885856040516104829291906110f0565b60405180910390a45050505050565b61049c848484610677565b6104a8848484846107e5565b6104de576040517fd1a57ed600000000000000000000000000000000000000000000000000000000815260040160405180910390fd5b81836001600160a01b0316856001600160a01b03167f5217aa86c8654468635893eb5313c447995a9a4fd1a5db5f44c98d589084f628846040516105229190611165565b60405180910390a450505050565b6001600160a01b0380831660009081527f93e809ada3cf5b31b7706b8d066b0c0bb88561defd7e5e0c17ade53797b935e16020908152604080832093851683529290529081205460ff165b9392505050565b600061058e83836107fd565b6105c4576040517fcf4700e400000000000000000000000000000000000000000000000000000000815260040160405180910390fd5b50600090815260079190910160205260409020546001600160a01b031690565b60008281527f93e809ada3cf5b31b7706b8d066b0c0bb88561defd7e5e0c17ade53797b935e0602052604080822080547fffffffffffffffffffffffff0000000000000000000000000000000000000000166001600160a01b0387811691821790925591518593918516917f8c5be1e5ebec7d5bd14f71427d1e84f3dd0314c0f7b2291e5b200ac8c7c3b92591a4505050565b6102fb7f93e809ada3cf5b31b7706b8d066b0c0bb88561defd7e5e0c17ade53797b935d93385858561082d565b604080516060810182526000808252602082018190529181019190915261023b7f93e809ada3cf5b31b7706b8d066b0c0bb88561defd7e5e0c17ade53797b935d983610b0b565b60006001600160a01b03821661072d576040517f8f4eb60400000000000000000000000000000000000000000000000000000000815260040160405180910390fd5b506001600160a01b03166000908152600691909101602052604090205467ffffffffffffffff1690565b6001600160a01b03838116600081815260088701602090815260408083209487168084529482529182902080547fffffffffffffffffffffffffffffffffffffffffffffffffffffffffffffff001686151590811790915591519182527f17307eab39ab6107e8899845ad3d59bd9653f200f220920489ca2b5937696c31910160405180910390a350505050565b60006107f43386868686610c48565b95945050505050565b81546000908210801561057b57505060009081526005919091016020526040902054600160e01b900460ff161590565b60006108398683610b0b565b9050600081600001516001600160a01b0316866001600160a01b0316148061088a575081516001600160a01b0390811660009081526008890160209081526040808320938a168352929052205460ff165b806108af5750856001600160a01b03166108a48885610582565b6001600160a01b0316145b9050806108e8576040517f59c896be00000000000000000000000000000000000000000000000000000000815260040160405180910390fd5b846001600160a01b031682600001516001600160a01b031614610937576040517fa114810000000000000000000000000000000000000000000000000000000000815260040160405180910390fd5b6001600160a01b038416610977576040517fea553b3400000000000000000000000000000000000000000000000000000000815260040160405180910390fd5b610988876000858560000151610dae565b6001600160a01b038581166000908152600689016020908152604080832080547fffffffffffffffffffffffffffffffffffffffffffffffff000000000000000080821667ffffffffffffffff9283166000190183161790925589861680865283862080549384169383166001908101841694909417905589865260058e0190945282852080547fffffffff0000000000000000000000000000000000000000000000000000000016909417600160a01b429092169190910217909255908601808352912054909116610ac0578754811015610ac0578251600082815260058a016020908152604090912080549186015167ffffffffffffffff16600160a01b027fffffffff000000000000000000000000000000000000000000000000000000009092166001600160a01b03909316929092171790555b5082846001600160a01b0316866001600160a01b03167fddf252ad1be2c89b69c2b068fc378daa952ba7f163c4a11628f55a4df523b3ef60405160405180910390a450505050505050565b604080516060810182526000808252602082018190529181019190915282548290811015610c16576000818152600585016020908152604091829020825160608101845290546001600160a01b0381168252600160a01b810467ffffffffffffffff1692820192909252600160e01b90910460ff16151591810182905290610c145780516001600160a01b031615610ba657915061023b9050565b50600019016000818152600585016020908152604091829020825160608101845290546001600160a01b038116808352600160a01b820467ffffffffffffffff1693830193909352600160e01b900460ff1615159281019290925215610c0f57915061023b9050565b610ba6565b505b6040517fdf2d9b4200000000000000000000000000000000000000000000000000000000815260040160405180910390fd5b60006001600160a01b0384163b15610da2576040517f150b7a020000000000000000000000000000000000000000000000000000000081526001600160a01b0385169063150b7a0290610ca5908990899088908890600401611178565b6020604051808303816000875af1925050508015610ce0575060408051601f3d908101601f19168201909252610cdd918101906111b4565b60015b610d57573d808015610d0e576040519150601f19603f3d011682016040523d82523d6000602084013e610d13565b606091505b508051600003610d4f576040517fd1a57ed600000000000000000000000000000000000000000000000000000000815260040160405180910390fd5b805181602001fd5b7fffffffff00000000000000000000000000000000000000000000000000000000167f150b7a02000000000000000000000000000000000000000000000000000000001490506107f4565b50600195945050505050565b600082815260078501602052604080822080547fffffffffffffffffffffffff0000000000000000000000000000000000000000166001600160a01b0387811691821790925591518593918516917f8c5be1e5ebec7d5bd14f71427d1e84f3dd0314c0f7b2291e5b200ac8c7c3b92591a450505050565b600060208284031215610e3757600080fd5b5035919050565b80356001600160a01b0381168114610e5557600080fd5b919050565b60008060408385031215610e6d57600080fd5b610e7683610e3e565b946020939093013593505050565b600080600060608486031215610e9957600080fd5b610ea284610e3e565b9250610eb060208501610e3e565b9150604084013590509250925092565b600060208284031215610ed257600080fd5b61057b82610e3e565b60008060408385031215610eee57600080fd5b610ef783610e3e565b915060208301358015158114610f0c57600080fd5b809150509250929050565b600080600080600060808688031215610f2f57600080fd5b610f3886610e3e565b9450610f4660208701610e3e565b935060408601359250606086013567ffffffffffffffff80821115610f6a57600080fd5b818801915088601f830112610f7e57600080fd5b813581811115610f8d57600080fd5b896020828501011115610f9f57600080fd5b9699959850939650602001949392505050565b7f4e487b7100000000000000000000000000000000000000000000000000000000600052604160045260246000fd5b60008060008060808587031215610ff757600080fd5b61100085610e3e565b935061100e60208601610e3e565b925060408501359150606085013567ffffffffffffffff8082111561103257600080fd5b818701915087601f83011261104657600080fd5b81358181111561105857611058610fb2565b604051601f8201601f19908116603f0116810190838211818310171561108057611080610fb2565b816040528281528a602084870101111561109957600080fd5b82602086016020830137600060208483010152809550505050505092959194509250565b600080604083850312156110d057600080fd5b6110d983610e3e565b91506110e760208401610e3e565b90509250929050565b60208152816020820152818360408301376000818301604090810191909152601f909201601f19160101919050565b6000815180845260005b8181101561114557602081850181015186830182015201611129565b506000602082860101526020601f19601f83011685010191505092915050565b60208152600061057b602083018461111f565b60006001600160a01b038087168352808616602084015250836040830152608060608301526111aa608083018461111f565b9695505050505050565b6000602082840312156111c657600080fd5b81517fffffffff000000000000000000000000000000000000000000000000000000008116811461057b57600080fdfea264697066735822122093394815097ee4a6da82f2a72d596333b8abf3462f086c24f8ffc8a580f9128064736f6c63430008110033",
  "libraries": {
    "AddressSet": "0xe816f9c968c92bef011eabc25bb1e062f23f0ce3",
    "AttributeLib": "0x54b27B50D22583c3F8D44062105fa3746092F98D",
    "Base64": "0x18f7751ECdE5e9A20F7ba3b3E6419e5486dce02C",
    "Bytes32Set": "0xF8cF9DDd669304191Db084053CB0CB2B996721A8",
    "ClaimStorageLib": "0xb355293012312F75756CE66d5D6208D50E9570D9",
    "ClaimTopicLib": "0xfA5F92fB7D658b83Bd8eb891CFa1de03B2dE6ca0",
    "DiamondFactoryLib": "0x5e3a72a725e885D3297Df110fed8513c1A89590F",
    "DiamondLib": "0xfF3811e752E2fB8ca0192Ac977ec7EE0154C27D7",
    "ERC721AEnumerationLib": "0x3862fD7Aee0687c461D40A3c6AbaD9bD9F15e6c4",
    "ERC721ALib": "0x185d29cB9B14a6EA5d114534EF1A99C205d13204",
    "IdentityLib": "0x8187074C0542Adc6f8679958106A546F2Ac498cc",
    "LibDiamond": "0x0ef6EE0407615E57bC04bF16C21a9aeA1530f650",
    "MetadataLib": "0xFFa8D07fA502AbD668CFdba501999F3074f1a78c",
    "StringsLib": "0xfe30ea7bcFa85debB8FC3c8AA925ebEb22011b6f",
    "Strings": "0x9fF441f16e0163DCa2109c376d15348b3001232D",
    "SVGTemplatesLib": "0xB66E75ed2C1202b29F37e862e00CdA37B4edA8A3",
    "TrustedIssuerLib": "0x2DE50b277A2b56220F676E9C84524f9c3fdc12F3",
    "UInt256Set": "0xCA610CCce4b2aB25Adc1072a0C21df42320478A3",
    "IdentityFactory": "0xEA0f9DE12192E09bA196a2819081c196BAc99104"
  },
  "devdoc": {
    "events": {
      "Approval(address,address,uint256)": {
        "details": "Emitted when `owner` enables `approved` to manage the `tokenId` token."
      },
      "ApprovalForAll(address,address,bool)": {
        "details": "Emitted when `owner` enables or disables (`approved`) `operator` to manage all of its assets."
      },
      "Transfer(address,address,uint256)": {
        "details": "Emitted when `tokenId` token is transferred from `from` to `to`."
      }
    },
    "kind": "dev",
    "methods": {
      "approve(address,uint256)": {
        "details": "See {IERC721-approve}."
      },
      "balanceOf(address)": {
        "details": "See {IERC721-balanceOf}."
      },
      "getApproved(uint256)": {
        "details": "See {IERC721-getApproved}."
      },
      "isApprovedForAll(address,address)": {
        "details": "See {IERC721-isApprovedForAll}."
      },
      "ownerOf(uint256)": {
        "details": "See {IERC721-ownerOf}."
      },
      "safeTransferFrom(address,address,uint256)": {
        "details": "See {IERC721-safeTransferFrom}."
      },
      "safeTransferFrom(address,address,uint256,bytes)": {
        "details": "See {IERC721-safeTransferFrom}."
      },
      "setApprovalForAll(address,bool)": {
        "details": "See {IERC721-setApprovalForAll}."
      },
      "totalSupply()": {
        "details": "See {IERC721Enumerable-totalSupply}."
      },
      "transferFrom(address,address,uint256)": {
        "details": "See {IERC721-transferFrom}."
      },
      "transferFrom(address,address,uint256,bytes)": {
        "details": "See {IERC721-transferFrom}."
      }
    },
    "version": 1
  },
  "userdoc": {
    "kind": "user",
    "methods": {},
    "version": 1
  },
  "storageLayout": {
    "storage": [
      {
        "astId": 211,
        "contract": "src/tokens/ERC721/ERC721AFacet.sol:ERC721AFacet",
        "label": "_initialized",
        "offset": 0,
        "slot": "0",
        "type": "t_uint8"
      },
      {
        "astId": 214,
        "contract": "src/tokens/ERC721/ERC721AFacet.sol:ERC721AFacet",
        "label": "_initializing",
        "offset": 1,
        "slot": "0",
        "type": "t_bool"
      }
    ],
    "types": {
      "t_bool": {
        "encoding": "inplace",
        "label": "bool",
        "numberOfBytes": "1"
      },
      "t_uint8": {
        "encoding": "inplace",
        "label": "uint8",
        "numberOfBytes": "1"
      }
    }
  }
}