{
  "address": "0x083C253f7b74c87A7891F60d2D5D38797cD60f3B",
  "abi": [
    {
      "inputs": [],
      "name": "URIQueryForNonexistentToken",
      "type": "error"
    },
    {
      "inputs": [],
      "name": "baseUri",
      "outputs": [
        {
          "internalType": "string",
          "name": "",
          "type": "string"
        }
      ],
      "stateMutability": "view",
      "type": "function"
    },
    {
      "inputs": [],
      "name": "contractURI",
      "outputs": [
        {
          "internalType": "string",
          "name": "",
          "type": "string"
        }
      ],
      "stateMutability": "view",
      "type": "function"
    },
    {
      "inputs": [],
      "name": "description",
      "outputs": [
        {
          "internalType": "string",
          "name": "",
          "type": "string"
        }
      ],
      "stateMutability": "view",
      "type": "function"
    },
    {
      "inputs": [],
      "name": "externalUri",
      "outputs": [
        {
          "internalType": "string",
          "name": "",
          "type": "string"
        }
      ],
      "stateMutability": "view",
      "type": "function"
    },
    {
      "inputs": [],
      "name": "image",
      "outputs": [
        {
          "internalType": "string",
          "name": "",
          "type": "string"
        }
      ],
      "stateMutability": "view",
      "type": "function"
    },
    {
      "inputs": [],
      "name": "name",
      "outputs": [
        {
          "internalType": "string",
          "name": "",
          "type": "string"
        }
      ],
      "stateMutability": "view",
      "type": "function"
    },
    {
      "inputs": [
        {
          "internalType": "string",
          "name": "_baseUri",
          "type": "string"
        }
      ],
      "name": "setBaseUri",
      "outputs": [],
      "stateMutability": "nonpayable",
      "type": "function"
    },
    {
      "inputs": [
        {
          "components": [
            {
              "internalType": "string",
              "name": "_name",
              "type": "string"
            },
            {
              "internalType": "string",
              "name": "_symbol",
              "type": "string"
            },
            {
              "internalType": "string",
              "name": "_description",
              "type": "string"
            },
            {
              "internalType": "string",
              "name": "_imageName",
              "type": "string"
            },
            {
              "internalType": "string[]",
              "name": "_imageColors",
              "type": "string[]"
            },
            {
              "internalType": "string",
              "name": "_externalUri",
              "type": "string"
            },
            {
              "internalType": "enum MetadataSource",
              "name": "_metadataSource",
              "type": "uint8"
            },
            {
              "internalType": "string",
              "name": "_baseUri",
              "type": "string"
            }
          ],
          "internalType": "struct MetadataContract",
          "name": "_contract",
          "type": "tuple"
        }
      ],
      "name": "setMetadata",
      "outputs": [],
      "stateMutability": "nonpayable",
      "type": "function"
    },
    {
      "inputs": [
        {
          "internalType": "enum MetadataSource",
          "name": "_source",
          "type": "uint8"
        }
      ],
      "name": "setMetadataSource",
      "outputs": [],
      "stateMutability": "nonpayable",
      "type": "function"
    },
    {
      "inputs": [],
      "name": "symbol",
      "outputs": [
        {
          "internalType": "string",
          "name": "",
          "type": "string"
        }
      ],
      "stateMutability": "view",
      "type": "function"
    },
    {
      "inputs": [
        {
          "internalType": "uint256",
          "name": "tokenId",
          "type": "uint256"
        }
      ],
      "name": "tokenURI",
      "outputs": [
        {
          "internalType": "string",
          "name": "",
          "type": "string"
        }
      ],
      "stateMutability": "view",
      "type": "function"
    }
  ],
  "transactionHash": "0x3bd2501f38ee564fa0c53e09cb331e40eb6167d07c8e469552a54108fe3c3680",
  "args": [],
  "numDeployments": 1,
  "solcInputHash": "a261774717de28517d6038bd0944662b",
  "bytecode": "0x608060405234801561001057600080fd5b50613e23806100206000396000f3fe608060405234801561001057600080fd5b50600436106100c95760003560e01c8063c87b56dd11610081578063efb0aefc1161005b578063efb0aefc14610134578063f3ccaac014610147578063f9f268211461014f57600080fd5b8063c87b56dd14610119578063e89e6075146100fc578063e8a3d4851461012c57600080fd5b806395d89b41116100b257806395d89b41146100f45780639abc8320146100fc578063a0bcfc7f1461010457600080fd5b806306fdde03146100ce5780637284e416146100ec575b600080fd5b6100d6610162565b6040516100e39190613012565b60405180910390f35b6100d6610192565b6100d66101bd565b6100d66101e8565b610117610112366004613114565b61029c565b005b6100d6610127366004613149565b6102c9565b6100d6610424565b610117610142366004613215565b610999565b6100d66109c3565b61011761015d36600461336c565b6109ee565b606061018d7f891edb31d4290cbdff8c209b5eca21c2b95e9062b5990b5cbe2a2922d96179e3610a18565b905090565b606061018d7f891edb31d4290cbdff8c209b5eca21c2b95e9062b5990b5cbe2a2922d96179e3610aae565b606061018d7f891edb31d4290cbdff8c209b5eca21c2b95e9062b5990b5cbe2a2922d96179e3610abf565b60607f891edb31d4290cbdff8c209b5eca21c2b95e9062b5990b5cbe2a2922d96179e3600501805461021990613387565b80601f016020809104026020016040519081016040528092919081815260200182805461024590613387565b80156102925780601f1061026757610100808354040283529160200191610292565b820191906000526020600020905b81548152906001019060200180831161027557829003601f168201915b5050505050905090565b6102c67f891edb31d4290cbdff8c209b5eca21c2b95e9062b5990b5cbe2a2922d96179e382610ad0565b50565b60607f93e809ada3cf5b31b7706b8d066b0c0bb88561defd7e5e0c17ade53797b935d96102f68184610ae3565b61032c576040517fa14c4b5000000000000000000000000000000000000000000000000000000000815260040160405180910390fd5b7f891edb31d4290cbdff8c209b5eca21c2b95e9062b5990b5cbe2a2922d96179e9547f891edb31d4290cbdff8c209b5eca21c2b95e9062b5990b5cbe2a2922d96179e39060009060ff166001811115610387576103876133c1565b036103cc576007810161039930610b30565b6103a286610b47565b6040516020016103b49392919061344a565b60405160208183030381529060405292505050919050565b7f264f51f07aa3d51ea784d74d6ff6227c6463cf789f1512b893918a8860f146e47f3b28ada7424160f36dba04e603ff68d11ac4a3eeb1ef7a9911d79d949607b74061041a83828489610be7565b9695505050505050565b7f891edb31d4290cbdff8c209b5eca21c2b95e9062b5990b5cbe2a2922d96179e9546060907f891edb31d4290cbdff8c209b5eca21c2b95e9062b5990b5cbe2a2922d96179e390829060009060ff166001811115610484576104846133c1565b036104bd576007820161049630610b30565b6040516020016104a79291906134ac565b6040516020818303038152906040529250505090565b60006104c883611327565b915050600061096e610969848487604051806101000160405290816000820180546104f290613387565b80601f016020809104026020016040519081016040528092919081815260200182805461051e90613387565b801561056b5780601f106105405761010080835404028352916020019161056b565b820191906000526020600020905b81548152906001019060200180831161054e57829003601f168201915b5050505050815260200160018201805461058490613387565b80601f01602080910402602001604051908101604052809291908181526020018280546105b090613387565b80156105fd5780601f106105d2576101008083540402835291602001916105fd565b820191906000526020600020905b8154815290600101906020018083116105e057829003601f168201915b5050505050815260200160028201805461061690613387565b80601f016020809104026020016040519081016040528092919081815260200182805461064290613387565b801561068f5780601f106106645761010080835404028352916020019161068f565b820191906000526020600020905b81548152906001019060200180831161067257829003601f168201915b505050505081526020016003820180546106a890613387565b80601f01602080910402602001604051908101604052809291908181526020018280546106d490613387565b80156107215780601f106106f657610100808354040283529160200191610721565b820191906000526020600020905b81548152906001019060200180831161070457829003601f168201915b5050505050815260200160048201805480602002602001604051908101604052809291908181526020016000905b828210156107fb57838290600052602060002001805461076e90613387565b80601f016020809104026020016040519081016040528092919081815260200182805461079a90613387565b80156107e75780601f106107bc576101008083540402835291602001916107e7565b820191906000526020600020905b8154815290600101906020018083116107ca57829003601f168201915b50505050508152602001906001019061074f565b50505050815260200160058201805461081390613387565b80601f016020809104026020016040519081016040528092919081815260200182805461083f90613387565b801561088c5780601f106108615761010080835404028352916020019161088c565b820191906000526020600020905b81548152906001019060200180831161086f57829003601f168201915b5050509183525050600682015460209091019060ff1660018111156108b3576108b36133c1565b60018111156108c4576108c46133c1565b81526020016007820180546108d890613387565b80601f016020809104026020016040519081016040528092919081815260200182805461090490613387565b80156109515780601f1061092657610100808354040283529160200191610951565b820191906000526020600020905b81548152906001019060200180831161093457829003601f168201915b5050505050815250506118189092919063ffffffff16565b6119c8565b90508060405160200161098191906134d1565b60405160208183030381529060405294505050505090565b6102c67f891edb31d4290cbdff8c209b5eca21c2b95e9062b5990b5cbe2a2922d96179e382611b1b565b606061018d7f891edb31d4290cbdff8c209b5eca21c2b95e9062b5990b5cbe2a2922d96179e3611bfe565b6102c67f891edb31d4290cbdff8c209b5eca21c2b95e9062b5990b5cbe2a2922d96179e382611c13565b6060816000018054610a2990613387565b80601f0160208091040260200160405190810160405280929190818152602001828054610a5590613387565b8015610aa25780601f10610a7757610100808354040283529160200191610aa2565b820191906000526020600020905b815481529060010190602001808311610a8557829003601f168201915b50505050509050919050565b6060816002018054610a2990613387565b6060816001018054610a2990613387565b60078201610ade8282613564565b505050565b815460009082108015610b27575060008281526005840160205260409020547c0100000000000000000000000000000000000000000000000000000000900460ff16155b90505b92915050565b6060610b2a82610b3f84611c3c565b600101611ca6565b60606000610b5483611ecf565b600101905060008167ffffffffffffffff811115610b7457610b74613025565b6040519080825280601f01601f191660200182016040528015610b9e576020820181803683370190505b5090508181016020015b600019017f3031323334353637383961626364656600000000000000000000000000000000600a86061a8153600a8504945084610ba857509392505050565b6060600080610bf887878787611fb1565b915091506000815167ffffffffffffffff811115610c1857610c18613025565b604051908082528060200260200182016040528015610c6d57816020015b610c5a60405180606001604052806060815260200160608152602001606081525090565b815260200190600190039081610c365790505b5090506000876000016004018054610c8490613387565b80601f0160208091040260200160405190810160405280929190818152602001828054610cb090613387565b8015610cfd5780601f10610cd257610100808354040283529160200191610cfd565b820191906000526020600020905b815481529060010190602001808311610ce057829003601f168201915b5050505050905060005b8351811015610e61576040518060600160405280604051806020016040528060008152508152602001858381518110610d4257610d42613624565b6020026020010151600001518152602001858381518110610d6557610d65613624565b602002602001015160400151815250838281518110610d8657610d86613624565b6020026020010181905250838181518110610da357610da3613624565b602002602001015160000151805190602001207fa05e33768da60583875bb5256189397d790c6a14f448460d366d44805586c6ee148015610e275750838181518110610df157610df1613624565b602002602001015160400151805190602001207fb8b758361d5e84380ef1e632f89d8e76a8677dbc3f4b93a4f9d75d2a6048f312145b15610e4f5781604051602001610e3d919061363a565b60405160208183030381529060405291505b80610e5981613691565b915050610d07565b5060006112f66109698b60405180610100016040529081600082018054610e8790613387565b80601f0160208091040260200160405190810160405280929190818152602001828054610eb390613387565b8015610f005780601f10610ed557610100808354040283529160200191610f00565b820191906000526020600020905b815481529060010190602001808311610ee357829003601f168201915b50505050508152602001600182018054610f1990613387565b80601f0160208091040260200160405190810160405280929190818152602001828054610f4590613387565b8015610f925780601f10610f6757610100808354040283529160200191610f92565b820191906000526020600020905b815481529060010190602001808311610f7557829003601f168201915b50505050508152602001600282018054610fab90613387565b80601f0160208091040260200160405190810160405280929190818152602001828054610fd790613387565b80156110245780601f10610ff957610100808354040283529160200191611024565b820191906000526020600020905b81548152906001019060200180831161100757829003601f168201915b5050505050815260200160038201805461103d90613387565b80601f016020809104026020016040519081016040528092919081815260200182805461106990613387565b80156110b65780601f1061108b576101008083540402835291602001916110b6565b820191906000526020600020905b81548152906001019060200180831161109957829003601f168201915b5050505050815260200160048201805480602002602001604051908101604052809291908181526020016000905b8282101561119057838290600052602060002001805461110390613387565b80601f016020809104026020016040519081016040528092919081815260200182805461112f90613387565b801561117c5780601f106111515761010080835404028352916020019161117c565b820191906000526020600020905b81548152906001019060200180831161115f57829003601f168201915b5050505050815260200190600101906110e4565b5050505081526020016005820180546111a890613387565b80601f01602080910402602001604051908101604052809291908181526020018280546111d490613387565b80156112215780601f106111f657610100808354040283529160200191611221565b820191906000526020600020905b81548152906001019060200180831161120457829003601f168201915b5050509183525050600682015460209091019060ff166001811115611248576112486133c1565b6001811115611259576112596133c1565b815260200160078201805461126d90613387565b80601f016020809104026020016040519081016040528092919081815260200182805461129990613387565b80156112e65780601f106112bb576101008083540402835291602001916112e6565b820191906000526020600020905b8154815290600101906020018083116112c957829003601f168201915b5050505050815250508588611818565b90508060405160200161130991906134d1565b60405160208183030381529060405295505050505050949350505050565b7fd6bd814cc1bc4b2e2e963d75e86b66330979dafa58695edbdc535ed90fc59861546040517f0e60927a00000000000000000000000000000000000000000000000000000000815260009160609173ffffffffffffffffffffffffffffffffffffffff909116908190630e60927a906113a79060038801906004016136ab565b602060405180830381865afa9250505080156113e0575060408051601f3d908101601f191682019092526113dd91810190613736565b60015b6114a9573d80801561140e576040519150601f19603f3d011682016040523d82523d6000602084013e611413565b606091505b5084600301805461142390613387565b80601f016020809104026020016040519081016040528092919081815260200182805461144f90613387565b801561149c5780601f106114715761010080835404028352916020019161149c565b820191906000526020600020905b81548152906001019060200180831161147f57829003601f168201915b5050505050925050611812565b9250828073ffffffffffffffffffffffffffffffffffffffff81166115155760405162461bcd60e51b815260206004820152601660248201527f6e6f20696d6167652068617368206265656e207365740000000000000000000060448201526064015b60405180910390fd5b60408051600480825260a08201909252600091816020015b606081526020019060019003908161152d5790505090506040518060400160405280600381526020017f43555400000000000000000000000000000000000000000000000000000000008152508160008151811061158d5761158d613624565b60200260200101819052506040518060400160405280600581526020017f434f4c4f52000000000000000000000000000000000000000000000000000000815250816001815181106115e1576115e1613624565b60200260200101819052506040518060400160405280600581526020017f43415241540000000000000000000000000000000000000000000000000000008152508160028151811061163557611635613624565b60200260200101819052506040518060400160405280600781526020017f434c4152495459000000000000000000000000000000000000000000000000008152508160038151811061168957611689613624565b6020026020010181905250600061177388600401805480602002602001604051908101604052809291908181526020016000905b828210156117695783829060005260206000200180546116dc90613387565b80601f016020809104026020016040519081016040528092919081815260200182805461170890613387565b80156117555780601f1061172a57610100808354040283529160200191611755565b820191906000526020600020905b81548152906001019060200180831161173857829003601f168201915b5050505050815260200190600101906116bd565b5050505083612122565b6040517e53a5c700000000000000000000000000000000000000000000000000000000815290915073ffffffffffffffffffffffffffffffffffffffff8416906253a5c7906117c690849060040161376c565b600060405180830381865afa1580156117e3573d6000803e3d6000fd5b505050506040513d6000823e601f3d908101601f1916820160405261180b919081019061380f565b9550505050505b50915091565b60606118626040518060400160405280600281526020017f30780000000000000000000000000000000000000000000000000000000000008152508361249f90919063ffffffff16565b61188957816040516020016118779190613886565b60405160208183030381529060405291505b600061189484612576565b90506000808660a001515111611914576040517f2265787465726e616c5f75726c2200000000000000000000000000000000000060208201527f3a20220000000000000000000000000000000000000000000000000000000000602e820152601160f91b6031820152603201604051602081830303815290604052611939565b8560a0015160405160200161192991906138b4565b6040516020818303038152906040525b9050600086600001518588604001518460405160200161195c9493929190613904565b604051602081830303815290604052905060008651111561199c57808360405160200161198a929190613a07565b60405160208183030381529060405290505b806040516020016119ad9190613a5f565b60405160208183030381529060405293505050509392505050565b606081516000036119e757505060408051602081019091526000815290565b6000604051806060016040528060408152602001613dae6040913990506000600384516002611a169190613aa0565b611a209190613ab3565b611a2b906004613ad5565b67ffffffffffffffff811115611a4357611a43613025565b6040519080825280601f01601f191660200182016040528015611a6d576020820181803683370190505b509050600182016020820185865187015b80821015611ad9576003820191508151603f8160121c168501518453600184019350603f81600c1c168501518453600184019350603f8160061c168501518453600184019350603f8116850151845350600183019250611a7e565b5050600386510660018114611af55760028114611b0857611b10565b603d6001830353603d6002830353611b10565b603d60018303535b509195945050505050565b807f891edb31d4290cbdff8c209b5eca21c2b95e9062b5990b5cbe2a2922d96179e381518190611b4b9082613564565b5060208201516001820190611b609082613564565b5060408201516002820190611b759082613564565b5060608201516003820190611b8a9082613564565b5060808201518051611ba6916004840191602090910190612f05565b5060a08201516005820190611bbb9082613564565b5060c082015160068201805460ff191660018381811115611bde57611bde6133c1565b021790555060e08201516007820190611bf79082613564565b5050505050565b60606000611c0b83611327565b949350505050565b60068201805482919060ff191660018381811115611c3357611c336133c1565b02179055505050565b600080608083901c15611c545760809290921c916010015b604083901c15611c695760409290921c916008015b602083901c15611c7e5760209290921c916004015b601083901c15611c935760109290921c916002015b600883901c15610b2a5760010192915050565b60606000611cb5836002613ad5565b611cc0906002613aa0565b67ffffffffffffffff811115611cd857611cd8613025565b6040519080825280601f01601f191660200182016040528015611d02576020820181803683370190505b5090507f300000000000000000000000000000000000000000000000000000000000000081600081518110611d3957611d39613624565b60200101907effffffffffffffffffffffffffffffffffffffffffffffffffffffffffffff1916908160001a9053507f780000000000000000000000000000000000000000000000000000000000000081600181518110611d9c57611d9c613624565b60200101907effffffffffffffffffffffffffffffffffffffffffffffffffffffffffffff1916908160001a9053506000611dd8846002613ad5565b611de3906001613aa0565b90505b6001811115611e80577f303132333435363738396162636465660000000000000000000000000000000085600f1660108110611e2457611e24613624565b1a60f81b828281518110611e3a57611e3a613624565b60200101907effffffffffffffffffffffffffffffffffffffffffffffffffffffffffffff1916908160001a90535060049490941c93611e7981613aec565b9050611de6565b508315610b275760405162461bcd60e51b815260206004820181905260248201527f537472696e67733a20686578206c656e67746820696e73756666696369656e74604482015260640161150c565b6000807a184f03e93ff9f4daa797ed6e38ed64bf6a1f0100000000000000008310611f18577a184f03e93ff9f4daa797ed6e38ed64bf6a1f010000000000000000830492506040015b6d04ee2d6d415b85acef81000000008310611f44576d04ee2d6d415b85acef8100000000830492506020015b662386f26fc100008310611f6257662386f26fc10000830492506010015b6305f5e1008310611f7a576305f5e100830492506008015b6127108310611f8e57612710830492506004015b60648310611fa0576064830492506002015b600a8310610b2a5760010192915050565b6060806000611fc0858561268c565b9050805167ffffffffffffffff811115611fdc57611fdc613025565b60405190808252806020026020018201604052801561202957816020015b60408051606080820183528082526000602083015291810191909152815260200190600190039081611ffa5790505b5091506000612037856127d1565b905060005b82518110156120d457604051806060016040528084838151811061206257612062613624565b6020026020010151815260200160016006811115612082576120826133c1565b815260200183838151811061209957612099613624565b60200260200101518152508482815181106120b6576120b6613624565b602002602001018190525080806120cc90613691565b91505061203c565b5060006120e086610b47565b6040516020016120f09190613b03565b6040516020818303038152906040529050600061210e888884612a5d565b604001519a94995093975050505050505050565b606082516000036121715760408051600480825260a0820190925290816020015b6040805180820190915260608082526020820152815260200190600190039081612143579050509050610b2a565b6000835160046121819190613aa0565b67ffffffffffffffff81111561219957612199613025565b6040519080825280602002602001820160405280156121de57816020015b60408051808201909152606080825260208201528152602001906001900390816121b75790505b50905060005b845181101561227257604051806040016040528061220183610b47565b6040516020016122119190613b48565b604051602081830303815290604052815260200186838151811061223757612237613624565b602002602001015181525082828151811061225457612254613624565b6020026020010181905250808061226a90613691565b9150506121e4565b5083516040805160808101825260039181019182527f435554000000000000000000000000000000000000000000000000000000000060608201529081528451602082019086906000906122c8576122c8613624565b60200260200101518152508282815181106122e5576122e5613624565b602002602001018190525060405180604001604052806040518060400160405280600581526020017f434f4c4f5200000000000000000000000000000000000000000000000000000081525081526020018560018151811061234957612349613624565b6020026020010151815250828260016123629190613aa0565b8151811061237257612372613624565b602002602001018190525060405180604001604052806040518060400160405280600581526020017f43415241540000000000000000000000000000000000000000000000000000008152508152602001856002815181106123d6576123d6613624565b6020026020010151815250828260026123ef9190613aa0565b815181106123ff576123ff613624565b602002602001018190525060405180604001604052806040518060400160405280600781526020017f434c41524954590000000000000000000000000000000000000000000000000081525081526020018560038151811061246357612463613624565b60200260200101518152508282600361247c9190613aa0565b8151811061248c5761248c613624565b6020908102919091010152509392505050565b815181516000918491849190818111156124c0576000945050505050610b2a565b60005b81811015612568578381815181106124dd576124dd613624565b602001015160f81c60f81b7effffffffffffffffffffffffffffffffffffffffffffffffffffffffffffff191685828151811061251c5761251c613624565b01602001517fff00000000000000000000000000000000000000000000000000000000000000161461255657600095505050505050610b2a565b8061256081613691565b9150506124c3565b506001979650505050505050565b60408051808201909152600181527f5b00000000000000000000000000000000000000000000000000000000000000602082015260609060005b83518110156126635760008482815181106125cd576125cd613624565b6020026020010151905060006125f0826000015183602001518460400151612c70565b90508381604051602001612605929190613b80565b6040516020818303038152906040529350600186516126249190613ba6565b83101561264e578360405160200161263c9190613bb9565b60405160208183030381529060405293505b5050808061265b90613691565b9150506125b0565b50806040516020016126759190613bfa565b604051602081830303815290604052915050919050565b60008181526020839052604090205460609060ff16156126ee5760405162461bcd60e51b815260206004820152601560248201527f546f6b656e20686173206265656e206275726e65640000000000000000000000604482015260640161150c565b6000828152600284016020908152604080832080548251818502810185019093528083529193909284015b828210156127c557838290600052602060002001805461273890613387565b80601f016020809104026020016040519081016040528092919081815260200182805461276490613387565b80156127b15780601f10612786576101008083540402835291602001916127b1565b820191906000526020600020905b81548152906001019060200180831161279457829003601f168201915b505050505081526020019060010190612719565b50505050905092915050565b60008181527f264f51f07aa3d51ea784d74d6ff6227c6463cf789f1512b893918a8860f146e66020908152604080832080548251818502810185019093528083526060947f264f51f07aa3d51ea784d74d6ff6227c6463cf789f1512b893918a8860f146e4949093929190849084015b828210156128ed57838290600052602060002001805461286090613387565b80601f016020809104026020016040519081016040528092919081815260200182805461288c90613387565b80156128d95780601f106128ae576101008083540402835291602001916128d9565b820191906000526020600020905b8154815290600101906020018083116128bc57829003601f168201915b505050505081526020019060010190612841565b5050505090506000815167ffffffffffffffff81111561290f5761290f613025565b60405190808252806020026020018201604052801561294257816020015b606081526020019060019003908161292d5790505b50905060005b8251811015612a545760008681526001850160205260409020835184908390811061297557612975613624565b602002602001015160405161298a9190613c3b565b908152602001604051809103902060020180546129a690613387565b80601f01602080910402602001604051908101604052809291908181526020018280546129d290613387565b8015612a1f5780601f106129f457610100808354040283529160200191612a1f565b820191906000526020600020905b815481529060010190602001808311612a0257829003601f168201915b5050505050828281518110612a3657612a36613624565b60200260200101819052508080612a4c90613691565b915050612948565b50949350505050565b6040805160608082018352808252600060208301529181019190915260008381526020859052604090205460ff1615612ad85760405162461bcd60e51b815260206004820152601560248201527f546f6b656e20686173206265656e206275726e65640000000000000000000000604482015260640161150c565b6000838152600185016020526040908190209051612af7908490613c3b565b9081526020016040518091039020604051806060016040529081600082018054612b2090613387565b80601f0160208091040260200160405190810160405280929190818152602001828054612b4c90613387565b8015612b995780601f10612b6e57610100808354040283529160200191612b99565b820191906000526020600020905b815481529060010190602001808311612b7c57829003601f168201915b5050509183525050600182015460209091019060ff166006811115612bc057612bc06133c1565b6006811115612bd157612bd16133c1565b8152602001600282018054612be590613387565b80601f0160208091040260200160405190810160405280929190818152602001828054612c1190613387565b8015612c5e5780601f10612c3357610100808354040283529160200191612c5e565b820191906000526020600020905b815481529060010190602001808311612c4157829003601f168201915b50505050508152505090509392505050565b60606000835111612cc35760405162461bcd60e51b815260206004820152601360248201527f6b65792063616e6e6f7420626520656d70747900000000000000000000000000604482015260640161150c565b835115801590612dc75784604051602001612cde9190613c57565b60408051601f19818403018152828201909152600682527f6e756d626572000000000000000000000000000000000000000000000000000060208301529550600090612d2b90879061249f565b80612d705750612d70866040518060400160405280600a81526020017f70657263656e7461676500000000000000000000000000000000000000000000815250612e18565b905080612d9e5783604051602001612d889190613886565b6040516020818303038152906040529350612dc1565b83604051602001612daf9190613c3b565b60405160208183030381529060405293505b50612dea565b82604051602001612dd89190613886565b60405160208183030381529060405292505b848484604051602001612dff93929190613cc3565b6040516020818303038152906040529150509392505050565b81518151600091849184919081811115612e39576000945050505050610b2a565b60005b8181101561256857836001612e518385613ba6565b612e5b9190613ba6565b81518110612e6b57612e6b613624565b01602001517fff0000000000000000000000000000000000000000000000000000000000000016856001612e9f8487613ba6565b612ea99190613ba6565b81518110612eb957612eb9613624565b01602001517fff000000000000000000000000000000000000000000000000000000000000001614612ef357600095505050505050610b2a565b80612efd81613691565b915050612e3c565b828054828255906000526020600020908101928215612f4b579160200282015b82811115612f4b5782518290612f3b9082613564565b5091602001919060010190612f25565b50612f57929150612f5b565b5090565b80821115612f57576000612f6f8282612f78565b50600101612f5b565b508054612f8490613387565b6000825580601f10612f94575050565b601f0160209004906000526020600020908101906102c691905b80821115612f575760008155600101612fae565b60005b83811015612fdd578181015183820152602001612fc5565b50506000910152565b60008151808452612ffe816020860160208601612fc2565b601f01601f19169290920160200192915050565b602081526000610b276020830184612fe6565b634e487b7160e01b600052604160045260246000fd5b604051610100810167ffffffffffffffff8111828210171561305f5761305f613025565b60405290565b604051601f8201601f1916810167ffffffffffffffff8111828210171561308e5761308e613025565b604052919050565b600067ffffffffffffffff8211156130b0576130b0613025565b50601f01601f191660200190565b600082601f8301126130cf57600080fd5b81356130e26130dd82613096565b613065565b8181528460208386010111156130f757600080fd5b816020850160208301376000918101602001919091529392505050565b60006020828403121561312657600080fd5b813567ffffffffffffffff81111561313d57600080fd5b611c0b848285016130be565b60006020828403121561315b57600080fd5b5035919050565b600082601f83011261317357600080fd5b8135602067ffffffffffffffff8083111561319057613190613025565b8260051b61319f838201613065565b93845285810183019383810190888611156131b957600080fd5b84880192505b858310156131f5578235848111156131d75760008081fd5b6131e58a87838c01016130be565b83525091840191908401906131bf565b98975050505050505050565b80356002811061321057600080fd5b919050565b60006020828403121561322757600080fd5b813567ffffffffffffffff8082111561323f57600080fd5b90830190610100828603121561325457600080fd5b61325c61303b565b82358281111561326b57600080fd5b613277878286016130be565b82525060208301358281111561328c57600080fd5b613298878286016130be565b6020830152506040830135828111156132b057600080fd5b6132bc878286016130be565b6040830152506060830135828111156132d457600080fd5b6132e0878286016130be565b6060830152506080830135828111156132f857600080fd5b61330487828601613162565b60808301525060a08301358281111561331c57600080fd5b613328878286016130be565b60a08301525061333a60c08401613201565b60c082015260e08301358281111561335157600080fd5b61335d878286016130be565b60e08301525095945050505050565b60006020828403121561337e57600080fd5b610b2782613201565b600181811c9082168061339b57607f821691505b6020821081036133bb57634e487b7160e01b600052602260045260246000fd5b50919050565b634e487b7160e01b600052602160045260246000fd5b600081546133e481613387565b600182811680156133fc576001811461341157613440565b60ff1984168752821515830287019450613440565b8560005260208060002060005b858110156134375781548a82015290840190820161341e565b50505082870194505b5050505092915050565b600061345682866133d7565b8451613466818360208901612fc2565b7f2f000000000000000000000000000000000000000000000000000000000000009101908152835161349f816001840160208801612fc2565b0160010195945050505050565b60006134b882856133d7565b83516134c8818360208801612fc2565b01949350505050565b7f646174613a6170706c69636174696f6e2f6a736f6e3b6261736536342c00000081526000825161350981601d850160208701612fc2565b91909101601d0192915050565b601f821115610ade57600081815260208120601f850160051c8101602086101561353d5750805b601f850160051c820191505b8181101561355c57828155600101613549565b505050505050565b815167ffffffffffffffff81111561357e5761357e613025565b6135928161358c8454613387565b84613516565b602080601f8311600181146135c757600084156135af5750858301515b600019600386901b1c1916600185901b17855561355c565b600085815260208120601f198616915b828110156135f6578886015182559484019460019091019084016135d7565b50858210156136145787850151600019600388901b60f8161c191681555b5050505050600190811b01905550565b634e487b7160e01b600052603260045260246000fd5b6000825161364c818460208701612fc2565b7f20436c61696d0000000000000000000000000000000000000000000000000000920191825250600601919050565b634e487b7160e01b600052601160045260246000fd5b600060001982036136a4576136a461367b565b5060010190565b60006020808352600084546136bf81613387565b808487015260406001808416600081146136e057600181146136fa57613728565b60ff198516838a01528284151560051b8a01019550613728565b896000528660002060005b858110156137205781548b8201860152908301908801613705565b8a0184019650505b509398975050505050505050565b60006020828403121561374857600080fd5b815173ffffffffffffffffffffffffffffffffffffffff81168114610b2757600080fd5b60006020808301818452808551808352604092508286019150828160051b87010184880160005b83811015613801577fffffffffffffffffffffffffffffffffffffffffffffffffffffffffffffffc0898403018552815180518785526137d588860182612fe6565b91890151858303868b01529190506137ed8183612fe6565b968901969450505090860190600101613793565b509098975050505050505050565b60006020828403121561382157600080fd5b815167ffffffffffffffff81111561383857600080fd5b8201601f8101841361384957600080fd5b80516138576130dd82613096565b81815285602083850101111561386c57600080fd5b61387d826020830160208601612fc2565b95945050505050565b6000601160f91b80835283516138a3816001860160208801612fc2565b600193019283015250600201919050565b7f2265787465726e616c5f75726c223a20220000000000000000000000000000008152600082516138ec816011850160208701612fc2565b601160f91b6011939091019283015250601201919050565b7f7b226e616d65223a20220000000000000000000000000000000000000000000081526000855161393c81600a850160208a01612fc2565b7f222c2022696d616765223a200000000000000000000000000000000000000000600a918401918201528551613979816016840160208a01612fc2565b7f2c20226465736372697074696f6e223a202200000000000000000000000000006016929091019182015284516139b7816028840160208901612fc2565b600a818301019150507f222c200000000000000000000000000000000000000000000000000000000000601e82015283516139f9816021840160208801612fc2565b016021019695505050505050565b60008351613a19818460208801612fc2565b7f2c202261747472696275746573223a20000000000000000000000000000000009083019081528351613a53816010840160208801612fc2565b01601001949350505050565b60008251613a71818460208701612fc2565b7f7d00000000000000000000000000000000000000000000000000000000000000920191825250600101919050565b80820180821115610b2a57610b2a61367b565b600082613ad057634e487b7160e01b600052601260045260246000fd5b500490565b8082028115828204841417610b2a57610b2a61367b565b600081613afb57613afb61367b565b506000190190565b7f696d6167655f0000000000000000000000000000000000000000000000000000815260008251613b3b816006850160208701612fc2565b9190910160060192915050565b7f434f4c4f52200000000000000000000000000000000000000000000000000000815260008251613b3b816006850160208701612fc2565b60008351613b92818460208801612fc2565b8351908301906134c8818360208801612fc2565b81810381811115610b2a57610b2a61367b565b60008251613bcb818460208701612fc2565b7f2c00000000000000000000000000000000000000000000000000000000000000920191825250600101919050565b60008251613c0c818460208701612fc2565b7f5d00000000000000000000000000000000000000000000000000000000000000920191825250600101919050565b60008251613c4d818460208701612fc2565b9190910192915050565b7f22646973706c61795f74797065223a2022000000000000000000000000000000815260008251613c8f816011850160208701612fc2565b7f222c0000000000000000000000000000000000000000000000000000000000006011939091019283015250601301919050565b7f7b00000000000000000000000000000000000000000000000000000000000000815260008451613cfb816001850160208901612fc2565b7f2274726169745f74797065223a202200000000000000000000000000000000006001918401918201528451613d38816010840160208901612fc2565b7f222c202276616c7565223a200000000000000000000000000000000000000000601092909101918201528351613d7681601c840160208801612fc2565b7f7d00000000000000000000000000000000000000000000000000000000000000601c9290910191820152601d019594505050505056fe4142434445464748494a4b4c4d4e4f505152535455565758595a6162636465666768696a6b6c6d6e6f707172737475767778797a303132333435363738392b2fa2646970667358221220b04899a17e3c9a887eab6edefc2903d5351f6a1975757aac885317611b63d46664736f6c63430008110033",
  "libraries": {
    "AddressSet": "0x99D84A2aA566300d09323EE12ad120177B7654bA",
    "AttributeLib": "0x929098055005A237C806Df3e2dC0E9B07390D83D",
    "Base64": "0x672911b00d6E0d0f6959A1726B4960090a357a4f",
    "Bytes32Set": "0xdDe75BdD8C22C231325997274D523aa0588648cf",
    "ClaimStorageLib": "0xd7b49da1a4b6f5f847367934d205267069E79772",
    "ClaimTopicLib": "0x74F75CF7495D01F851E49c9e0b6cfA1E4e874940",
    "DiamondFactoryLib": "0xf718448Cc7F47f8A41Df4369B3DB85654c895dA8",
    "DiamondLib": "0xe6b068a7e6129Ca173Ea322B7Eaa97F1A4d6ebBC",
    "ERC721AEnumerationLib": "0x2F25585979FD3EAda22229F7Cf1c41D59D2AA6e8",
    "ERC721ALib": "0x2C0A3c204108b7432d6378Fa52070Afa63a40785",
    "IdentityLib": "0x53709DA9782E836FB703Dd3E5d34B83a17da2773",
    "LibDiamond": "0x71c73a51f4Ab21532035DDCfc11656AbBF0c3a42",
    "MetadataLib": "0x17276309aca9bb8272367aB843d0E869405Dd5B6",
    "StringsLib": "0x09a89Cfbdbe53e34fF1E919006a47d12a6aABd40",
    "Strings": "0xE0e88D1dFaf4Bf95dAFB567fE65862827849AAbE",
    "SVGTemplatesLib": "0x318B833110D5d0DEB641bF3bd723DDc830BbBBd8",
    "TrustedIssuerLib": "0x0f367e5aa7a7f9a004ae37BC3c2e66A09FF95DA8",
    "UInt256Set": "0x8d8632635555c6c20F54a1b0b4A79b7A69f04026"
  },
  "devdoc": {
    "kind": "dev",
    "methods": {
      "baseUri()": {
        "details": "See {IERC721Metadata-symbol}."
      },
      "contractURI()": {
        "details": "Base URI for computing {tokenURI}. If set, the resulting URI for each token will be the concatenation of the `baseURI` and the `tokenId`. Empty by default, can be overriden in child contracts()."
      },
      "description()": {
        "details": "See {IERC721Metadata-symbol}."
      },
      "externalUri()": {
        "details": "See {IERC721Metadata-symbol}."
      },
      "image()": {
        "details": "See {IERC721Metadata-symbol}."
      },
      "name()": {
        "details": "See {IERC721Metadata-name}."
      },
      "symbol()": {
        "details": "See {IERC721Metadata-symbol}."
      },
      "tokenURI(uint256)": {
        "details": "See {IERC721Metadata-tokenURI}."
      }
    },
    "version": 1
  },
  "userdoc": {
    "kind": "user",
    "methods": {},
    "version": 1
  },
  "storageLayout": {
    "storage": [],
    "types": null
  }
}