{
  "address": "0xFda1602d7Ac3cC84b023d1d1d7A73E5C092BDD57",
  "abi": [
    {
      "inputs": [
        {
          "internalType": "address",
          "name": "",
          "type": "address"
        },
        {
          "internalType": "address",
          "name": "",
          "type": "address"
        },
        {
          "internalType": "uint256",
          "name": "",
          "type": "uint256"
        },
        {
          "internalType": "bytes",
          "name": "",
          "type": "bytes"
        }
      ],
      "name": "onERC721Received",
      "outputs": [
        {
          "internalType": "bytes4",
          "name": "",
          "type": "bytes4"
        }
      ],
      "stateMutability": "pure",
      "type": "function"
    }
  ],
  "transactionHash": "0x9c3c2c07bbaa6ddf78f25b51e9c6616e0104bc615322f5885db2817c0abc64ff",
  "args": [],
  "numDeployments": 1,
  "solcInputHash": "dbcfcf842e810514aedd8e426522bfbb",
  "bytecode": "0x608060405234801561001057600080fd5b50610197806100206000396000f3fe608060405234801561001057600080fd5b506004361061002b5760003560e01c8063150b7a0214610030575b600080fd5b61006861003e3660046100c6565b7f150b7a020000000000000000000000000000000000000000000000000000000095945050505050565b6040517fffffffff00000000000000000000000000000000000000000000000000000000909116815260200160405180910390f35b803573ffffffffffffffffffffffffffffffffffffffff811681146100c157600080fd5b919050565b6000806000806000608086880312156100de57600080fd5b6100e78661009d565b94506100f56020870161009d565b935060408601359250606086013567ffffffffffffffff8082111561011957600080fd5b818801915088601f83011261012d57600080fd5b81358181111561013c57600080fd5b89602082850101111561014e57600080fd5b969995985093965060200194939250505056fea26469706673582212205e8575fe476675127fb4a0e126a3f9b302144de809182819265a9d8f9ead831264736f6c63430008110033",
  "libraries": {
    "AddressSet": "0xe816f9c968c92bef011eabc25bb1e062f23f0ce3",
    "AttributeLib": "0x54b27B50D22583c3F8D44062105fa3746092F98D",
    "Base64": "0x18f7751ECdE5e9A20F7ba3b3E6419e5486dce02C",
    "Bytes32Set": "0xF8cF9DDd669304191Db084053CB0CB2B996721A8",
    "ClaimStorageLib": "0xb355293012312F75756CE66d5D6208D50E9570D9",
    "ClaimTopicLib": "0xfA5F92fB7D658b83Bd8eb891CFa1de03B2dE6ca0",
    "DiamondFactoryLib": "0x5e3a72a725e885D3297Df110fed8513c1A89590F",
    "DiamondLib": "0xfF3811e752E2fB8ca0192Ac977ec7EE0154C27D7",
    "ERC721AEnumerationLib": "0x3862fD7Aee0687c461D40A3c6AbaD9bD9F15e6c4",
    "ERC721ALib": "0x185d29cB9B14a6EA5d114534EF1A99C205d13204",
    "IdentityLib": "0x8187074C0542Adc6f8679958106A546F2Ac498cc",
    "LibDiamond": "0x0ef6EE0407615E57bC04bF16C21a9aeA1530f650",
    "MetadataLib": "0xFFa8D07fA502AbD668CFdba501999F3074f1a78c",
    "StringsLib": "0xfe30ea7bcFa85debB8FC3c8AA925ebEb22011b6f",
    "Strings": "0x9fF441f16e0163DCa2109c376d15348b3001232D",
    "SVGTemplatesLib": "0xB66E75ed2C1202b29F37e862e00CdA37B4edA8A3",
    "TrustedIssuerLib": "0x2DE50b277A2b56220F676E9C84524f9c3fdc12F3",
    "UInt256Set": "0xCA610CCce4b2aB25Adc1072a0C21df42320478A3",
    "IdentityFactory": "0xEA0f9DE12192E09bA196a2819081c196BAc99104"
  },
  "devdoc": {
    "details": "Enables the diamond to receiver erc1155 tokens. This contract also requires  supportsInterface to support ERC721. This is implemenented in the DiamondInit contract.",
    "kind": "dev",
    "methods": {},
    "version": 1
  },
  "userdoc": {
    "kind": "user",
    "methods": {
      "onERC721Received(address,address,uint256,bytes)": {
        "notice": "on erc1155 received - return this function selector to allow transfer of tokens"
      }
    },
    "version": 1
  },
  "storageLayout": {
    "storage": [],
    "types": null
  }
}