{
  "address": "0x6f53C20F95F4Bb02dda5E2b6256129B05C100211",
  "abi": [
    {
      "anonymous": false,
      "inputs": [
        {
          "indexed": true,
          "internalType": "uint256",
          "name": "executionId",
          "type": "uint256"
        },
        {
          "indexed": false,
          "internalType": "bool",
          "name": "approved",
          "type": "bool"
        }
      ],
      "name": "Approved",
      "type": "event"
    },
    {
      "anonymous": false,
      "inputs": [
        {
          "indexed": true,
          "internalType": "bytes32",
          "name": "claimId",
          "type": "bytes32"
        },
        {
          "indexed": true,
          "internalType": "uint256",
          "name": "topic",
          "type": "uint256"
        },
        {
          "indexed": false,
          "internalType": "uint256",
          "name": "scheme",
          "type": "uint256"
        },
        {
          "indexed": true,
          "internalType": "address",
          "name": "issuer",
          "type": "address"
        },
        {
          "indexed": false,
          "internalType": "bytes",
          "name": "signature",
          "type": "bytes"
        },
        {
          "indexed": false,
          "internalType": "bytes",
          "name": "data",
          "type": "bytes"
        },
        {
          "indexed": false,
          "internalType": "string",
          "name": "uri",
          "type": "string"
        }
      ],
      "name": "ClaimAdded",
      "type": "event"
    },
    {
      "anonymous": false,
      "inputs": [
        {
          "indexed": true,
          "internalType": "bytes32",
          "name": "claimId",
          "type": "bytes32"
        },
        {
          "indexed": true,
          "internalType": "uint256",
          "name": "topic",
          "type": "uint256"
        },
        {
          "indexed": false,
          "internalType": "uint256",
          "name": "scheme",
          "type": "uint256"
        },
        {
          "indexed": true,
          "internalType": "address",
          "name": "issuer",
          "type": "address"
        },
        {
          "indexed": false,
          "internalType": "bytes",
          "name": "signature",
          "type": "bytes"
        },
        {
          "indexed": false,
          "internalType": "bytes",
          "name": "data",
          "type": "bytes"
        },
        {
          "indexed": false,
          "internalType": "string",
          "name": "uri",
          "type": "string"
        }
      ],
      "name": "ClaimChanged",
      "type": "event"
    },
    {
      "anonymous": false,
      "inputs": [
        {
          "indexed": true,
          "internalType": "bytes32",
          "name": "claimId",
          "type": "bytes32"
        },
        {
          "indexed": true,
          "internalType": "uint256",
          "name": "topic",
          "type": "uint256"
        },
        {
          "indexed": false,
          "internalType": "uint256",
          "name": "scheme",
          "type": "uint256"
        },
        {
          "indexed": true,
          "internalType": "address",
          "name": "issuer",
          "type": "address"
        },
        {
          "indexed": false,
          "internalType": "bytes",
          "name": "signature",
          "type": "bytes"
        },
        {
          "indexed": false,
          "internalType": "bytes",
          "name": "data",
          "type": "bytes"
        },
        {
          "indexed": false,
          "internalType": "string",
          "name": "uri",
          "type": "string"
        }
      ],
      "name": "ClaimRemoved",
      "type": "event"
    },
    {
      "anonymous": false,
      "inputs": [
        {
          "indexed": true,
          "internalType": "uint256",
          "name": "claimRequestId",
          "type": "uint256"
        },
        {
          "indexed": true,
          "internalType": "uint256",
          "name": "topic",
          "type": "uint256"
        },
        {
          "indexed": false,
          "internalType": "uint256",
          "name": "scheme",
          "type": "uint256"
        },
        {
          "indexed": true,
          "internalType": "address",
          "name": "issuer",
          "type": "address"
        },
        {
          "indexed": false,
          "internalType": "bytes",
          "name": "signature",
          "type": "bytes"
        },
        {
          "indexed": false,
          "internalType": "bytes",
          "name": "data",
          "type": "bytes"
        },
        {
          "indexed": false,
          "internalType": "string",
          "name": "uri",
          "type": "string"
        }
      ],
      "name": "ClaimRequested",
      "type": "event"
    },
    {
      "anonymous": false,
      "inputs": [
        {
          "indexed": true,
          "internalType": "address",
          "name": "contractAddress",
          "type": "address"
        },
        {
          "indexed": true,
          "internalType": "address",
          "name": "controllerAddress",
          "type": "address"
        }
      ],
      "name": "ControllerAdded",
      "type": "event"
    },
    {
      "anonymous": false,
      "inputs": [
        {
          "indexed": true,
          "internalType": "address",
          "name": "contractAddress",
          "type": "address"
        },
        {
          "indexed": true,
          "internalType": "address",
          "name": "controllerAddress",
          "type": "address"
        }
      ],
      "name": "ControllerRemoved",
      "type": "event"
    },
    {
      "anonymous": false,
      "inputs": [
        {
          "indexed": true,
          "internalType": "uint256",
          "name": "executionId",
          "type": "uint256"
        },
        {
          "indexed": true,
          "internalType": "address",
          "name": "to",
          "type": "address"
        },
        {
          "indexed": true,
          "internalType": "uint256",
          "name": "value",
          "type": "uint256"
        },
        {
          "indexed": false,
          "internalType": "bytes",
          "name": "data",
          "type": "bytes"
        }
      ],
      "name": "Executed",
      "type": "event"
    },
    {
      "anonymous": false,
      "inputs": [
        {
          "indexed": true,
          "internalType": "uint256",
          "name": "executionId",
          "type": "uint256"
        },
        {
          "indexed": true,
          "internalType": "address",
          "name": "to",
          "type": "address"
        },
        {
          "indexed": true,
          "internalType": "uint256",
          "name": "value",
          "type": "uint256"
        },
        {
          "indexed": false,
          "internalType": "bytes",
          "name": "data",
          "type": "bytes"
        }
      ],
      "name": "ExecutionFailed",
      "type": "event"
    },
    {
      "anonymous": false,
      "inputs": [
        {
          "indexed": true,
          "internalType": "uint256",
          "name": "executionId",
          "type": "uint256"
        },
        {
          "indexed": true,
          "internalType": "address",
          "name": "to",
          "type": "address"
        },
        {
          "indexed": true,
          "internalType": "uint256",
          "name": "value",
          "type": "uint256"
        },
        {
          "indexed": false,
          "internalType": "bytes",
          "name": "data",
          "type": "bytes"
        }
      ],
      "name": "ExecutionRequested",
      "type": "event"
    },
    {
      "anonymous": false,
      "inputs": [
        {
          "indexed": false,
          "internalType": "uint8",
          "name": "version",
          "type": "uint8"
        }
      ],
      "name": "Initialized",
      "type": "event"
    },
    {
      "anonymous": false,
      "inputs": [
        {
          "indexed": true,
          "internalType": "bytes32",
          "name": "key",
          "type": "bytes32"
        },
        {
          "indexed": true,
          "internalType": "uint256",
          "name": "purpose",
          "type": "uint256"
        },
        {
          "indexed": true,
          "internalType": "uint256",
          "name": "keyType",
          "type": "uint256"
        }
      ],
      "name": "KeyAdded",
      "type": "event"
    },
    {
      "anonymous": false,
      "inputs": [
        {
          "indexed": true,
          "internalType": "bytes32",
          "name": "key",
          "type": "bytes32"
        },
        {
          "indexed": true,
          "internalType": "uint256",
          "name": "purpose",
          "type": "uint256"
        },
        {
          "indexed": true,
          "internalType": "uint256",
          "name": "keyType",
          "type": "uint256"
        }
      ],
      "name": "KeyRemoved",
      "type": "event"
    },
    {
      "inputs": [
        {
          "internalType": "uint256",
          "name": "_topic",
          "type": "uint256"
        },
        {
          "internalType": "uint256",
          "name": "_scheme",
          "type": "uint256"
        },
        {
          "internalType": "address",
          "name": "_issuer",
          "type": "address"
        },
        {
          "internalType": "bytes",
          "name": "_signature",
          "type": "bytes"
        },
        {
          "internalType": "bytes",
          "name": "_data",
          "type": "bytes"
        },
        {
          "internalType": "string",
          "name": "_uri",
          "type": "string"
        }
      ],
      "name": "addClaim",
      "outputs": [
        {
          "internalType": "uint256",
          "name": "claimRequestId",
          "type": "uint256"
        }
      ],
      "stateMutability": "nonpayable",
      "type": "function"
    },
    {
      "inputs": [
        {
          "internalType": "address",
          "name": "_controller",
          "type": "address"
        }
      ],
      "name": "addController",
      "outputs": [],
      "stateMutability": "nonpayable",
      "type": "function"
    },
    {
      "inputs": [
        {
          "internalType": "bytes32",
          "name": "_key",
          "type": "bytes32"
        },
        {
          "internalType": "uint256",
          "name": "_purpose",
          "type": "uint256"
        },
        {
          "internalType": "uint256",
          "name": "_keyType",
          "type": "uint256"
        }
      ],
      "name": "addKey",
      "outputs": [],
      "stateMutability": "nonpayable",
      "type": "function"
    },
    {
      "inputs": [
        {
          "internalType": "uint256",
          "name": "_id",
          "type": "uint256"
        },
        {
          "internalType": "bool",
          "name": "_approve",
          "type": "bool"
        }
      ],
      "name": "approve",
      "outputs": [],
      "stateMutability": "nonpayable",
      "type": "function"
    },
    {
      "inputs": [
        {
          "internalType": "bytes32",
          "name": "",
          "type": "bytes32"
        },
        {
          "internalType": "uint256",
          "name": "",
          "type": "uint256"
        },
        {
          "internalType": "uint256",
          "name": "",
          "type": "uint256"
        },
        {
          "internalType": "address",
          "name": "",
          "type": "address"
        },
        {
          "internalType": "bytes",
          "name": "",
          "type": "bytes"
        },
        {
          "internalType": "bytes",
          "name": "",
          "type": "bytes"
        },
        {
          "internalType": "string",
          "name": "",
          "type": "string"
        }
      ],
      "name": "changeClaim",
      "outputs": [
        {
          "internalType": "bool",
          "name": "",
          "type": "bool"
        }
      ],
      "stateMutability": "pure",
      "type": "function"
    },
    {
      "inputs": [
        {
          "internalType": "address",
          "name": "_to",
          "type": "address"
        },
        {
          "internalType": "uint256",
          "name": "_value",
          "type": "uint256"
        },
        {
          "internalType": "bytes",
          "name": "_data",
          "type": "bytes"
        }
      ],
      "name": "execute",
      "outputs": [
        {
          "internalType": "uint256",
          "name": "executionId",
          "type": "uint256"
        }
      ],
      "stateMutability": "payable",
      "type": "function"
    },
    {
      "inputs": [
        {
          "internalType": "bytes32",
          "name": "_claimId",
          "type": "bytes32"
        }
      ],
      "name": "getClaim",
      "outputs": [
        {
          "internalType": "uint256",
          "name": "topic",
          "type": "uint256"
        },
        {
          "internalType": "uint256",
          "name": "scheme",
          "type": "uint256"
        },
        {
          "internalType": "address",
          "name": "issuer",
          "type": "address"
        },
        {
          "internalType": "bytes",
          "name": "signature",
          "type": "bytes"
        },
        {
          "internalType": "bytes",
          "name": "data",
          "type": "bytes"
        },
        {
          "internalType": "string",
          "name": "uri",
          "type": "string"
        }
      ],
      "stateMutability": "view",
      "type": "function"
    },
    {
      "inputs": [
        {
          "internalType": "uint256",
          "name": "_topic",
          "type": "uint256"
        }
      ],
      "name": "getClaimIdsByTopic",
      "outputs": [
        {
          "internalType": "bytes32[]",
          "name": "claimIds_",
          "type": "bytes32[]"
        }
      ],
      "stateMutability": "view",
      "type": "function"
    },
    {
      "inputs": [],
      "name": "getClaimTopics",
      "outputs": [
        {
          "internalType": "uint256[]",
          "name": "",
          "type": "uint256[]"
        }
      ],
      "stateMutability": "view",
      "type": "function"
    },
    {
      "inputs": [
        {
          "internalType": "uint256",
          "name": "",
          "type": "uint256"
        }
      ],
      "name": "getExecution",
      "outputs": [
        {
          "internalType": "address",
          "name": "",
          "type": "address"
        },
        {
          "internalType": "uint256",
          "name": "",
          "type": "uint256"
        },
        {
          "internalType": "bytes",
          "name": "",
          "type": "bytes"
        },
        {
          "internalType": "bool",
          "name": "",
          "type": "bool"
        },
        {
          "internalType": "uint256",
          "name": "",
          "type": "uint256"
        }
      ],
      "stateMutability": "pure",
      "type": "function"
    },
    {
      "inputs": [
        {
          "internalType": "bytes32",
          "name": "_key",
          "type": "bytes32"
        }
      ],
      "name": "getKey",
      "outputs": [
        {
          "internalType": "uint256[]",
          "name": "purposes",
          "type": "uint256[]"
        },
        {
          "internalType": "uint256",
          "name": "keyType",
          "type": "uint256"
        },
        {
          "internalType": "bytes32",
          "name": "key",
          "type": "bytes32"
        }
      ],
      "stateMutability": "view",
      "type": "function"
    },
    {
      "inputs": [
        {
          "internalType": "bytes32",
          "name": "_key",
          "type": "bytes32"
        }
      ],
      "name": "getKeyPurposes",
      "outputs": [
        {
          "internalType": "uint256[]",
          "name": "_purposes",
          "type": "uint256[]"
        }
      ],
      "stateMutability": "view",
      "type": "function"
    },
    {
      "inputs": [
        {
          "internalType": "uint256",
          "name": "_purpose",
          "type": "uint256"
        }
      ],
      "name": "getKeysByPurpose",
      "outputs": [
        {
          "internalType": "bytes32[]",
          "name": "_keys",
          "type": "bytes32[]"
        }
      ],
      "stateMutability": "view",
      "type": "function"
    },
    {
      "inputs": [
        {
          "internalType": "address",
          "name": "_owner",
          "type": "address"
        },
        {
          "internalType": "address",
          "name": "_identityRegistry",
          "type": "address"
        },
        {
          "internalType": "address",
          "name": "_trustedIssuerRegistry",
          "type": "address"
        }
      ],
      "name": "initialize",
      "outputs": [],
      "stateMutability": "nonpayable",
      "type": "function"
    },
    {
      "inputs": [
        {
          "internalType": "address",
          "name": "_address",
          "type": "address"
        }
      ],
      "name": "isController",
      "outputs": [
        {
          "internalType": "bool",
          "name": "allowed",
          "type": "bool"
        }
      ],
      "stateMutability": "view",
      "type": "function"
    },
    {
      "inputs": [],
      "name": "isVerified",
      "outputs": [
        {
          "internalType": "bool",
          "name": "",
          "type": "bool"
        }
      ],
      "stateMutability": "view",
      "type": "function"
    },
    {
      "inputs": [
        {
          "internalType": "bytes32",
          "name": "_key",
          "type": "bytes32"
        },
        {
          "internalType": "uint256",
          "name": "_purpose",
          "type": "uint256"
        }
      ],
      "name": "keyHasPurpose",
      "outputs": [
        {
          "internalType": "bool",
          "name": "exists",
          "type": "bool"
        }
      ],
      "stateMutability": "view",
      "type": "function"
    },
    {
      "inputs": [],
      "name": "relinquishControl",
      "outputs": [],
      "stateMutability": "nonpayable",
      "type": "function"
    },
    {
      "inputs": [
        {
          "internalType": "bytes32",
          "name": "_claimId",
          "type": "bytes32"
        }
      ],
      "name": "removeClaim",
      "outputs": [
        {
          "internalType": "bool",
          "name": "success",
          "type": "bool"
        }
      ],
      "stateMutability": "nonpayable",
      "type": "function"
    },
    {
      "inputs": [
        {
          "internalType": "bytes32",
          "name": "_key",
          "type": "bytes32"
        },
        {
          "internalType": "uint256",
          "name": "_purpose",
          "type": "uint256"
        }
      ],
      "name": "removeKey",
      "outputs": [],
      "stateMutability": "nonpayable",
      "type": "function"
    },
    {
      "inputs": [
        {
          "internalType": "bytes4",
          "name": "interfaceId",
          "type": "bytes4"
        }
      ],
      "name": "supportsInterface",
      "outputs": [
        {
          "internalType": "bool",
          "name": "",
          "type": "bool"
        }
      ],
      "stateMutability": "pure",
      "type": "function"
    }
  ],
  "transactionHash": "0xc8a1b7e4f1d18b946484af702c8bde7fc39053740226386c7c604c23cb9519ca",
  "args": [],
  "numDeployments": 1,
  "solcInputHash": "484eba28627d1a62f03f1e15ade25543",
  "bytecode": "0x608060405234801561001057600080fd5b506123c2806100206000396000f3fe60806040526004361061016a5760003560e01c8063b1a34e0d116100cb578063d202158d1161007f578063e1c28bef11610059578063e1c28bef1461042d578063e326fbd414610442578063fb307b341461047357600080fd5b8063d202158d146103cb578063db6a20a5146103eb578063df09d6041461040b57600080fd5b8063b61d27f6116100b0578063b61d27f614610366578063c0c53b8b14610379578063c9100bcb1461039957600080fd5b8063b1a34e0d14610318578063b429afeb1461034657600080fd5b8063747442d31161012257806380e9e9e11161010757806380e9e9e1146102ab5780639010f726146102d8578063a7fc7a07146102f857600080fd5b8063747442d31461027757806380007e831461029757600080fd5b80631d381240116101535780631d381240146102155780634eee424a1461023757806353d413c51461025757600080fd5b806301ffc9a71461016f57806312aaac70146101e6575b600080fd5b34801561017b57600080fd5b506101d161018a366004611a4d565b7fffffffff00000000000000000000000000000000000000000000000000000000167f5f09a887000000000000000000000000000000000000000000000000000000001490565b60405190151581526020015b60405180910390f35b3480156101f257600080fd5b50610206610201366004611a8f565b610493565b6040516101dd93929190611ae3565b34801561022157600080fd5b50610235610230366004611b08565b61050f565b005b34801561024357600080fd5b506101d1610252366004611a8f565b6106ab565b34801561026357600080fd5b50610235610272366004611b34565b61089a565b34801561028357600080fd5b50610235610292366004611b64565b610aa9565b3480156102a357600080fd5b5060006101d1565b3480156102b757600080fd5b506102cb6102c6366004611a8f565b610c60565b6040516101dd9190611b94565b3480156102e457600080fd5b506102cb6102f3366004611a8f565b610cc2565b34801561030457600080fd5b50610235610313366004611bef565b610d22565b34801561032457600080fd5b50610338610333366004611cad565b610dbb565b6040519081526020016101dd565b34801561035257600080fd5b506101d1610361366004611bef565b611091565b610338610374366004611d58565b6110b4565b34801561038557600080fd5b50610235610394366004611ddf565b6112fa565b3480156103a557600080fd5b506103b96103b4366004611a8f565b611474565b6040516101dd96959493929190611e68565b3480156103d757600080fd5b506101d16103e6366004611b34565b61167d565b3480156103f757600080fd5b506101d1610406366004611ec9565b611690565b34801561041757600080fd5b506104206116db565b6040516101dd9190611f7f565b34801561043957600080fd5b5061023561179e565b34801561044e57600080fd5b5061046261045d366004611a8f565b611816565b6040516101dd959493929190611f92565b34801561047f57600080fd5b5061042061048e366004611a8f565b611867565b6000818152600260208181526040808420600181015493810154815483518186028101860190945280845260609695869593949093909185918301828280156104fb57602002820191906000526020600020905b8154815260200190600101908083116104e7575b505050505092509250925092509193909250565b600554604051633bcbb46960e21b81523360048201526001600160a01b039091169063ef2ed1a490602401602060405180830381865afa158015610557573d6000803e3d6000fd5b505050506040513d601f19601f8201168201806040525081019061057b9190611fce565b6105cc5760405162461bcd60e51b815260206004820152601e60248201527f53656e646572206973206e6f742061207472757374656420697373756572000060448201526064015b60405180910390fd5b6000838152600260208190526040909120015483900361062e5760405162461bcd60e51b815260206004820152601260248201527f4b657920616c726561647920657869737473000000000000000000000000000060448201526064016105c3565b600083815260026020818152604080842092830187905582546001818101855584865283862090910187905592830185905585845260038252808420805493840181558452908320909101859055518291849186917f480000bb1edad8ca1470381cc334b1917fbd51c6531f3a623ea8e0ec7e38a6e991a4505050565b600554604051633bcbb46960e21b81523360048201526000916001600160a01b03169063ef2ed1a490602401602060405180830381865afa1580156106f4573d6000803e3d6000fd5b505050506040513d601f19601f820116820180604052508101906107189190611fce565b6107645760405162461bcd60e51b815260206004820152601e60248201527f53656e646572206973206e6f742061207472757374656420697373756572000060448201526064016105c3565b600082815260066020526040902060028101546001600160a01b03166107cc5760405162461bcd60e51b815260206004820152601460248201527f436c61696d20646f6573206e6f7420657869737400000000000000000000000060448201526064016105c3565b60008381526006602052604081208181556001810182905560028101805473ffffffffffffffffffffffffffffffffffffffff191690559061081160038301826119e0565b61081f6004830160006119e0565b61082d6005830160006119e0565b50506002810154815460018301546040516001600160a01b039093169286917f3cf57863a89432c61c4a27073c6ee39e8a764bff5a05aebfbcdcdc80b2e6130a9161088791906003880190600489019060058a019061209c565b60405180910390a460019150505b919050565b600554604051633bcbb46960e21b81523360048201526001600160a01b039091169063ef2ed1a490602401602060405180830381865afa1580156108e2573d6000803e3d6000fd5b505050506040513d601f19601f820116820180604052508101906109069190611fce565b6109525760405162461bcd60e51b815260206004820152601e60248201527f53656e646572206973206e6f742061207472757374656420697373756572000060448201526064016105c3565b6000828152600260208190526040909120015482146109b35760405162461bcd60e51b815260206004820152600b60248201527f4e6f2073756368206b657900000000000000000000000000000000000000000060448201526064016105c3565b60005b600083815260026020526040902054811015610a3d5760008381526002602052604090208054839190839081106109ef576109ef6120e6565b906000526020600020015403610a2b576000838152600260205260409020805482908110610a1f57610a1f6120e6565b60009182526020822001555b80610a35816120fc565b9150506109b6565b506000828152600260205260408082206001015490519091839185917f585a4aef50f8267a92b32412b331b20f7f8b96f2245b253b9cc50dcc621d339791a4600082815260026020526040812090610a958282611a1a565b506000600182018190556002909101555050565b600554604051633bcbb46960e21b81523360048201526001600160a01b039091169063ef2ed1a490602401602060405180830381865afa158015610af1573d6000803e3d6000fd5b505050506040513d601f19601f82011682018060405250810190610b159190611fce565b610b615760405162461bcd60e51b815260206004820152601e60248201527f53656e646572206973206e6f742061207472757374656420697373756572000060448201526064016105c3565b6040516bffffffffffffffffffffffff193360601b166020820152610ba0906034016040516020818303038152906040528051906020012060026118c7565b610bec5760405162461bcd60e51b815260206004820152601b60248201527f53656e64657220646f6573206e6f74206861766520726967687473000000000060448201526064016105c3565b8015610c2d576040516001815282907fb3932da477fe5d6c8ff2eafef050c0f3a1af18fc07121001482600f36f3715d8906020015b60405180910390a25050565b6040516000815282907fb3932da477fe5d6c8ff2eafef050c0f3a1af18fc07121001482600f36f3715d890602001610c21565b600081815260086020908152604091829020805483518184028101840190945280845260609392830182828015610cb657602002820191906000526020600020905b815481526020019060010190808311610ca2575b50505050509050919050565b600081815260036020908152604091829020805483518184028101840190945280845260609392830182828015610cb65760200282019190600052602060002090815481526020019060010190808311610ca25750505050509050919050565b3360009081526020819052604090205460ff16151560011480610d4457503033145b610d905760405162461bcd60e51b815260206004820152601a60248201527f63616c6c6572206973206e6f74206120636f6e74726f6c6c657200000000000060448201526064016105c3565b610db8816001600160a01b03166000908152602081905260409020805460ff19166001179055565b50565b600554604051633bcbb46960e21b81523360048201526000916001600160a01b03169063ef2ed1a490602401602060405180830381865afa158015610e04573d6000803e3d6000fd5b505050506040513d601f19601f82011682018060405250810190610e289190611fce565b610e745760405162461bcd60e51b815260206004820152601e60248201527f53656e646572206973206e6f742061207472757374656420697373756572000060448201526064016105c3565b6040516bffffffffffffffffffffffff19606087901b1660208201526034810188905260009060540160408051808303601f1901815291815281516020928301206000818152600690935291208981556001810189905560028101805473ffffffffffffffffffffffffffffffffffffffff19166001600160a01b038a1617905590915060038101610f068782612173565b5060048101610f158682612173565b5060058101610f248582612173565b50600089815260086020908152604080832080546001818101835591855283852001869055600980548083019091557f6e1540171b6c0c960b71a7020d9f60077f6af931a8bbf590da0223dacf75c7af018690558584526006909252909120825481558282015491810191909155600280830154908201805473ffffffffffffffffffffffffffffffffffffffff19166001600160a01b039092169190911790558190600380820190610fd990840182612233565b50600481810190610fec90840182612233565b50600581810190610fff90840182612233565b5050600780546001810182556000919091527fa66cc928b5edb82af9bd49922954155ab7b0942694bea4ce44661d9a8736c68801839055506040516001600160a01b038816908a9084907f46149b18aa084502c3f12bc75e19eda8bda8d102b82cce8474677a6d0d5f43c59061107c908d908c908c908c9061230e565b60405180910390a45096979650505050505050565b6001600160a01b03811660009081526020819052604081205460ff165b92915050565b600554604051633bcbb46960e21b81523360048201526000916001600160a01b03169063ef2ed1a490602401602060405180830381865afa1580156110fd573d6000803e3d6000fd5b505050506040513d601f19601f820116820180604052508101906111219190611fce565b61116d5760405162461bcd60e51b815260206004820152601e60248201527f53656e646572206973206e6f742061207472757374656420697373756572000060448201526064016105c3565b6040516bffffffffffffffffffffffff193360601b1660208201526111ac906034016040516020818303038152906040528051906020012060016118c7565b6111f85760405162461bcd60e51b815260206004820152601b60248201527f53656e64657220646f6573206e6f74206861766520726967687473000000000060448201526064016105c3565b6000856001600160a01b031685858560405161121592919061234d565b60006040518083038185875af1925050503d8060008114611252576040519150601f19603f3d011682016040523d82523d6000602084013e611257565b606091505b5050905080156112ab5784866001600160a01b0316837f1f920dbda597d7bf95035464170fa58d0a4b57f13a1c315ace6793b9f63688b8878760405161129e92919061235d565b60405180910390a46112f1565b84866001600160a01b0316837fe10c49d9f7c71da23262367013434763cfdb2332267641728d25cd712c5c6a6887876040516112e892919061235d565b60405180910390a45b50949350505050565b600154610100900460ff161580801561131757506001805460ff16105b806113305750303b15801561133057506001805460ff16145b6113a25760405162461bcd60e51b815260206004820152602e60248201527f496e697469616c697a61626c653a20636f6e747261637420697320616c72656160448201527f647920696e697469616c697a656400000000000000000000000000000000000060648201526084016105c3565b6001805460ff19168117905580156113c4576001805461ff0019166101001790555b6113ec846001600160a01b03166000908152602081905260409020805460ff19166001179055565b600480546001600160a01b0380861673ffffffffffffffffffffffffffffffffffffffff19928316179092556005805492851692909116919091179055801561146e576001805461ff00191681556040519081527f7f26b83ff96e1f2b6a682f133852f6798a09c465da95921460cefb38474024989060200160405180910390a15b50505050565b600080600060608060606000600660008981526020019081526020016000209050806000015481600101548260020160009054906101000a90046001600160a01b03168360030184600401856005018280546114cf90611feb565b80601f01602080910402602001604051908101604052809291908181526020018280546114fb90611feb565b80156115485780601f1061151d57610100808354040283529160200191611548565b820191906000526020600020905b81548152906001019060200180831161152b57829003601f168201915b5050505050925081805461155b90611feb565b80601f016020809104026020016040519081016040528092919081815260200182805461158790611feb565b80156115d45780601f106115a9576101008083540402835291602001916115d4565b820191906000526020600020905b8154815290600101906020018083116115b757829003601f168201915b505050505091508080546115e790611feb565b80601f016020809104026020016040519081016040528092919081815260200182805461161390611feb565b80156116605780601f1061163557610100808354040283529160200191611660565b820191906000526020600020905b81548152906001019060200180831161164357829003601f168201915b505050505090509650965096509650965096505091939550919395565b600061168983836118c7565b9392505050565b60405162461bcd60e51b815260206004820152600f60248201527f4e6f7420696d706c656d656e746564000000000000000000000000000000000060448201526000906064016105c3565b60095460609060009067ffffffffffffffff8111156116fc576116fc611c0a565b604051908082528060200260200182016040528015611725578160200160208202803683370190505b50905060005b60095481101561179857600660006009838154811061174c5761174c6120e6565b906000526020600020015481526020019081526020016000206000015482828151811061177b5761177b6120e6565b602090810291909101015280611790816120fc565b91505061172b565b50919050565b3360009081526020819052604090205460ff161515600114806117c057503033145b61180c5760405162461bcd60e51b815260206004820152601a60248201527f63616c6c6572206973206e6f74206120636f6e74726f6c6c657200000000000060448201526064016105c3565b611814611959565b565b6000806060818060405162461bcd60e51b81526004016105c3906020808252600f908201527f4e6f7420696d706c656d656e7465640000000000000000000000000000000000604082015260600190565b600081815260026020908152604091829020805483518184028101840190945280845260609392830182828015610cb65760200282019190600052602060002090815481526020019060010190808311610ca25750505050509050919050565b60008281526002602081905260408220015481036118e7575060006110ae565b60005b60008481526002602052604090205481101561194f576000848152600260205260409020805484919083908110611923576119236120e6565b90600052602060002001540361193d5760019150506110ae565b80611947816120fc565b9150506118ea565b5060009392505050565b3360009081526020819052604090205460ff1615156001148061197b57503033145b6119c75760405162461bcd60e51b815260206004820152601a60248201527f63616c6c6572206973206e6f74206120636f6e74726f6c6c657200000000000060448201526064016105c3565b336000908152602081905260409020805460ff19169055565b5080546119ec90611feb565b6000825580601f106119fc575050565b601f016020900490600052602060002090810190610db89190611a34565b5080546000825590600052602060002090810190610db891905b5b80821115611a495760008155600101611a35565b5090565b600060208284031215611a5f57600080fd5b81357fffffffff000000000000000000000000000000000000000000000000000000008116811461168957600080fd5b600060208284031215611aa157600080fd5b5035919050565b600081518084526020808501945080840160005b83811015611ad857815187529582019590820190600101611abc565b509495945050505050565b606081526000611af66060830186611aa8565b60208301949094525060400152919050565b600080600060608486031215611b1d57600080fd5b505081359360208301359350604090920135919050565b60008060408385031215611b4757600080fd5b50508035926020909101359150565b8015158114610db857600080fd5b60008060408385031215611b7757600080fd5b823591506020830135611b8981611b56565b809150509250929050565b6020808252825182820181905260009190848201906040850190845b81811015611bcc57835183529284019291840191600101611bb0565b50909695505050505050565b80356001600160a01b038116811461089557600080fd5b600060208284031215611c0157600080fd5b61168982611bd8565b634e487b7160e01b600052604160045260246000fd5b600082601f830112611c3157600080fd5b813567ffffffffffffffff80821115611c4c57611c4c611c0a565b604051601f8301601f19908116603f01168101908282118183101715611c7457611c74611c0a565b81604052838152866020858801011115611c8d57600080fd5b836020870160208301376000602085830101528094505050505092915050565b60008060008060008060c08789031215611cc657600080fd5b8635955060208701359450611cdd60408801611bd8565b9350606087013567ffffffffffffffff80821115611cfa57600080fd5b611d068a838b01611c20565b94506080890135915080821115611d1c57600080fd5b611d288a838b01611c20565b935060a0890135915080821115611d3e57600080fd5b50611d4b89828a01611c20565b9150509295509295509295565b60008060008060608587031215611d6e57600080fd5b611d7785611bd8565b935060208501359250604085013567ffffffffffffffff80821115611d9b57600080fd5b818701915087601f830112611daf57600080fd5b813581811115611dbe57600080fd5b886020828501011115611dd057600080fd5b95989497505060200194505050565b600080600060608486031215611df457600080fd5b611dfd84611bd8565b9250611e0b60208501611bd8565b9150611e1960408501611bd8565b90509250925092565b6000815180845260005b81811015611e4857602081850181015186830182015201611e2c565b506000602082860101526020601f19601f83011685010191505092915050565b8681528560208201526001600160a01b038516604082015260c060608201526000611e9660c0830186611e22565b8281036080840152611ea88186611e22565b905082810360a0840152611ebc8185611e22565b9998505050505050505050565b600080600080600080600060e0888a031215611ee457600080fd5b873596506020880135955060408801359450611f0260608901611bd8565b9350608088013567ffffffffffffffff80821115611f1f57600080fd5b611f2b8b838c01611c20565b945060a08a0135915080821115611f4157600080fd5b611f4d8b838c01611c20565b935060c08a0135915080821115611f6357600080fd5b50611f708a828b01611c20565b91505092959891949750929550565b6020815260006116896020830184611aa8565b6001600160a01b038616815284602082015260a060408201526000611fba60a0830186611e22565b931515606083015250608001529392505050565b600060208284031215611fe057600080fd5b815161168981611b56565b600181811c90821680611fff57607f821691505b60208210810361179857634e487b7160e01b600052602260045260246000fd5b6000815461202c81611feb565b808552602060018381168015612049576001811461206357612091565b60ff198516838901528284151560051b8901019550612091565b866000528260002060005b858110156120895781548a820186015290830190840161206e565b890184019650505b505050505092915050565b8481526080602082015260006120b5608083018661201f565b82810360408401526120c7818661201f565b905082810360608401526120db818561201f565b979650505050505050565b634e487b7160e01b600052603260045260246000fd5b6000600019820361211d57634e487b7160e01b600052601160045260246000fd5b5060010190565b601f82111561216e57600081815260208120601f850160051c8101602086101561214b5750805b601f850160051c820191505b8181101561216a57828155600101612157565b5050505b505050565b815167ffffffffffffffff81111561218d5761218d611c0a565b6121a18161219b8454611feb565b84612124565b602080601f8311600181146121d657600084156121be5750858301515b600019600386901b1c1916600185901b17855561216a565b600085815260208120601f198616915b82811015612205578886015182559484019460019091019084016121e6565b50858210156122235787850151600019600388901b60f8161c191681555b5050505050600190811b01905550565b81810361223e575050565b6122488254611feb565b67ffffffffffffffff81111561226057612260611c0a565b61226e8161219b8454611feb565b6000601f8211600181146122a2576000831561228a5750848201545b600019600385901b1c1916600184901b178455612307565b600085815260209020601f19841690600086815260209020845b838110156122dc57828601548255600195860195909101906020016122bc565b50858310156122fa5781850154600019600388901b60f8161c191681555b50505060018360011b0184555b5050505050565b8481526080602082015260006123276080830186611e22565b82810360408401526123398186611e22565b905082810360608401526120db8185611e22565b8183823760009101908152919050565b60208152816020820152818360408301376000818301604090810191909152601f909201601f1916010191905056fea2646970667358221220c622b3355046dcffd966a3ff2591c287cac1783d1cea1c5b4ac7cada0ed2ec4064736f6c63430008110033",
  "devdoc": {
    "details": "This contract is used to store the claims of a user",
    "kind": "dev",
    "methods": {
      "addController(address)": {
        "details": "Add an address allowed to control this contract"
      },
      "initialize(address,address,address)": {
        "params": {
          "_identityRegistry": "the identity registry",
          "_owner": "the owner of the contract",
          "_trustedIssuerRegistry": "the trusted issuer registry"
        }
      },
      "isController(address)": {
        "details": "Check if this address is a controller"
      },
      "relinquishControl()": {
        "details": "Remove the sender address from the list of controllers"
      },
      "supportsInterface(bytes4)": {
        "details": "Interface identification is specified in ERC-165. This function  uses less than 30,000 gas.",
        "params": {
          "interfaceId": "The interface identifier, as specified in ERC-165"
        },
        "returns": {
          "_0": "`true` if the contract implements `interfaceID` and  `interfaceID` is not 0xffffffff, `false` otherwise"
        }
      }
    },
    "title": "Identity",
    "version": 1
  },
  "userdoc": {
    "events": {
      "ControllerAdded(address,address)": {
        "notice": "emitted when a controller is added."
      },
      "ControllerRemoved(address,address)": {
        "notice": "emitted when a controller is removed."
      }
    },
    "kind": "user",
    "methods": {
      "initialize(address,address,address)": {
        "notice": "initialize the contract"
      },
      "supportsInterface(bytes4)": {
        "notice": "Query if a contract implements an interface"
      }
    },
    "notice": "This contract represents an identity of a user",
    "version": 1
  },
  "storageLayout": {
    "storage": [
      {
        "astId": 6048,
        "contract": "src/identity/Identity.sol:Identity",
        "label": "_controllers",
        "offset": 0,
        "slot": "0",
        "type": "t_mapping(t_address,t_bool)"
      },
      {
        "astId": 199,
        "contract": "src/identity/Identity.sol:Identity",
        "label": "_initialized",
        "offset": 0,
        "slot": "1",
        "type": "t_uint8"
      },
      {
        "astId": 202,
        "contract": "src/identity/Identity.sol:Identity",
        "label": "_initializing",
        "offset": 1,
        "slot": "1",
        "type": "t_bool"
      },
      {
        "astId": 3084,
        "contract": "src/identity/Identity.sol:Identity",
        "label": "keys",
        "offset": 0,
        "slot": "2",
        "type": "t_mapping(t_bytes32,t_struct(Key)3141_storage)"
      },
      {
        "astId": 3089,
        "contract": "src/identity/Identity.sol:Identity",
        "label": "keysByPurpose",
        "offset": 0,
        "slot": "3",
        "type": "t_mapping(t_uint256,t_array(t_bytes32)dyn_storage)"
      },
      {
        "astId": 3091,
        "contract": "src/identity/Identity.sol:Identity",
        "label": "identityRegistry",
        "offset": 0,
        "slot": "4",
        "type": "t_address"
      },
      {
        "astId": 3093,
        "contract": "src/identity/Identity.sol:Identity",
        "label": "trustedIssuerRegistry",
        "offset": 0,
        "slot": "5",
        "type": "t_address"
      },
      {
        "astId": 3505,
        "contract": "src/identity/Identity.sol:Identity",
        "label": "claims",
        "offset": 0,
        "slot": "6",
        "type": "t_mapping(t_bytes32,t_struct(Claim)3500_storage)"
      },
      {
        "astId": 3508,
        "contract": "src/identity/Identity.sol:Identity",
        "label": "claimIds",
        "offset": 0,
        "slot": "7",
        "type": "t_array(t_bytes32)dyn_storage"
      },
      {
        "astId": 3513,
        "contract": "src/identity/Identity.sol:Identity",
        "label": "claimsByTopic",
        "offset": 0,
        "slot": "8",
        "type": "t_mapping(t_uint256,t_array(t_bytes32)dyn_storage)"
      },
      {
        "astId": 3516,
        "contract": "src/identity/Identity.sol:Identity",
        "label": "claimTopics",
        "offset": 0,
        "slot": "9",
        "type": "t_array(t_bytes32)dyn_storage"
      }
    ],
    "types": {
      "t_address": {
        "encoding": "inplace",
        "label": "address",
        "numberOfBytes": "20"
      },
      "t_array(t_bytes32)dyn_storage": {
        "base": "t_bytes32",
        "encoding": "dynamic_array",
        "label": "bytes32[]",
        "numberOfBytes": "32"
      },
      "t_array(t_uint256)dyn_storage": {
        "base": "t_uint256",
        "encoding": "dynamic_array",
        "label": "uint256[]",
        "numberOfBytes": "32"
      },
      "t_bool": {
        "encoding": "inplace",
        "label": "bool",
        "numberOfBytes": "1"
      },
      "t_bytes32": {
        "encoding": "inplace",
        "label": "bytes32",
        "numberOfBytes": "32"
      },
      "t_bytes_storage": {
        "encoding": "bytes",
        "label": "bytes",
        "numberOfBytes": "32"
      },
      "t_mapping(t_address,t_bool)": {
        "encoding": "mapping",
        "key": "t_address",
        "label": "mapping(address => bool)",
        "numberOfBytes": "32",
        "value": "t_bool"
      },
      "t_mapping(t_bytes32,t_struct(Claim)3500_storage)": {
        "encoding": "mapping",
        "key": "t_bytes32",
        "label": "mapping(bytes32 => struct Identity.Claim)",
        "numberOfBytes": "32",
        "value": "t_struct(Claim)3500_storage"
      },
      "t_mapping(t_bytes32,t_struct(Key)3141_storage)": {
        "encoding": "mapping",
        "key": "t_bytes32",
        "label": "mapping(bytes32 => struct Identity.Key)",
        "numberOfBytes": "32",
        "value": "t_struct(Key)3141_storage"
      },
      "t_mapping(t_uint256,t_array(t_bytes32)dyn_storage)": {
        "encoding": "mapping",
        "key": "t_uint256",
        "label": "mapping(uint256 => bytes32[])",
        "numberOfBytes": "32",
        "value": "t_array(t_bytes32)dyn_storage"
      },
      "t_string_storage": {
        "encoding": "bytes",
        "label": "string",
        "numberOfBytes": "32"
      },
      "t_struct(Claim)3500_storage": {
        "encoding": "inplace",
        "label": "struct Identity.Claim",
        "members": [
          {
            "astId": 3489,
            "contract": "src/identity/Identity.sol:Identity",
            "label": "topic",
            "offset": 0,
            "slot": "0",
            "type": "t_uint256"
          },
          {
            "astId": 3491,
            "contract": "src/identity/Identity.sol:Identity",
            "label": "scheme",
            "offset": 0,
            "slot": "1",
            "type": "t_uint256"
          },
          {
            "astId": 3493,
            "contract": "src/identity/Identity.sol:Identity",
            "label": "issuer",
            "offset": 0,
            "slot": "2",
            "type": "t_address"
          },
          {
            "astId": 3495,
            "contract": "src/identity/Identity.sol:Identity",
            "label": "signature",
            "offset": 0,
            "slot": "3",
            "type": "t_bytes_storage"
          },
          {
            "astId": 3497,
            "contract": "src/identity/Identity.sol:Identity",
            "label": "data",
            "offset": 0,
            "slot": "4",
            "type": "t_bytes_storage"
          },
          {
            "astId": 3499,
            "contract": "src/identity/Identity.sol:Identity",
            "label": "uri",
            "offset": 0,
            "slot": "5",
            "type": "t_string_storage"
          }
        ],
        "numberOfBytes": "192"
      },
      "t_struct(Key)3141_storage": {
        "encoding": "inplace",
        "label": "struct Identity.Key",
        "members": [
          {
            "astId": 3136,
            "contract": "src/identity/Identity.sol:Identity",
            "label": "purposes",
            "offset": 0,
            "slot": "0",
            "type": "t_array(t_uint256)dyn_storage"
          },
          {
            "astId": 3138,
            "contract": "src/identity/Identity.sol:Identity",
            "label": "keyType",
            "offset": 0,
            "slot": "1",
            "type": "t_uint256"
          },
          {
            "astId": 3140,
            "contract": "src/identity/Identity.sol:Identity",
            "label": "key",
            "offset": 0,
            "slot": "2",
            "type": "t_bytes32"
          }
        ],
        "numberOfBytes": "96"
      },
      "t_uint256": {
        "encoding": "inplace",
        "label": "uint256",
        "numberOfBytes": "32"
      },
      "t_uint8": {
        "encoding": "inplace",
        "label": "uint8",
        "numberOfBytes": "1"
      }
    }
  }
}