{
  "address": "0x1A76d356F40d3051a3F1ed6f1279974d3ae879d8",
  "abi": [
    {
      "inputs": [],
      "stateMutability": "nonpayable",
      "type": "constructor"
    },
    {
      "anonymous": false,
      "inputs": [
        {
          "indexed": true,
          "internalType": "address",
          "name": "identity",
          "type": "address"
        },
        {
          "indexed": true,
          "internalType": "uint256",
          "name": "claimTopic",
          "type": "uint256"
        },
        {
          "indexed": false,
          "internalType": "bytes",
          "name": "claim",
          "type": "bytes"
        }
      ],
      "name": "ClaimAdded",
      "type": "event"
    },
    {
      "anonymous": false,
      "inputs": [
        {
          "indexed": true,
          "internalType": "address",
          "name": "identity",
          "type": "address"
        },
        {
          "indexed": true,
          "internalType": "uint256",
          "name": "claimTopic",
          "type": "uint256"
        }
      ],
      "name": "ClaimRemoved",
      "type": "event"
    },
    {
      "anonymous": false,
      "inputs": [],
      "name": "ContractAddressesSet",
      "type": "event"
    },
    {
      "anonymous": false,
      "inputs": [
        {
          "indexed": true,
          "internalType": "address",
          "name": "_address",
          "type": "address"
        },
        {
          "indexed": false,
          "internalType": "contract IIdentity",
          "name": "identity",
          "type": "address"
        }
      ],
      "name": "IdentityAdded",
      "type": "event"
    },
    {
      "anonymous": false,
      "inputs": [
        {
          "indexed": true,
          "internalType": "address",
          "name": "identity",
          "type": "address"
        },
        {
          "indexed": true,
          "internalType": "uint16",
          "name": "country",
          "type": "uint16"
        }
      ],
      "name": "IdentityCountryUpdated",
      "type": "event"
    },
    {
      "anonymous": false,
      "inputs": [
        {
          "indexed": true,
          "internalType": "address",
          "name": "_address",
          "type": "address"
        },
        {
          "indexed": false,
          "internalType": "contract IIdentity",
          "name": "identity",
          "type": "address"
        }
      ],
      "name": "IdentityRemoved",
      "type": "event"
    },
    {
      "anonymous": false,
      "inputs": [
        {
          "indexed": true,
          "internalType": "address",
          "name": "walletAddress",
          "type": "address"
        },
        {
          "indexed": true,
          "internalType": "bytes32",
          "name": "onchainID",
          "type": "bytes32"
        }
      ],
      "name": "WalletLinked",
      "type": "event"
    },
    {
      "anonymous": false,
      "inputs": [
        {
          "indexed": true,
          "internalType": "address",
          "name": "walletAddress",
          "type": "address"
        },
        {
          "indexed": true,
          "internalType": "bytes32",
          "name": "onchainID",
          "type": "bytes32"
        }
      ],
      "name": "WalletUnlinked",
      "type": "event"
    },
    {
      "inputs": [
        {
          "internalType": "address",
          "name": "_identity",
          "type": "address"
        },
        {
          "internalType": "uint256",
          "name": "_claimTopic",
          "type": "uint256"
        },
        {
          "internalType": "bytes",
          "name": "_claim",
          "type": "bytes"
        }
      ],
      "name": "addClaim",
      "outputs": [],
      "stateMutability": "nonpayable",
      "type": "function"
    },
    {
      "inputs": [
        {
          "internalType": "address",
          "name": "_identity",
          "type": "address"
        },
        {
          "internalType": "contract IIdentity",
          "name": "identityData",
          "type": "address"
        }
      ],
      "name": "addIdentity",
      "outputs": [],
      "stateMutability": "nonpayable",
      "type": "function"
    },
    {
      "inputs": [
        {
          "internalType": "address[]",
          "name": "_identities",
          "type": "address[]"
        },
        {
          "internalType": "contract IIdentity[]",
          "name": "identityDatas",
          "type": "address[]"
        }
      ],
      "name": "batchAddIdentity",
      "outputs": [],
      "stateMutability": "nonpayable",
      "type": "function"
    },
    {
      "inputs": [
        {
          "internalType": "address",
          "name": "_userAddress",
          "type": "address"
        }
      ],
      "name": "contains",
      "outputs": [
        {
          "internalType": "bool",
          "name": "",
          "type": "bool"
        }
      ],
      "stateMutability": "view",
      "type": "function"
    },
    {
      "inputs": [
        {
          "internalType": "address",
          "name": "_registryUser",
          "type": "address"
        },
        {
          "internalType": "uint256",
          "name": "_claimTopic",
          "type": "uint256"
        }
      ],
      "name": "getClaim",
      "outputs": [
        {
          "internalType": "bytes",
          "name": "",
          "type": "bytes"
        }
      ],
      "stateMutability": "view",
      "type": "function"
    },
    {
      "inputs": [
        {
          "internalType": "address",
          "name": "_registryUser",
          "type": "address"
        }
      ],
      "name": "getClaims",
      "outputs": [
        {
          "internalType": "uint256[]",
          "name": "",
          "type": "uint256[]"
        }
      ],
      "stateMutability": "view",
      "type": "function"
    },
    {
      "inputs": [
        {
          "internalType": "address",
          "name": "_userAddress",
          "type": "address"
        }
      ],
      "name": "getOnchainIDFromWallet",
      "outputs": [
        {
          "internalType": "bytes32",
          "name": "",
          "type": "bytes32"
        }
      ],
      "stateMutability": "view",
      "type": "function"
    },
    {
      "inputs": [],
      "name": "getRegistryUsers",
      "outputs": [
        {
          "internalType": "address[]",
          "name": "",
          "type": "address[]"
        }
      ],
      "stateMutability": "view",
      "type": "function"
    },
    {
      "inputs": [
        {
          "internalType": "address",
          "name": "_registryUser",
          "type": "address"
        },
        {
          "internalType": "uint256",
          "name": "_claimTopic",
          "type": "uint256"
        }
      ],
      "name": "hasClaim",
      "outputs": [
        {
          "internalType": "bool",
          "name": "",
          "type": "bool"
        }
      ],
      "stateMutability": "view",
      "type": "function"
    },
    {
      "inputs": [
        {
          "internalType": "address",
          "name": "_userAddress",
          "type": "address"
        }
      ],
      "name": "identity",
      "outputs": [
        {
          "internalType": "contract IIdentity",
          "name": "",
          "type": "address"
        }
      ],
      "stateMutability": "view",
      "type": "function"
    },
    {
      "inputs": [
        {
          "internalType": "address",
          "name": "_registryUser",
          "type": "address"
        }
      ],
      "name": "isRegistryUser",
      "outputs": [
        {
          "internalType": "bool",
          "name": "",
          "type": "bool"
        }
      ],
      "stateMutability": "view",
      "type": "function"
    },
    {
      "inputs": [
        {
          "internalType": "address",
          "name": "_userAddress",
          "type": "address"
        }
      ],
      "name": "isVerified",
      "outputs": [
        {
          "internalType": "bool",
          "name": "",
          "type": "bool"
        }
      ],
      "stateMutability": "view",
      "type": "function"
    },
    {
      "inputs": [
        {
          "internalType": "address",
          "name": "_identity",
          "type": "address"
        },
        {
          "internalType": "uint256",
          "name": "_claimTopic",
          "type": "uint256"
        }
      ],
      "name": "removeClaim",
      "outputs": [],
      "stateMutability": "nonpayable",
      "type": "function"
    },
    {
      "inputs": [
        {
          "internalType": "address",
          "name": "_identity",
          "type": "address"
        }
      ],
      "name": "removeIdentity",
      "outputs": [],
      "stateMutability": "nonpayable",
      "type": "function"
    },
    {
      "inputs": [
        {
          "internalType": "bytes32",
          "name": "_onchainID",
          "type": "bytes32"
        }
      ],
      "name": "unlinkWallet",
      "outputs": [],
      "stateMutability": "nonpayable",
      "type": "function"
    },
    {
      "inputs": [
        {
          "internalType": "address",
          "name": "_walletAddress",
          "type": "address"
        }
      ],
      "name": "unlinkWalletAddress",
      "outputs": [],
      "stateMutability": "nonpayable",
      "type": "function"
    },
    {
      "inputs": [
        {
          "internalType": "address",
          "name": "_walletAddress",
          "type": "address"
        }
      ],
      "name": "walletAddressLinked",
      "outputs": [
        {
          "internalType": "bool",
          "name": "",
          "type": "bool"
        }
      ],
      "stateMutability": "view",
      "type": "function"
    },
    {
      "inputs": [
        {
          "internalType": "bytes32",
          "name": "",
          "type": "bytes32"
        }
      ],
      "name": "walletLinked",
      "outputs": [
        {
          "internalType": "bool",
          "name": "",
          "type": "bool"
        }
      ],
      "stateMutability": "view",
      "type": "function"
    }
  ],
  "transactionHash": "0x29933f5f8573e5cd49826bf65f988bdb1cd2fc828783a904fa8d4c698fe32ad1",
  "args": [],
  "numDeployments": 1,
  "solcInputHash": "469c9ec9a50f53e2fd48aa877fe7231f",
  "bytecode": "0x608060405234801561001057600080fd5b50611b01806100206000396000f3fe608060405234801561001057600080fd5b50600436106101365760003560e01c80638e0c3f6b116100b2578063d0d46a0b11610081578063dea9cd1411610066578063dea9cd1414610377578063e99a95651461038c578063f0eb5e54146103c257600080fd5b8063d0d46a0b14610344578063dd9688c41461036457600080fd5b80638e0c3f6b146102af578063b54f5b30146102c2578063b9209e331461031e578063c1f2f1aa1461033157600080fd5b806327afccc9116101095780635dbe47e8116100ee5780635dbe47e81461024f57806380bfd8031461029c5780638df2bf191461024f57600080fd5b806327afccc91461019f578063585730eb146101f557600080fd5b80630f12b5681461013b5780630f79ab391461015057806316aedfdb1461017957806325ef73b11461018c575b600080fd5b61014e61014936600461152a565b610425565b005b61016361015e366004611558565b61062b565b6040516101709190611584565b60405180910390f35b61014e610187366004611558565b61070b565b61014e61019a3660046115d2565b6108af565b6101e76101ad36600461160b565b6001600160a01b031660009081527f1702513c229a0468767071aca9498549d8e4a6daa27de21337c15aad13357f9e602052604090205490565b604051908152602001610170565b61023f61020336600461160b565b6001600160a01b031660009081527f1702513c229a0468767071aca9498549d8e4a6daa27de21337c15aad13357f9e6020526040902054151590565b6040519015158152602001610170565b61023f61025d36600461160b565b6001600160a01b0390811660009081527f1702513c229a0468767071aca9498549d8e4a6daa27de21337c15aad13357f9b602052604090205416151590565b61014e6102aa36600461160b565b61095d565b61014e6102bd366004611674565b610b2a565b61023f6102d0366004611558565b6001600160a01b039190911660009081527f1702513c229a0468767071aca9498549d8e4a6daa27de21337c15aad13357f9b6020908152604080832093835260029093019052205460ff1690565b61023f61032c36600461160b565b610c93565b61014e61033f36600461160b565b610d58565b61035761035236600461160b565b610f03565b60405161017091906116e0565b61014e610372366004611724565b611174565b61037f611335565b60405161017091906117ad565b61023f61039a36600461152a565b507f1702513c229a0468767071aca9498549d8e4a6daa27de21337c15aad13357f9d54151590565b61040d6103d036600461160b565b6001600160a01b0390811660009081527f1702513c229a0468767071aca9498549d8e4a6daa27de21337c15aad13357f9b60205260409020541690565b6040516001600160a01b039091168152602001610170565b604051633bcbb46960e21b8152336004820152309063ef2ed1a490602401602060405180830381865afa158015610460573d6000803e3d6000fd5b505050506040513d601f19601f8201168201806040525081019061048491906117ee565b6104ca5760405162461bcd60e51b81526020600482015260126024820152712737ba103a393ab9ba32b21034b9b9bab2b960711b60448201526064015b60405180910390fd5b7f1702513c229a0468767071aca9498549d8e4a6daa27de21337c15aad13357f9d547f1702513c229a0468767071aca9498549d8e4a6daa27de21337c15aad13357f9b9061055a5760405162461bcd60e51b815260206004820152601060248201527f4e6f206c696e6b65642077616c6c65740000000000000000000000000000000060448201526064016104c1565b6002810180546000919061057090600190611826565b8154811061058057610580611839565b60009182526020808320909101546001600160a01b031680835260038501909152604082209190915560028301805491925090806105c0576105c061184f565b6000828152602081208201600019908101805473ffffffffffffffffffffffffffffffffffffffff1916905590910190915560405184916001600160a01b038416917f7fec2fe82d90bf539ed003543e553a47cf2165de8f1a40a42e5564d81236143d9190a3505050565b6001600160a01b03821660009081527f1702513c229a0468767071aca9498549d8e4a6daa27de21337c15aad13357f9b60208181526040808420858552600181019092529092208054606093919061068290611865565b80601f01602080910402602001604051908101604052809291908181526020018280546106ae90611865565b80156106fb5780601f106106d0576101008083540402835291602001916106fb565b820191906000526020600020905b8154815290600101906020018083116106de57829003601f168201915b5050505050925050505b92915050565b604051633bcbb46960e21b8152336004820152309063ef2ed1a490602401602060405180830381865afa158015610746573d6000803e3d6000fd5b505050506040513d601f19601f8201168201806040525081019061076a91906117ee565b6107ab5760405162461bcd60e51b81526020600482015260126024820152712737ba103a393ab9ba32b21034b9b9bab2b960711b60448201526064016104c1565b6001600160a01b03821660009081527f1702513c229a0468767071aca9498549d8e4a6daa27de21337c15aad13357f9b60208181526040808420858552600281019092529092205490919060ff166108455760405162461bcd60e51b815260206004820152601460248201527f436c61696d20646f6573206e6f7420657869737400000000000000000000000060448201526064016104c1565b6000838152600182016020526040812061085e916114d4565b6000838152600282016020526040808220805460ff191690555184916001600160a01b038716917f45749df36c97b738c268f656e499e02000e4ac4ab4dedfdf1c4ef42df8921d269190a350505050565b604051633bcbb46960e21b8152336004820152309063ef2ed1a490602401602060405180830381865afa1580156108ea573d6000803e3d6000fd5b505050506040513d601f19601f8201168201806040525081019061090e91906117ee565b61094f5760405162461bcd60e51b81526020600482015260126024820152712737ba103a393ab9ba32b21034b9b9bab2b960711b60448201526064016104c1565b61095982826113ba565b5050565b604051633bcbb46960e21b8152336004820152309063ef2ed1a490602401602060405180830381865afa158015610998573d6000803e3d6000fd5b505050506040513d601f19601f820116820180604052508101906109bc91906117ee565b6109fd5760405162461bcd60e51b81526020600482015260126024820152712737ba103a393ab9ba32b21034b9b9bab2b960711b60448201526064016104c1565b7f1702513c229a0468767071aca9498549d8e4a6daa27de21337c15aad13357f9d547f1702513c229a0468767071aca9498549d8e4a6daa27de21337c15aad13357f9b90610a8d5760405162461bcd60e51b815260206004820152601060248201527f4e6f206c696e6b65642077616c6c65740000000000000000000000000000000060448201526064016104c1565b6001600160a01b03821660009081526003820160205260408120805491905560028201805480610abf57610abf61184f565b6000828152602081208201600019908101805473ffffffffffffffffffffffffffffffffffffffff1916905590910190915560405182916001600160a01b038616917f7fec2fe82d90bf539ed003543e553a47cf2165de8f1a40a42e5564d81236143d9190a3505050565b604051633bcbb46960e21b8152336004820152309063ef2ed1a490602401602060405180830381865afa158015610b65573d6000803e3d6000fd5b505050506040513d601f19601f82011682018060405250810190610b8991906117ee565b610bca5760405162461bcd60e51b81526020600482015260126024820152712737ba103a393ab9ba32b21034b9b9bab2b960711b60448201526064016104c1565b828114610c195760405162461bcd60e51b815260206004820152601660248201527f417272617973206c656e677468206d69736d617463680000000000000000000060448201526064016104c1565b60005b83811015610c8c57610c7a858583818110610c3957610c39611839565b9050602002016020810190610c4e919061160b565b848484818110610c6057610c60611839565b9050602002016020810190610c75919061160b565b6113ba565b80610c848161189f565b915050610c1c565b5050505050565b6001600160a01b03811660009081527f1702513c229a0468767071aca9498549d8e4a6daa27de21337c15aad13357f9b60208190526040822054604080517f80007e8300000000000000000000000000000000000000000000000000000000815290516001600160a01b03909216916380007e83916004808201926020929091908290030181865afa158015610d2d573d6000803e3d6000fd5b505050506040513d601f19601f82011682018060405250810190610d5191906117ee565b9392505050565b604051633bcbb46960e21b8152336004820152309063ef2ed1a490602401602060405180830381865afa158015610d93573d6000803e3d6000fd5b505050506040513d601f19601f82011682018060405250810190610db791906117ee565b610df85760405162461bcd60e51b81526020600482015260126024820152712737ba103a393ab9ba32b21034b9b9bab2b960711b60448201526064016104c1565b6001600160a01b0381811660009081527f1702513c229a0468767071aca9498549d8e4a6daa27de21337c15aad13357f9b6020819052604090912080549192909116610e865760405162461bcd60e51b815260206004820152601760248201527f4964656e7469747920646f6573206e6f7420657869737400000000000000000060448201526064016104c1565b6001600160a01b038381166000818152602085815260409182902080547fffffffffffffffffffff000000000000000000000000000000000000000000001690558454915191909316815290917f59d6590e225b81befe259af056324092801080acbb7feab310eb34678871f327910160405180910390a2505050565b6001600160a01b03811660009081527f1702513c229a0468767071aca9498549d8e4a6daa27de21337c15aad13357f9b6020819052604082206060925060008160000160009054906101000a90046001600160a01b03166001600160a01b031663df09d6046040518163ffffffff1660e01b8152600401600060405180830381865afa158015610f97573d6000803e3d6000fd5b505050506040513d6000823e601f3d908101601f19168201604052610fbf91908101906118cf565b5167ffffffffffffffff811115610fd857610fd86118b9565b604051908082528060200260200182016040528015611001578160200160208202803683370190505b50905060005b8254604080517fdf09d60400000000000000000000000000000000000000000000000000000000815290516001600160a01b039092169163df09d604916004808201926000929091908290030181865afa158015611069573d6000803e3d6000fd5b505050506040513d6000823e601f3d908101601f1916820160405261109191908101906118cf565b5181101561116b578254604080517fdf09d60400000000000000000000000000000000000000000000000000000000815290516001600160a01b039092169163df09d604916004808201926000929091908290030181865afa1580156110fb573d6000803e3d6000fd5b505050506040513d6000823e601f3d908101601f1916820160405261112391908101906118cf565b818151811061113457611134611839565b602002602001015182828151811061114e5761114e611839565b6020908102919091010152806111638161189f565b915050611007565b50949350505050565b604051633bcbb46960e21b8152336004820152309063ef2ed1a490602401602060405180830381865afa1580156111af573d6000803e3d6000fd5b505050506040513d601f19601f820116820180604052508101906111d391906117ee565b6112145760405162461bcd60e51b81526020600482015260126024820152712737ba103a393ab9ba32b21034b9b9bab2b960711b60448201526064016104c1565b6001600160a01b03841660009081527f1702513c229a0468767071aca9498549d8e4a6daa27de21337c15aad13357f9b60208181526040808420878552600281019092529092205490919060ff16156112af5760405162461bcd60e51b815260206004820152601460248201527f436c61696d20616c72656164792065786973747300000000000000000000000060448201526064016104c1565b600085815260018201602052604090206112ca8486836119dc565b50600085815260028201602052604090819020805460ff191660011790555185906001600160a01b038816907fa1a7a6cf1ccecabe772767402dc0c23b4b3b3759c0314016dd7a6119bd4b996c906113259088908890611a9c565b60405180910390a3505050505050565b606060007f1702513c229a0468767071aca9498549d8e4a6daa27de21337c15aad13357f9b600181018054604080516020808402820181019092528281529394508301828280156113af57602002820191906000526020600020905b81546001600160a01b03168152600190910190602001808311611391575b505050505091505090565b6001600160a01b0382811660009081527f1702513c229a0468767071aca9498549d8e4a6daa27de21337c15aad13357f9b6020819052604090912080549192909116156114495760405162461bcd60e51b815260206004820152601760248201527f4964656e7469747920616c72656164792065786973747300000000000000000060448201526064016104c1565b805473ffffffffffffffffffffffffffffffffffffffff199081166001600160a01b03858116918217845560018581018054918201815560009081526020908190209091018054909416918816918217909355604051918252917f5e6980326838d8460df43db1f77f5b990d9ce470a5306b9bf05c3131ea192dc1910160405180910390a250505050565b5080546114e090611865565b6000825580601f106114f0575050565b601f01602090049060005260206000209081019061150e9190611511565b50565b5b808211156115265760008155600101611512565b5090565b60006020828403121561153c57600080fd5b5035919050565b6001600160a01b038116811461150e57600080fd5b6000806040838503121561156b57600080fd5b823561157681611543565b946020939093013593505050565b600060208083528351808285015260005b818110156115b157858101830151858201604001528201611595565b506000604082860101526040601f19601f8301168501019250505092915050565b600080604083850312156115e557600080fd5b82356115f081611543565b9150602083013561160081611543565b809150509250929050565b60006020828403121561161d57600080fd5b8135610d5181611543565b60008083601f84011261163a57600080fd5b50813567ffffffffffffffff81111561165257600080fd5b6020830191508360208260051b850101111561166d57600080fd5b9250929050565b6000806000806040858703121561168a57600080fd5b843567ffffffffffffffff808211156116a257600080fd5b6116ae88838901611628565b909650945060208701359150808211156116c757600080fd5b506116d487828801611628565b95989497509550505050565b6020808252825182820181905260009190848201906040850190845b81811015611718578351835292840192918401916001016116fc565b50909695505050505050565b6000806000806060858703121561173a57600080fd5b843561174581611543565b935060208501359250604085013567ffffffffffffffff8082111561176957600080fd5b818701915087601f83011261177d57600080fd5b81358181111561178c57600080fd5b88602082850101111561179e57600080fd5b95989497505060200194505050565b6020808252825182820181905260009190848201906040850190845b818110156117185783516001600160a01b0316835292840192918401916001016117c9565b60006020828403121561180057600080fd5b81518015158114610d5157600080fd5b634e487b7160e01b600052601160045260246000fd5b8181038181111561070557610705611810565b634e487b7160e01b600052603260045260246000fd5b634e487b7160e01b600052603160045260246000fd5b600181811c9082168061187957607f821691505b60208210810361189957634e487b7160e01b600052602260045260246000fd5b50919050565b600060001982036118b2576118b2611810565b5060010190565b634e487b7160e01b600052604160045260246000fd5b600060208083850312156118e257600080fd5b825167ffffffffffffffff808211156118fa57600080fd5b818501915085601f83011261190e57600080fd5b815181811115611920576119206118b9565b8060051b604051601f19603f83011681018181108582111715611945576119456118b9565b60405291825284820192508381018501918883111561196357600080fd5b938501935b8285101561198157845184529385019392850192611968565b98975050505050505050565b601f8211156119d757600081815260208120601f850160051c810160208610156119b45750805b601f850160051c820191505b818110156119d3578281556001016119c0565b5050505b505050565b67ffffffffffffffff8311156119f4576119f46118b9565b611a0883611a028354611865565b8361198d565b6000601f841160018114611a3c5760008515611a245750838201355b600019600387901b1c1916600186901b178355610c8c565b600083815260209020601f19861690835b82811015611a6d5786850135825560209485019460019092019101611a4d565b5086821015611a8a5760001960f88860031b161c19848701351681555b505060018560011b0183555050505050565b60208152816020820152818360408301376000818301604090810191909152601f909201601f1916010191905056fea2646970667358221220f11360443887a133da0fad02ffbbe0476b92f1f8c9aedb201ef88514760ac6bf64736f6c63430008110033",
  "libraries": {
    "AddressSet": "0x99D84A2aA566300d09323EE12ad120177B7654bA",
    "AttributeLib": "0x929098055005A237C806Df3e2dC0E9B07390D83D",
    "Base64": "0x672911b00d6E0d0f6959A1726B4960090a357a4f",
    "Bytes32Set": "0xdDe75BdD8C22C231325997274D523aa0588648cf",
    "ClaimStorageLib": "0xd7b49da1a4b6f5f847367934d205267069E79772",
    "ClaimTopicLib": "0x74F75CF7495D01F851E49c9e0b6cfA1E4e874940",
    "DiamondFactoryLib": "0xf718448Cc7F47f8A41Df4369B3DB85654c895dA8",
    "DiamondLib": "0xe6b068a7e6129Ca173Ea322B7Eaa97F1A4d6ebBC",
    "ERC721AEnumerationLib": "0x2F25585979FD3EAda22229F7Cf1c41D59D2AA6e8",
    "ERC721ALib": "0x2C0A3c204108b7432d6378Fa52070Afa63a40785",
    "IdentityLib": "0x53709DA9782E836FB703Dd3E5d34B83a17da2773",
    "LibDiamond": "0x71c73a51f4Ab21532035DDCfc11656AbBF0c3a42",
    "MetadataLib": "0x17276309aca9bb8272367aB843d0E869405Dd5B6",
    "StringsLib": "0x09a89Cfbdbe53e34fF1E919006a47d12a6aABd40",
    "Strings": "0xE0e88D1dFaf4Bf95dAFB567fE65862827849AAbE",
    "SVGTemplatesLib": "0x318B833110D5d0DEB641bF3bd723DDc830BbBBd8",
    "TrustedIssuerLib": "0x0f367e5aa7a7f9a004ae37BC3c2e66A09FF95DA8",
    "UInt256Set": "0x8d8632635555c6c20F54a1b0b4A79b7A69f04026"
  },
  "devdoc": {
    "details": "This contract is meant to be used via diamond proxy",
    "kind": "dev",
    "methods": {
      "addClaim(address,uint256,bytes)": {
        "details": "this function can only be called by a trusted issuer",
        "params": {
          "_claim": "claim data",
          "_claimTopic": "claim topic",
          "_identity": "address of the identity contract"
        }
      },
      "addIdentity(address,address)": {
        "details": "this function can only be called by a trusted issuer",
        "params": {
          "_identity": "address of the identity contract",
          "identityData": "address of the identity data contract"
        }
      },
      "batchAddIdentity(address[],address[])": {
        "details": "this function can only be called by a trusted issuer",
        "params": {
          "_identities": "array of addresses of the identities",
          "identityDatas": "array of addresses of the identity data contracts"
        }
      },
      "contains(address)": {
        "params": {
          "_userAddress": "address of the identity user"
        },
        "returns": {
          "_0": "bool"
        }
      },
      "getClaim(address,uint256)": {
        "params": {
          "_claimTopic": "claim topic",
          "_registryUser": "address of the registry user"
        },
        "returns": {
          "_0": "claim data"
        }
      },
      "getClaims(address)": {
        "params": {
          "_registryUser": "address of the registry user"
        },
        "returns": {
          "_0": "array of claim topics"
        }
      },
      "getOnchainIDFromWallet(address)": {
        "params": {
          "_userAddress": "address of the registry user"
        },
        "returns": {
          "_0": "onchainID onchain ID"
        }
      },
      "getRegistryUsers()": {
        "returns": {
          "_0": "array of addresses of the users"
        }
      },
      "hasClaim(address,uint256)": {
        "params": {
          "_claimTopic": "claim topic",
          "_registryUser": "address of the registry user"
        },
        "returns": {
          "_0": "bool"
        }
      },
      "identity(address)": {
        "params": {
          "_userAddress": "address of the identity user"
        },
        "returns": {
          "_0": "identityData address of the identity data contract"
        }
      },
      "isRegistryUser(address)": {
        "params": {
          "_registryUser": "address of the registry user"
        },
        "returns": {
          "_0": "bool"
        }
      },
      "isVerified(address)": {
        "params": {
          "_userAddress": "address of the identity user"
        },
        "returns": {
          "_0": "bool"
        }
      },
      "removeClaim(address,uint256)": {
        "details": "this function can only be called by a trusted issuer",
        "params": {
          "_claimTopic": "claim topic",
          "_identity": "address of the identity contract"
        }
      },
      "removeIdentity(address)": {
        "details": "this function can only be called by a trusted issuer",
        "params": {
          "_identity": "address of the identity contract"
        }
      },
      "unlinkWallet(bytes32)": {
        "details": "this function can only be called by a trusted issuer",
        "params": {
          "_onchainID": "onchain ID"
        }
      },
      "unlinkWalletAddress(address)": {
        "details": "this function can only be called by a trusted issuer",
        "params": {
          "_walletAddress": "address of the wallet"
        }
      },
      "walletAddressLinked(address)": {
        "params": {
          "_walletAddress": "address of the wallet"
        }
      },
      "walletLinked(bytes32)": {
        "returns": {
          "_0": "bool"
        }
      }
    },
    "title": "IdentityRegistryFacet",
    "version": 1
  },
  "userdoc": {
    "kind": "user",
    "methods": {
      "addClaim(address,uint256,bytes)": {
        "notice": "add claim to an identity"
      },
      "addIdentity(address,address)": {
        "notice": "add an identity to the registry"
      },
      "batchAddIdentity(address[],address[])": {
        "notice": "batch add identities to the registry"
      },
      "contains(address)": {
        "notice": "does an identity exist"
      },
      "getClaim(address,uint256)": {
        "notice": "get the claim of an identity"
      },
      "getClaims(address)": {
        "notice": "get the claims of an identity"
      },
      "getOnchainIDFromWallet(address)": {
        "notice": "get the onchain ID of an identity"
      },
      "getRegistryUsers()": {
        "notice": "get the users of the registry"
      },
      "hasClaim(address,uint256)": {
        "notice": "does an identity have a claim"
      },
      "identity(address)": {
        "notice": "get the identity data contract address of an identity"
      },
      "isRegistryUser(address)": {
        "notice": "is the user a registry user"
      },
      "isVerified(address)": {
        "notice": "is an identity verified"
      },
      "removeClaim(address,uint256)": {
        "notice": "remove claim from an identity"
      },
      "removeIdentity(address)": {
        "notice": "remove an identity from the registry"
      },
      "unlinkWallet(bytes32)": {
        "notice": "get the wallet addresses of an onchain ID"
      },
      "unlinkWalletAddress(address)": {
        "notice": "unlink a wallet address from an onchain ID"
      },
      "walletAddressLinked(address)": {
        "notice": "link a wallet address to an onchain ID"
      },
      "walletLinked(bytes32)": {
        "notice": "is the wallet linked to an onchain ID"
      }
    },
    "notice": "This contract manages the identity registry",
    "version": 1
  },
  "storageLayout": {
    "storage": [],
    "types": null
  }
}