{
  "address": "0x279B2Af39222385e6391318B1E07832800ABC5a3",
  "abi": [
    {
      "inputs": [],
      "stateMutability": "nonpayable",
      "type": "constructor"
    },
    {
      "anonymous": false,
      "inputs": [
        {
          "indexed": true,
          "internalType": "address",
          "name": "contractAddress",
          "type": "address"
        },
        {
          "indexed": true,
          "internalType": "address",
          "name": "controllerAddress",
          "type": "address"
        }
      ],
      "name": "ControllerAdded",
      "type": "event"
    },
    {
      "anonymous": false,
      "inputs": [
        {
          "indexed": true,
          "internalType": "address",
          "name": "contractAddress",
          "type": "address"
        },
        {
          "indexed": true,
          "internalType": "address",
          "name": "controllerAddress",
          "type": "address"
        }
      ],
      "name": "ControllerRemoved",
      "type": "event"
    },
    {
      "anonymous": false,
      "inputs": [
        {
          "indexed": false,
          "internalType": "string",
          "name": "name",
          "type": "string"
        },
        {
          "indexed": false,
          "internalType": "address",
          "name": "template",
          "type": "address"
        }
      ],
      "name": "SVGTemplateCreated",
      "type": "event"
    },
    {
      "inputs": [
        {
          "internalType": "address",
          "name": "_controller",
          "type": "address"
        }
      ],
      "name": "addController",
      "outputs": [],
      "stateMutability": "nonpayable",
      "type": "function"
    },
    {
      "inputs": [
        {
          "internalType": "address",
          "name": "sender",
          "type": "address"
        },
        {
          "internalType": "string",
          "name": "_name",
          "type": "string"
        }
      ],
      "name": "createSVG",
      "outputs": [
        {
          "internalType": "address",
          "name": "_tplAddress",
          "type": "address"
        }
      ],
      "stateMutability": "nonpayable",
      "type": "function"
    },
    {
      "inputs": [
        {
          "internalType": "address",
          "name": "_address",
          "type": "address"
        }
      ],
      "name": "isController",
      "outputs": [
        {
          "internalType": "bool",
          "name": "allowed",
          "type": "bool"
        }
      ],
      "stateMutability": "view",
      "type": "function"
    },
    {
      "inputs": [],
      "name": "relinquishControl",
      "outputs": [],
      "stateMutability": "nonpayable",
      "type": "function"
    },
    {
      "inputs": [
        {
          "internalType": "string",
          "name": "_name",
          "type": "string"
        }
      ],
      "name": "svgAddress",
      "outputs": [
        {
          "internalType": "address",
          "name": "_svgAddress",
          "type": "address"
        }
      ],
      "stateMutability": "view",
      "type": "function"
    },
    {
      "inputs": [
        {
          "internalType": "string",
          "name": "_name",
          "type": "string"
        }
      ],
      "name": "svgString",
      "outputs": [
        {
          "internalType": "string",
          "name": "data_",
          "type": "string"
        }
      ],
      "stateMutability": "view",
      "type": "function"
    },
    {
      "inputs": [],
      "name": "svgs",
      "outputs": [
        {
          "internalType": "string[]",
          "name": "",
          "type": "string[]"
        }
      ],
      "stateMutability": "view",
      "type": "function"
    }
  ],
  "transactionHash": "0x26cf56be3d61e96c2635668becdb77571cabd8e15c763d03e72d4c71f5929ce6",
  "args": [],
  "numDeployments": 1,
  "solcInputHash": "a261774717de28517d6038bd0944662b",
  "bytecode": "0x608060405234801561001057600080fd5b50610039336001600160a01b03166000908152602081905260409020805460ff19166001179055565b612339806100486000396000f3fe608060405234801561001057600080fd5b506004361061007d5760003560e01c8063642cd0911161005b578063642cd091146100e7578063a7fc7a07146100fa578063b429afeb1461010f578063e1c28bef1461013257600080fd5b80630e60927a146100825780631373d4e8146100b25780631f2cd4c6146100c7575b600080fd5b610095610090366004610a9f565b61013a565b6040516001600160a01b0390911681526020015b60405180910390f35b6100ba61016e565b6040516100a99190610b2c565b6100da6100d5366004610a9f565b61019e565b6040516100a99190610bac565b6100956100f5366004610bd6565b61026a565b61010d610108366004610c24565b610349565b005b61012261011d366004610c24565b6103e2565b60405190151581526020016100a9565b61010d610403565b6000610168827fd6bd814cc1bc4b2e2e963d75e86b66330979dafa58695edbdc535ed90fc5985e5b9061047b565b92915050565b60606101997fd6bd814cc1bc4b2e2e963d75e86b66330979dafa58695edbdc535ed90fc5985e6104de565b905090565b60606101ca827fd6bd814cc1bc4b2e2e963d75e86b66330979dafa58695edbdc535ed90fc5985e610162565b6001600160a01b0316633851e5e46040518163ffffffff1660e01b8152600401600060405180830381865afa92505050801561022857506040513d6000823e601f3d908101601f191682016040526102259190810190610c3f565b60015b610262573d808015610256576040519150601f19603f3d011682016040523d82523d6000602084013e61025b565b606091505b5050919050565b90505b919050565b3360009081526020819052604081205460ff1615156001148061028c57503033145b6102dd5760405162461bcd60e51b815260206004820152601a60248201527f63616c6c6572206973206e6f74206120636f6e74726f6c6c657200000000000060448201526064015b60405180910390fd5b6103087fd6bd814cc1bc4b2e2e963d75e86b66330979dafa58695edbdc535ed90fc5985e84846105bb565b90507f9def9fa0200e8a75d052e2441695912f07be1a15bbce5e2cbd822ecd0d981a66828260405161033b929190610cb6565b60405180910390a192915050565b3360009081526020819052604090205460ff1615156001148061036b57503033145b6103b75760405162461bcd60e51b815260206004820152601a60248201527f63616c6c6572206973206e6f74206120636f6e74726f6c6c657200000000000060448201526064016102d4565b6103df816001600160a01b03166000908152602081905260409020805460ff19166001179055565b50565b6001600160a01b03811660009081526020819052604081205460ff16610168565b3360009081526020819052604090205460ff1615156001148061042557503033145b6104715760405162461bcd60e51b815260206004820152601a60248201527f63616c6c6572206973206e6f74206120636f6e74726f6c6c657200000000000060448201526064016102d4565b6104796107f2565b565b60006104d7826040516020016104919190610ce1565b60405160208183030381529060405280519060200120604051806020016104b7906109b4565b6020820181038252601f19601f8201166040525080519060200120610879565b9392505050565b606081600101805480602002602001604051908101604052809291908181526020016000905b828210156105b057838290600052602060002001805461052390610cfd565b80601f016020809104026020016040519081016040528092919081815260200182805461054f90610cfd565b801561059c5780601f106105715761010080835404028352916020019161059c565b820191906000526020600020905b81548152906001019060200180831161057f57829003601f168201915b505050505081526020019060010190610504565b505050509050919050565b604051600090819085906105d0908590610ce1565b908152604051908190036020019020546001600160a01b0316146106365760405162461bcd60e51b815260206004820152601960248201527f74656d706c61746520616c7265616479206465706c6f7965640000000000000060448201526064016102d4565b6000610642858461047b565b905061069860008460405160200161065a9190610ce1565b6040516020818303038152906040528051906020012060405180602001610680906109b4565b601f1982820381018352601f90910116604052610886565b9150816001600160a01b0316816001600160a01b0316146106fb5760405162461bcd60e51b815260206004820152601960248201527f74656d706c6174652061646472657373206d69736d617463680000000000000060448201526064016102d4565b6040517ff2fde38b0000000000000000000000000000000000000000000000000000000081526001600160a01b03858116600483015283169063f2fde38b90602401600060405180830381600087803b15801561075757600080fd5b505af115801561076b573d6000803e3d6000fd5b505050506001858101805491820181556000908152602090200161078f8482610d9f565b508185600001846040516107a39190610ce1565b90815260405190819003602001902080546001600160a01b03929092167fffffffffffffffffffffffff0000000000000000000000000000000000000000909216919091179055509392505050565b3360009081526020819052604090205460ff1615156001148061081457503033145b6108605760405162461bcd60e51b815260206004820152601a60248201527f63616c6c6572206973206e6f74206120636f6e74726f6c6c657200000000000060448201526064016102d4565b336000908152602081905260409020805460ff19169055565b60006104d783833061098a565b6000834710156108d85760405162461bcd60e51b815260206004820152601d60248201527f437265617465323a20696e73756666696369656e742062616c616e636500000060448201526064016102d4565b81516000036109295760405162461bcd60e51b815260206004820181905260248201527f437265617465323a2062797465636f6465206c656e677468206973207a65726f60448201526064016102d4565b8282516020840186f590506001600160a01b0381166104d75760405162461bcd60e51b815260206004820152601960248201527f437265617465323a204661696c6564206f6e206465706c6f790000000000000060448201526064016102d4565b6000604051836040820152846020820152828152600b8101905060ff815360559020949350505050565b6114a480610e6083390190565b7f4e487b7100000000000000000000000000000000000000000000000000000000600052604160045260246000fd5b604051601f8201601f1916810167ffffffffffffffff81118282101715610a1957610a196109c1565b604052919050565b600067ffffffffffffffff821115610a3b57610a3b6109c1565b50601f01601f191660200190565b600082601f830112610a5a57600080fd5b8135610a6d610a6882610a21565b6109f0565b818152846020838601011115610a8257600080fd5b816020850160208301376000918101602001919091529392505050565b600060208284031215610ab157600080fd5b813567ffffffffffffffff811115610ac857600080fd5b610ad484828501610a49565b949350505050565b60005b83811015610af7578181015183820152602001610adf565b50506000910152565b60008151808452610b18816020860160208601610adc565b601f01601f19169290920160200192915050565b6000602080830181845280855180835260408601915060408160051b870101925083870160005b82811015610b9f577fffffffffffffffffffffffffffffffffffffffffffffffffffffffffffffffc0888603018452610b8d858351610b00565b94509285019290850190600101610b53565b5092979650505050505050565b6020815260006104d76020830184610b00565b80356001600160a01b038116811461026557600080fd5b60008060408385031215610be957600080fd5b610bf283610bbf565b9150602083013567ffffffffffffffff811115610c0e57600080fd5b610c1a85828601610a49565b9150509250929050565b600060208284031215610c3657600080fd5b6104d782610bbf565b600060208284031215610c5157600080fd5b815167ffffffffffffffff811115610c6857600080fd5b8201601f81018413610c7957600080fd5b8051610c87610a6882610a21565b818152856020838501011115610c9c57600080fd5b610cad826020830160208601610adc565b95945050505050565b604081526000610cc96040830185610b00565b90506001600160a01b03831660208301529392505050565b60008251610cf3818460208701610adc565b9190910192915050565b600181811c90821680610d1157607f821691505b602082108103610d4a577f4e487b7100000000000000000000000000000000000000000000000000000000600052602260045260246000fd5b50919050565b601f821115610d9a57600081815260208120601f850160051c81016020861015610d775750805b601f850160051c820191505b81811015610d9657828155600101610d83565b5050505b505050565b815167ffffffffffffffff811115610db957610db96109c1565b610dcd81610dc78454610cfd565b84610d50565b602080601f831160018114610e025760008415610dea5750858301515b600019600386901b1c1916600185901b178555610d96565b600085815260208120601f198616915b82811015610e3157888601518255948401946001909101908401610e12565b5085821015610e4f5787850151600019600388901b60f8161c191681555b5050505050600190811b0190555056fe608060405234801561001057600080fd5b5061001a3361001f565b61006f565b600080546001600160a01b038381166001600160a01b0319831681178455604051919092169283917f8be0079c531659141344cd1fd0a4f28419497f9722a3daafe3b4186f6b6457e09190a35050565b6114268061007e6000396000f3fe608060405234801561001057600080fd5b50600436106100c85760003560e01c806365ece3e911610081578063b0c8f9dc1161005b578063b0c8f9dc14610176578063c53936b114610189578063f2fde38b1461019c57600080fd5b806365ece3e91461013e578063715018a6146101465780638da5cb5b1461014e57600080fd5b80632763b63c116100b25780632763b63c1461010b5780633851e5e41461012c57806352efea6e1461013457600080fd5b806253a5c7146100cd57806325a1f8f7146100f6575b600080fd5b6100e06100db366004610c40565b6101af565b6040516100ed9190610d9c565b60405180910390f35b6100fe61026f565b6040516100ed9190610db6565b61011e610119366004610ec1565b610367565b6040519081526020016100ed565b6100e061041f565b61013c61042e565b005b6100e0610440565b61013c6104f6565b60005460405173ffffffffffffffffffffffffffffffffffffffff90911681526020016100ed565b61011e610184366004610efe565b610508565b61013c610197366004610f33565b610580565b61013c6101aa366004610f97565b6107ef565b6040517f20134c5c0000000000000000000000000000000000000000000000000000000081526060907309a89Cfbdbe53e34fF1E919006a47d12a6aABd40906320134c5c90610224907fd6bd814cc1bc4b2e2e963d75e86b66330979dafa58695edbdc535ed90fc5986390869060040161107e565b600060405180830381865af4158015610241573d6000803e3d6000fd5b505050506040513d6000823e601f3d908101601f19168201604052610269919081019061117b565b92915050565b60607fd6bd814cc1bc4b2e2e963d75e86b66330979dafa58695edbdc535ed90fc59863805480602002602001604051908101604052809291908181526020016000905b8282101561035e5783829060005260206000200180546102d190610fcd565b80601f01602080910402602001604051908101604052809291908181526020018280546102fd90610fcd565b801561034a5780601f1061031f5761010080835404028352916020019161034a565b820191906000526020600020905b81548152906001019060200180831161032d57829003601f168201915b5050505050815260200190600101906102b2565b50505050905090565b600061037161088c565b60005b82518110156103b25761039f838281518110610392576103926111f2565b60200260200101516108f3565b50806103aa81611208565b915050610374565b505080517fd6bd814cc1bc4b2e2e963d75e86b66330979dafa58695edbdc535ed90fc5986230337f2feaa7d3b0dd621e7cad5cfc3691f0dd694e4df1ec0cacdaa75168f732a5429c83610403610955565b604051610411929190611230565b60405180910390a350919050565b6060610429610955565b905090565b61043661088c565b61043e610a09565b565b7fd6bd814cc1bc4b2e2e963d75e86b66330979dafa58695edbdc535ed90fc59862805460609190819061047290610fcd565b80601f016020809104026020016040519081016040528092919081815260200182805461049e90610fcd565b80156104eb5780601f106104c0576101008083540402835291602001916104eb565b820191906000526020600020905b8154815290600101906020018083116104ce57829003601f168201915b505050505091505090565b6104fe61088c565b61043e6000610a34565b600061051261088c565b61051b826108f3565b905030337f06655b3acec5ad67072e7d20045a297095f255f96184d146a1b1604362507a037fd6bd814cc1bc4b2e2e963d75e86b66330979dafa58695edbdc535ed90fc5985e60405161057391600401908790611230565b60405180910390a3919050565b6000547501000000000000000000000000000000000000000000900460ff16158080156105cb575060005460017401000000000000000000000000000000000000000090910460ff16105b806105fd5750303b1580156105fd575060005474010000000000000000000000000000000000000000900460ff166001145b6106745760405162461bcd60e51b815260206004820152602e60248201527f496e697469616c697a61626c653a20636f6e747261637420697320616c72656160448201527f647920696e697469616c697a656400000000000000000000000000000000000060648201526084015b60405180910390fd5b600080547fffffffffffffffffffffff00ffffffffffffffffffffffffffffffffffffffff167401000000000000000000000000000000000000000017905580156106fa57600080547fffffffffffffffffffff00ffffffffffffffffffffffffffffffffffffffffff1675010000000000000000000000000000000000000000001790555b7fd6bd814cc1bc4b2e2e963d75e86b66330979dafa58695edbdc535ed90fc598628061072685826112a3565b5060005b83518110156107855781600101848281518110610749576107496111f2565b6020908102919091018101518254600181018455600093845291909220019061077290826112a3565b508061077d81611208565b91505061072a565b505080156107ea57600080547fffffffffffffffffffff00ffffffffffffffffffffffffffffffffffffffffff169055604051600181527f7f26b83ff96e1f2b6a682f133852f6798a09c465da95921460cefb38474024989060200160405180910390a15b505050565b6107f761088c565b73ffffffffffffffffffffffffffffffffffffffff81166108805760405162461bcd60e51b815260206004820152602660248201527f4f776e61626c653a206e6577206f776e657220697320746865207a65726f206160448201527f6464726573730000000000000000000000000000000000000000000000000000606482015260840161066b565b61088981610a34565b50565b60005473ffffffffffffffffffffffffffffffffffffffff16331461043e5760405162461bcd60e51b815260206004820181905260248201527f4f776e61626c653a2063616c6c6572206973206e6f7420746865206f776e6572604482015260640161066b565b7fd6bd814cc1bc4b2e2e963d75e86b66330979dafa58695edbdc535ed90fc5986380546001810182556000919091527fed06d2150f13cde0363cec0281f53ae553aa71beb1921caab2449a88e09f1db0810161094f83826112a3565b50919050565b60408051602081019091526000808252606091905b7fd6bd814cc1bc4b2e2e963d75e86b66330979dafa58695edbdc535ed90fc598635481101561094f57817fd6bd814cc1bc4b2e2e963d75e86b66330979dafa58695edbdc535ed90fc5985e6005018054839081106109ca576109ca6111f2565b906000526020600020016040516020016109e5929190611363565b60405160208183030381529060405291508080610a0190611208565b91505061096a565b61043e7fd6bd814cc1bc4b2e2e963d75e86b66330979dafa58695edbdc535ed90fc598636000610aa9565b6000805473ffffffffffffffffffffffffffffffffffffffff8381167fffffffffffffffffffffffff0000000000000000000000000000000000000000831681178455604051919092169283917f8be0079c531659141344cd1fd0a4f28419497f9722a3daafe3b4186f6b6457e09190a35050565b508054600082559060005260206000209081019061088991905b80821115610ae0576000610ad78282610ae4565b50600101610ac3565b5090565b508054610af090610fcd565b6000825580601f10610b00575050565b601f01602090049060005260206000209081019061088991905b80821115610ae05760008155600101610b1a565b634e487b7160e01b600052604160045260246000fd5b6040805190810167ffffffffffffffff81118282101715610b6757610b67610b2e565b60405290565b604051601f8201601f1916810167ffffffffffffffff81118282101715610b9657610b96610b2e565b604052919050565b600067ffffffffffffffff821115610bb857610bb8610b2e565b5060051b60200190565b600067ffffffffffffffff821115610bdc57610bdc610b2e565b50601f01601f191660200190565b600082601f830112610bfb57600080fd5b8135610c0e610c0982610bc2565b610b6d565b818152846020838601011115610c2357600080fd5b816020850160208301376000918101602001919091529392505050565b60006020808385031215610c5357600080fd5b823567ffffffffffffffff80821115610c6b57600080fd5b818501915085601f830112610c7f57600080fd5b8135610c8d610c0982610b9e565b81815260059190911b83018401908481019088831115610cac57600080fd5b8585015b83811015610d3f57803585811115610cc85760008081fd5b86016040818c03601f1901811315610ce05760008081fd5b610ce8610b44565b8983013588811115610cfa5760008081fd5b610d088e8c83870101610bea565b825250908201359087821115610d1e5760008081fd5b610d2c8d8b84860101610bea565b818b015285525050918601918601610cb0565b5098975050505050505050565b60005b83811015610d67578181015183820152602001610d4f565b50506000910152565b60008151808452610d88816020860160208601610d4c565b601f01601f19169290920160200192915050565b602081526000610daf6020830184610d70565b9392505050565b6000602080830181845280855180835260408601915060408160051b870101925083870160005b82811015610e29577fffffffffffffffffffffffffffffffffffffffffffffffffffffffffffffffc0888603018452610e17858351610d70565b94509285019290850190600101610ddd565b5092979650505050505050565b600082601f830112610e4757600080fd5b81356020610e57610c0983610b9e565b82815260059290921b84018101918181019086841115610e7657600080fd5b8286015b84811015610eb657803567ffffffffffffffff811115610e9a5760008081fd5b610ea88986838b0101610bea565b845250918301918301610e7a565b509695505050505050565b600060208284031215610ed357600080fd5b813567ffffffffffffffff811115610eea57600080fd5b610ef684828501610e36565b949350505050565b600060208284031215610f1057600080fd5b813567ffffffffffffffff811115610f2757600080fd5b610ef684828501610bea565b60008060408385031215610f4657600080fd5b823567ffffffffffffffff80821115610f5e57600080fd5b610f6a86838701610bea565b93506020850135915080821115610f8057600080fd5b50610f8d85828601610e36565b9150509250929050565b600060208284031215610fa957600080fd5b813573ffffffffffffffffffffffffffffffffffffffff81168114610daf57600080fd5b600181811c90821680610fe157607f821691505b60208210810361094f57634e487b7160e01b600052602260045260246000fd5b6000815461100e81610fcd565b80855260206001838116801561102b576001811461104557611073565b60ff198516838901528284151560051b8901019550611073565b866000528260002060005b8581101561106b5781548a8201860152908301908401611050565b890184019650505b505050505092915050565b6000604080830181845280865480835260608601915060608160051b87010192508760005260208060002060005b838110156110f7577fffffffffffffffffffffffffffffffffffffffffffffffffffffffffffffffa08987030185526110e58683611001565b955093820193600191820191016110ac565b505086840381880152875180855281850193509150600582901b8401810188820160005b8481101561116b57601f198784030186528151805189855261113f8a860182610d70565b91860151858303868801529190506111578183610d70565b97860197945050509083019060010161111b565b50909a9950505050505050505050565b60006020828403121561118d57600080fd5b815167ffffffffffffffff8111156111a457600080fd5b8201601f810184136111b557600080fd5b80516111c3610c0982610bc2565b8181528560208385010111156111d857600080fd5b6111e9826020830160208601610d4c565b95945050505050565b634e487b7160e01b600052603260045260246000fd5b6000600019820361122957634e487b7160e01b600052601160045260246000fd5b5060010190565b6040815260006112436040830185611001565b82810360208401526111e98185610d70565b601f8211156107ea57600081815260208120601f850160051c8101602086101561127c5750805b601f850160051c820191505b8181101561129b57828155600101611288565b505050505050565b815167ffffffffffffffff8111156112bd576112bd610b2e565b6112d1816112cb8454610fcd565b84611255565b602080601f83116001811461130657600084156112ee5750858301515b600019600386901b1c1916600185901b17855561129b565b600085815260208120601f198616915b8281101561133557888601518255948401946001909101908401611316565b50858210156113535787850151600019600388901b60f8161c191681555b5050505050600190811b01905550565b6000835160206113768285838901610d4c565b81840191506000855461138881610fcd565b600182811680156113a057600181146113b5576113e1565b60ff19841687528215158302870194506113e1565b896000528560002060005b848110156113d9578154898201529083019087016113c0565b505082870194505b5092999850505050505050505056fea264697066735822122034337346c55d5425adf14088dbb6f93514ad28d07c4d3e6d72a6a0354c1a336c64736f6c63430008110033a26469706673582212206d3867bfb4169fde4a4a08578024ef23c4e95f0e3a34caa03c9375efb1f601b664736f6c63430008110033",
  "deployedBytecode": "0x608060405234801561001057600080fd5b506004361061007d5760003560e01c8063642cd0911161005b578063642cd091146100e7578063a7fc7a07146100fa578063b429afeb1461010f578063e1c28bef1461013257600080fd5b80630e60927a146100825780631373d4e8146100b25780631f2cd4c6146100c7575b600080fd5b610095610090366004610a9f565b61013a565b6040516001600160a01b0390911681526020015b60405180910390f35b6100ba61016e565b6040516100a99190610b2c565b6100da6100d5366004610a9f565b61019e565b6040516100a99190610bac565b6100956100f5366004610bd6565b61026a565b61010d610108366004610c24565b610349565b005b61012261011d366004610c24565b6103e2565b60405190151581526020016100a9565b61010d610403565b6000610168827fd6bd814cc1bc4b2e2e963d75e86b66330979dafa58695edbdc535ed90fc5985e5b9061047b565b92915050565b60606101997fd6bd814cc1bc4b2e2e963d75e86b66330979dafa58695edbdc535ed90fc5985e6104de565b905090565b60606101ca827fd6bd814cc1bc4b2e2e963d75e86b66330979dafa58695edbdc535ed90fc5985e610162565b6001600160a01b0316633851e5e46040518163ffffffff1660e01b8152600401600060405180830381865afa92505050801561022857506040513d6000823e601f3d908101601f191682016040526102259190810190610c3f565b60015b610262573d808015610256576040519150601f19603f3d011682016040523d82523d6000602084013e61025b565b606091505b5050919050565b90505b919050565b3360009081526020819052604081205460ff1615156001148061028c57503033145b6102dd5760405162461bcd60e51b815260206004820152601a60248201527f63616c6c6572206973206e6f74206120636f6e74726f6c6c657200000000000060448201526064015b60405180910390fd5b6103087fd6bd814cc1bc4b2e2e963d75e86b66330979dafa58695edbdc535ed90fc5985e84846105bb565b90507f9def9fa0200e8a75d052e2441695912f07be1a15bbce5e2cbd822ecd0d981a66828260405161033b929190610cb6565b60405180910390a192915050565b3360009081526020819052604090205460ff1615156001148061036b57503033145b6103b75760405162461bcd60e51b815260206004820152601a60248201527f63616c6c6572206973206e6f74206120636f6e74726f6c6c657200000000000060448201526064016102d4565b6103df816001600160a01b03166000908152602081905260409020805460ff19166001179055565b50565b6001600160a01b03811660009081526020819052604081205460ff16610168565b3360009081526020819052604090205460ff1615156001148061042557503033145b6104715760405162461bcd60e51b815260206004820152601a60248201527f63616c6c6572206973206e6f74206120636f6e74726f6c6c657200000000000060448201526064016102d4565b6104796107f2565b565b60006104d7826040516020016104919190610ce1565b60405160208183030381529060405280519060200120604051806020016104b7906109b4565b6020820181038252601f19601f8201166040525080519060200120610879565b9392505050565b606081600101805480602002602001604051908101604052809291908181526020016000905b828210156105b057838290600052602060002001805461052390610cfd565b80601f016020809104026020016040519081016040528092919081815260200182805461054f90610cfd565b801561059c5780601f106105715761010080835404028352916020019161059c565b820191906000526020600020905b81548152906001019060200180831161057f57829003601f168201915b505050505081526020019060010190610504565b505050509050919050565b604051600090819085906105d0908590610ce1565b908152604051908190036020019020546001600160a01b0316146106365760405162461bcd60e51b815260206004820152601960248201527f74656d706c61746520616c7265616479206465706c6f7965640000000000000060448201526064016102d4565b6000610642858461047b565b905061069860008460405160200161065a9190610ce1565b6040516020818303038152906040528051906020012060405180602001610680906109b4565b601f1982820381018352601f90910116604052610886565b9150816001600160a01b0316816001600160a01b0316146106fb5760405162461bcd60e51b815260206004820152601960248201527f74656d706c6174652061646472657373206d69736d617463680000000000000060448201526064016102d4565b6040517ff2fde38b0000000000000000000000000000000000000000000000000000000081526001600160a01b03858116600483015283169063f2fde38b90602401600060405180830381600087803b15801561075757600080fd5b505af115801561076b573d6000803e3d6000fd5b505050506001858101805491820181556000908152602090200161078f8482610d9f565b508185600001846040516107a39190610ce1565b90815260405190819003602001902080546001600160a01b03929092167fffffffffffffffffffffffff0000000000000000000000000000000000000000909216919091179055509392505050565b3360009081526020819052604090205460ff1615156001148061081457503033145b6108605760405162461bcd60e51b815260206004820152601a60248201527f63616c6c6572206973206e6f74206120636f6e74726f6c6c657200000000000060448201526064016102d4565b336000908152602081905260409020805460ff19169055565b60006104d783833061098a565b6000834710156108d85760405162461bcd60e51b815260206004820152601d60248201527f437265617465323a20696e73756666696369656e742062616c616e636500000060448201526064016102d4565b81516000036109295760405162461bcd60e51b815260206004820181905260248201527f437265617465323a2062797465636f6465206c656e677468206973207a65726f60448201526064016102d4565b8282516020840186f590506001600160a01b0381166104d75760405162461bcd60e51b815260206004820152601960248201527f437265617465323a204661696c6564206f6e206465706c6f790000000000000060448201526064016102d4565b6000604051836040820152846020820152828152600b8101905060ff815360559020949350505050565b6114a480610e6083390190565b7f4e487b7100000000000000000000000000000000000000000000000000000000600052604160045260246000fd5b604051601f8201601f1916810167ffffffffffffffff81118282101715610a1957610a196109c1565b604052919050565b600067ffffffffffffffff821115610a3b57610a3b6109c1565b50601f01601f191660200190565b600082601f830112610a5a57600080fd5b8135610a6d610a6882610a21565b6109f0565b818152846020838601011115610a8257600080fd5b816020850160208301376000918101602001919091529392505050565b600060208284031215610ab157600080fd5b813567ffffffffffffffff811115610ac857600080fd5b610ad484828501610a49565b949350505050565b60005b83811015610af7578181015183820152602001610adf565b50506000910152565b60008151808452610b18816020860160208601610adc565b601f01601f19169290920160200192915050565b6000602080830181845280855180835260408601915060408160051b870101925083870160005b82811015610b9f577fffffffffffffffffffffffffffffffffffffffffffffffffffffffffffffffc0888603018452610b8d858351610b00565b94509285019290850190600101610b53565b5092979650505050505050565b6020815260006104d76020830184610b00565b80356001600160a01b038116811461026557600080fd5b60008060408385031215610be957600080fd5b610bf283610bbf565b9150602083013567ffffffffffffffff811115610c0e57600080fd5b610c1a85828601610a49565b9150509250929050565b600060208284031215610c3657600080fd5b6104d782610bbf565b600060208284031215610c5157600080fd5b815167ffffffffffffffff811115610c6857600080fd5b8201601f81018413610c7957600080fd5b8051610c87610a6882610a21565b818152856020838501011115610c9c57600080fd5b610cad826020830160208601610adc565b95945050505050565b604081526000610cc96040830185610b00565b90506001600160a01b03831660208301529392505050565b60008251610cf3818460208701610adc565b9190910192915050565b600181811c90821680610d1157607f821691505b602082108103610d4a577f4e487b7100000000000000000000000000000000000000000000000000000000600052602260045260246000fd5b50919050565b601f821115610d9a57600081815260208120601f850160051c81016020861015610d775750805b601f850160051c820191505b81811015610d9657828155600101610d83565b5050505b505050565b815167ffffffffffffffff811115610db957610db96109c1565b610dcd81610dc78454610cfd565b84610d50565b602080601f831160018114610e025760008415610dea5750858301515b600019600386901b1c1916600185901b178555610d96565b600085815260208120601f198616915b82811015610e3157888601518255948401946001909101908401610e12565b5085821015610e4f5787850151600019600388901b60f8161c191681555b5050505050600190811b0190555056fe608060405234801561001057600080fd5b5061001a3361001f565b61006f565b600080546001600160a01b038381166001600160a01b0319831681178455604051919092169283917f8be0079c531659141344cd1fd0a4f28419497f9722a3daafe3b4186f6b6457e09190a35050565b6114268061007e6000396000f3fe608060405234801561001057600080fd5b50600436106100c85760003560e01c806365ece3e911610081578063b0c8f9dc1161005b578063b0c8f9dc14610176578063c53936b114610189578063f2fde38b1461019c57600080fd5b806365ece3e91461013e578063715018a6146101465780638da5cb5b1461014e57600080fd5b80632763b63c116100b25780632763b63c1461010b5780633851e5e41461012c57806352efea6e1461013457600080fd5b806253a5c7146100cd57806325a1f8f7146100f6575b600080fd5b6100e06100db366004610c40565b6101af565b6040516100ed9190610d9c565b60405180910390f35b6100fe61026f565b6040516100ed9190610db6565b61011e610119366004610ec1565b610367565b6040519081526020016100ed565b6100e061041f565b61013c61042e565b005b6100e0610440565b61013c6104f6565b60005460405173ffffffffffffffffffffffffffffffffffffffff90911681526020016100ed565b61011e610184366004610efe565b610508565b61013c610197366004610f33565b610580565b61013c6101aa366004610f97565b6107ef565b6040517f20134c5c00000000000000000000000000000000000000000000000000000000815260609073__$6d7f79f7096847e2518d2fcd7c807cddfd$__906320134c5c90610224907fd6bd814cc1bc4b2e2e963d75e86b66330979dafa58695edbdc535ed90fc5986390869060040161107e565b600060405180830381865af4158015610241573d6000803e3d6000fd5b505050506040513d6000823e601f3d908101601f19168201604052610269919081019061117b565b92915050565b60607fd6bd814cc1bc4b2e2e963d75e86b66330979dafa58695edbdc535ed90fc59863805480602002602001604051908101604052809291908181526020016000905b8282101561035e5783829060005260206000200180546102d190610fcd565b80601f01602080910402602001604051908101604052809291908181526020018280546102fd90610fcd565b801561034a5780601f1061031f5761010080835404028352916020019161034a565b820191906000526020600020905b81548152906001019060200180831161032d57829003601f168201915b5050505050815260200190600101906102b2565b50505050905090565b600061037161088c565b60005b82518110156103b25761039f838281518110610392576103926111f2565b60200260200101516108f3565b50806103aa81611208565b915050610374565b505080517fd6bd814cc1bc4b2e2e963d75e86b66330979dafa58695edbdc535ed90fc5986230337f2feaa7d3b0dd621e7cad5cfc3691f0dd694e4df1ec0cacdaa75168f732a5429c83610403610955565b604051610411929190611230565b60405180910390a350919050565b6060610429610955565b905090565b61043661088c565b61043e610a09565b565b7fd6bd814cc1bc4b2e2e963d75e86b66330979dafa58695edbdc535ed90fc59862805460609190819061047290610fcd565b80601f016020809104026020016040519081016040528092919081815260200182805461049e90610fcd565b80156104eb5780601f106104c0576101008083540402835291602001916104eb565b820191906000526020600020905b8154815290600101906020018083116104ce57829003601f168201915b505050505091505090565b6104fe61088c565b61043e6000610a34565b600061051261088c565b61051b826108f3565b905030337f06655b3acec5ad67072e7d20045a297095f255f96184d146a1b1604362507a037fd6bd814cc1bc4b2e2e963d75e86b66330979dafa58695edbdc535ed90fc5985e60405161057391600401908790611230565b60405180910390a3919050565b6000547501000000000000000000000000000000000000000000900460ff16158080156105cb575060005460017401000000000000000000000000000000000000000090910460ff16105b806105fd5750303b1580156105fd575060005474010000000000000000000000000000000000000000900460ff166001145b6106745760405162461bcd60e51b815260206004820152602e60248201527f496e697469616c697a61626c653a20636f6e747261637420697320616c72656160448201527f647920696e697469616c697a656400000000000000000000000000000000000060648201526084015b60405180910390fd5b600080547fffffffffffffffffffffff00ffffffffffffffffffffffffffffffffffffffff167401000000000000000000000000000000000000000017905580156106fa57600080547fffffffffffffffffffff00ffffffffffffffffffffffffffffffffffffffffff1675010000000000000000000000000000000000000000001790555b7fd6bd814cc1bc4b2e2e963d75e86b66330979dafa58695edbdc535ed90fc598628061072685826112a3565b5060005b83518110156107855781600101848281518110610749576107496111f2565b6020908102919091018101518254600181018455600093845291909220019061077290826112a3565b508061077d81611208565b91505061072a565b505080156107ea57600080547fffffffffffffffffffff00ffffffffffffffffffffffffffffffffffffffffff169055604051600181527f7f26b83ff96e1f2b6a682f133852f6798a09c465da95921460cefb38474024989060200160405180910390a15b505050565b6107f761088c565b73ffffffffffffffffffffffffffffffffffffffff81166108805760405162461bcd60e51b815260206004820152602660248201527f4f776e61626c653a206e6577206f776e657220697320746865207a65726f206160448201527f6464726573730000000000000000000000000000000000000000000000000000606482015260840161066b565b61088981610a34565b50565b60005473ffffffffffffffffffffffffffffffffffffffff16331461043e5760405162461bcd60e51b815260206004820181905260248201527f4f776e61626c653a2063616c6c6572206973206e6f7420746865206f776e6572604482015260640161066b565b7fd6bd814cc1bc4b2e2e963d75e86b66330979dafa58695edbdc535ed90fc5986380546001810182556000919091527fed06d2150f13cde0363cec0281f53ae553aa71beb1921caab2449a88e09f1db0810161094f83826112a3565b50919050565b60408051602081019091526000808252606091905b7fd6bd814cc1bc4b2e2e963d75e86b66330979dafa58695edbdc535ed90fc598635481101561094f57817fd6bd814cc1bc4b2e2e963d75e86b66330979dafa58695edbdc535ed90fc5985e6005018054839081106109ca576109ca6111f2565b906000526020600020016040516020016109e5929190611363565b60405160208183030381529060405291508080610a0190611208565b91505061096a565b61043e7fd6bd814cc1bc4b2e2e963d75e86b66330979dafa58695edbdc535ed90fc598636000610aa9565b6000805473ffffffffffffffffffffffffffffffffffffffff8381167fffffffffffffffffffffffff0000000000000000000000000000000000000000831681178455604051919092169283917f8be0079c531659141344cd1fd0a4f28419497f9722a3daafe3b4186f6b6457e09190a35050565b508054600082559060005260206000209081019061088991905b80821115610ae0576000610ad78282610ae4565b50600101610ac3565b5090565b508054610af090610fcd565b6000825580601f10610b00575050565b601f01602090049060005260206000209081019061088991905b80821115610ae05760008155600101610b1a565b634e487b7160e01b600052604160045260246000fd5b6040805190810167ffffffffffffffff81118282101715610b6757610b67610b2e565b60405290565b604051601f8201601f1916810167ffffffffffffffff81118282101715610b9657610b96610b2e565b604052919050565b600067ffffffffffffffff821115610bb857610bb8610b2e565b5060051b60200190565b600067ffffffffffffffff821115610bdc57610bdc610b2e565b50601f01601f191660200190565b600082601f830112610bfb57600080fd5b8135610c0e610c0982610bc2565b610b6d565b818152846020838601011115610c2357600080fd5b816020850160208301376000918101602001919091529392505050565b60006020808385031215610c5357600080fd5b823567ffffffffffffffff80821115610c6b57600080fd5b818501915085601f830112610c7f57600080fd5b8135610c8d610c0982610b9e565b81815260059190911b83018401908481019088831115610cac57600080fd5b8585015b83811015610d3f57803585811115610cc85760008081fd5b86016040818c03601f1901811315610ce05760008081fd5b610ce8610b44565b8983013588811115610cfa5760008081fd5b610d088e8c83870101610bea565b825250908201359087821115610d1e5760008081fd5b610d2c8d8b84860101610bea565b818b015285525050918601918601610cb0565b5098975050505050505050565b60005b83811015610d67578181015183820152602001610d4f565b50506000910152565b60008151808452610d88816020860160208601610d4c565b601f01601f19169290920160200192915050565b602081526000610daf6020830184610d70565b9392505050565b6000602080830181845280855180835260408601915060408160051b870101925083870160005b82811015610e29577fffffffffffffffffffffffffffffffffffffffffffffffffffffffffffffffc0888603018452610e17858351610d70565b94509285019290850190600101610ddd565b5092979650505050505050565b600082601f830112610e4757600080fd5b81356020610e57610c0983610b9e565b82815260059290921b84018101918181019086841115610e7657600080fd5b8286015b84811015610eb657803567ffffffffffffffff811115610e9a5760008081fd5b610ea88986838b0101610bea565b845250918301918301610e7a565b509695505050505050565b600060208284031215610ed357600080fd5b813567ffffffffffffffff811115610eea57600080fd5b610ef684828501610e36565b949350505050565b600060208284031215610f1057600080fd5b813567ffffffffffffffff811115610f2757600080fd5b610ef684828501610bea565b60008060408385031215610f4657600080fd5b823567ffffffffffffffff80821115610f5e57600080fd5b610f6a86838701610bea565b93506020850135915080821115610f8057600080fd5b50610f8d85828601610e36565b9150509250929050565b600060208284031215610fa957600080fd5b813573ffffffffffffffffffffffffffffffffffffffff81168114610daf57600080fd5b600181811c90821680610fe157607f821691505b60208210810361094f57634e487b7160e01b600052602260045260246000fd5b6000815461100e81610fcd565b80855260206001838116801561102b576001811461104557611073565b60ff198516838901528284151560051b8901019550611073565b866000528260002060005b8581101561106b5781548a8201860152908301908401611050565b890184019650505b505050505092915050565b6000604080830181845280865480835260608601915060608160051b87010192508760005260208060002060005b838110156110f7577fffffffffffffffffffffffffffffffffffffffffffffffffffffffffffffffa08987030185526110e58683611001565b955093820193600191820191016110ac565b505086840381880152875180855281850193509150600582901b8401810188820160005b8481101561116b57601f198784030186528151805189855261113f8a860182610d70565b91860151858303868801529190506111578183610d70565b97860197945050509083019060010161111b565b50909a9950505050505050505050565b60006020828403121561118d57600080fd5b815167ffffffffffffffff8111156111a457600080fd5b8201601f810184136111b557600080fd5b80516111c3610c0982610bc2565b8181528560208385010111156111d857600080fd5b6111e9826020830160208601610d4c565b95945050505050565b634e487b7160e01b600052603260045260246000fd5b6000600019820361122957634e487b7160e01b600052601160045260246000fd5b5060010190565b6040815260006112436040830185611001565b82810360208401526111e98185610d70565b601f8211156107ea57600081815260208120601f850160051c8101602086101561127c5750805b601f850160051c820191505b8181101561129b57828155600101611288565b505050505050565b815167ffffffffffffffff8111156112bd576112bd610b2e565b6112d1816112cb8454610fcd565b84611255565b602080601f83116001811461130657600084156112ee5750858301515b600019600386901b1c1916600185901b17855561129b565b600085815260208120601f198616915b8281101561133557888601518255948401946001909101908401611316565b50858210156113535787850151600019600388901b60f8161c191681555b5050505050600190811b01905550565b6000835160206113768285838901610d4c565b81840191506000855461138881610fcd565b600182811680156113a057600181146113b5576113e1565b60ff19841687528215158302870194506113e1565b896000528560002060005b848110156113d9578154898201529083019087016113c0565b505082870194505b5092999850505050505050505056fea264697066735822122034337346c55d5425adf14088dbb6f93514ad28d07c4d3e6d72a6a0354c1a336c64736f6c63430008110033a26469706673582212206d3867bfb4169fde4a4a08578024ef23c4e95f0e3a34caa03c9375efb1f601b664736f6c63430008110033",
  "libraries": {
    "AddressSet": "0x99D84A2aA566300d09323EE12ad120177B7654bA",
    "AttributeLib": "0x929098055005A237C806Df3e2dC0E9B07390D83D",
    "Base64": "0x672911b00d6E0d0f6959A1726B4960090a357a4f",
    "Bytes32Set": "0xdDe75BdD8C22C231325997274D523aa0588648cf",
    "ClaimStorageLib": "0xd7b49da1a4b6f5f847367934d205267069E79772",
    "ClaimTopicLib": "0x74F75CF7495D01F851E49c9e0b6cfA1E4e874940",
    "DiamondFactoryLib": "0xf718448Cc7F47f8A41Df4369B3DB85654c895dA8",
    "DiamondLib": "0xe6b068a7e6129Ca173Ea322B7Eaa97F1A4d6ebBC",
    "ERC721AEnumerationLib": "0x2F25585979FD3EAda22229F7Cf1c41D59D2AA6e8",
    "ERC721ALib": "0x2C0A3c204108b7432d6378Fa52070Afa63a40785",
    "IdentityLib": "0x53709DA9782E836FB703Dd3E5d34B83a17da2773",
    "LibDiamond": "0x71c73a51f4Ab21532035DDCfc11656AbBF0c3a42",
    "MetadataLib": "0x17276309aca9bb8272367aB843d0E869405Dd5B6",
    "StringsLib": "0x09a89Cfbdbe53e34fF1E919006a47d12a6aABd40",
    "Strings": "0xE0e88D1dFaf4Bf95dAFB567fE65862827849AAbE",
    "SVGTemplatesLib": "0x318B833110D5d0DEB641bF3bd723DDc830BbBBd8",
    "TrustedIssuerLib": "0x0f367e5aa7a7f9a004ae37BC3c2e66A09FF95DA8",
    "UInt256Set": "0x8d8632635555c6c20F54a1b0b4A79b7A69f04026"
  },
  "devdoc": {
    "kind": "dev",
    "methods": {
      "addController(address)": {
        "details": "Add an address allowed to control this contract"
      },
      "isController(address)": {
        "details": "Check if this address is a controller"
      },
      "relinquishControl()": {
        "details": "Remove the sender address from the list of controllers"
      }
    },
    "version": 1
  },
  "userdoc": {
    "events": {
      "ControllerAdded(address,address)": {
        "notice": "emitted when a controller is added."
      },
      "ControllerRemoved(address,address)": {
        "notice": "emitted when a controller is removed."
      }
    },
    "kind": "user",
    "methods": {
      "createSVG(address,string)": {
        "notice": "add a new gem pool"
      },
      "svgAddress(string)": {
        "notice": "get the svg address of the given svg name. does not mean the file exists"
      },
      "svgString(string)": {
        "notice": "get the svg data of the given svg name as a string"
      },
      "svgs()": {
        "notice": "get all the svg namea in the contract"
      }
    },
    "version": 1
  },
  "storageLayout": {
    "storage": [
      {
        "astId": 22883,
        "contract": "src/utilities/SVGManager.sol:SVGManager",
        "label": "_controllers",
        "offset": 0,
        "slot": "0",
        "type": "t_mapping(t_address,t_bool)"
      }
    ],
    "types": {
      "t_address": {
        "encoding": "inplace",
        "label": "address",
        "numberOfBytes": "20"
      },
      "t_bool": {
        "encoding": "inplace",
        "label": "bool",
        "numberOfBytes": "1"
      },
      "t_mapping(t_address,t_bool)": {
        "encoding": "mapping",
        "key": "t_address",
        "label": "mapping(address => bool)",
        "numberOfBytes": "32",
        "value": "t_bool"
      }
    }
  }
}