{
  "address": "0x30566a7A7Eac40390103f102Be431364182Fc67D",
  "abi": [
    {
      "anonymous": false,
      "inputs": [
        {
          "indexed": false,
          "internalType": "string",
          "name": "name",
          "type": "string"
        },
        {
          "indexed": false,
          "internalType": "address",
          "name": "template",
          "type": "address"
        }
      ],
      "name": "SVGTemplateCreated",
      "type": "event"
    },
    {
      "inputs": [
        {
          "internalType": "string",
          "name": "_name",
          "type": "string"
        }
      ],
      "name": "createSVG",
      "outputs": [
        {
          "internalType": "address",
          "name": "_tplAddress",
          "type": "address"
        }
      ],
      "stateMutability": "nonpayable",
      "type": "function"
    },
    {
      "inputs": [
        {
          "internalType": "address",
          "name": "_manager",
          "type": "address"
        }
      ],
      "name": "setSVGManager",
      "outputs": [],
      "stateMutability": "nonpayable",
      "type": "function"
    },
    {
      "inputs": [
        {
          "internalType": "string",
          "name": "_name",
          "type": "string"
        }
      ],
      "name": "svgAddress",
      "outputs": [
        {
          "internalType": "address",
          "name": "_svgAddress",
          "type": "address"
        }
      ],
      "stateMutability": "view",
      "type": "function"
    },
    {
      "inputs": [
        {
          "internalType": "string",
          "name": "_name",
          "type": "string"
        }
      ],
      "name": "svgString",
      "outputs": [
        {
          "internalType": "string",
          "name": "data_",
          "type": "string"
        }
      ],
      "stateMutability": "view",
      "type": "function"
    },
    {
      "inputs": [],
      "name": "svgs",
      "outputs": [
        {
          "internalType": "string[]",
          "name": "",
          "type": "string[]"
        }
      ],
      "stateMutability": "view",
      "type": "function"
    }
  ],
  "transactionHash": "0xd511b3b466e544953adba505be0be21e991e55fe6d065ada7e8be370c37a2557",
  "args": [],
  "numDeployments": 1,
  "solcInputHash": "dbcfcf842e810514aedd8e426522bfbb",
  "bytecode": "0x608060405234801561001057600080fd5b5061092c806100206000396000f3fe608060405234801561001057600080fd5b50600436106100675760003560e01c80631f2cd4c6116100505780631f2cd4c6146100b1578063719acbd4146100d157806393327929146100e457600080fd5b80630e60927a1461006c5780631373d4e81461009c575b600080fd5b61007f61007a3660046105da565b6100f9565b6040516001600160a01b0390911681526020015b60405180910390f35b6100a46101ac565b60405161009391906106aa565b6100c46100bf3660046105da565b61025f565b604051610093919061072a565b61007f6100df3660046105da565b61030f565b6100f76100f2366004610755565b61044d565b005b7fd6bd814cc1bc4b2e2e963d75e86b66330979dafa58695edbdc535ed90fc59861546040517f0e60927a0000000000000000000000000000000000000000000000000000000081526000916001600160a01b0316908190630e60927a9061016490869060040161072a565b602060405180830381865afa158015610181573d6000803e3d6000fd5b505050506040513d601f19601f820116820180604052508101906101a59190610772565b9392505050565b7fd6bd814cc1bc4b2e2e963d75e86b66330979dafa58695edbdc535ed90fc5986154604080517f1373d4e800000000000000000000000000000000000000000000000000000000815290516060926001600160a01b0316918291631373d4e8916004808201926000929091908290030181865afa158015610231573d6000803e3d6000fd5b505050506040513d6000823e601f3d908101601f1916820160405261025991908101906107dc565b91505090565b7fd6bd814cc1bc4b2e2e963d75e86b66330979dafa58695edbdc535ed90fc59861546040517f1f2cd4c60000000000000000000000000000000000000000000000000000000081526060916001600160a01b0316908190631f2cd4c6906102ca90869060040161072a565b600060405180830381865afa1580156102e7573d6000803e3d6000fd5b505050506040513d6000823e601f3d908101601f191682016040526101a5919081019061089f565b6000336103437fc8fcad8db84d3cc18b4c41d551ea0ee66dd599cde068d998e57d5e09332c1320546001600160a01b031690565b6001600160a01b0316148061035757503033145b6103c2576040517f08c379a000000000000000000000000000000000000000000000000000000000815260206004820152601f60248201527f6e6f7420617574686f72697a656420746f2063616c6c2066756e6374696f6e0060448201526064015b60405180910390fd5b7fd6bd814cc1bc4b2e2e963d75e86b66330979dafa58695edbdc535ed90fc59861546040517f642cd0910000000000000000000000000000000000000000000000000000000081526001600160a01b0390911690819063642cd0919061042e90339087906004016108d4565b6020604051808303816000875af1158015610181573d6000803e3d6000fd5b3361047f7fc8fcad8db84d3cc18b4c41d551ea0ee66dd599cde068d998e57d5e09332c1320546001600160a01b031690565b6001600160a01b0316148061049357503033145b6104f9576040517f08c379a000000000000000000000000000000000000000000000000000000000815260206004820152601f60248201527f6e6f7420617574686f72697a656420746f2063616c6c2066756e6374696f6e0060448201526064016103b9565b7fd6bd814cc1bc4b2e2e963d75e86b66330979dafa58695edbdc535ed90fc5986180547fffffffffffffffffffffffff0000000000000000000000000000000000000000166001600160a01b0392909216919091179055565b7f4e487b7100000000000000000000000000000000000000000000000000000000600052604160045260246000fd5b604051601f8201601f1916810167ffffffffffffffff811182821017156105aa576105aa610552565b604052919050565b600067ffffffffffffffff8211156105cc576105cc610552565b50601f01601f191660200190565b6000602082840312156105ec57600080fd5b813567ffffffffffffffff81111561060357600080fd5b8201601f8101841361061457600080fd5b8035610627610622826105b2565b610581565b81815285602083850101111561063c57600080fd5b81602084016020830137600091810160200191909152949350505050565b60005b8381101561067557818101518382015260200161065d565b50506000910152565b6000815180845261069681602086016020860161065a565b601f01601f19169290920160200192915050565b6000602080830181845280855180835260408601915060408160051b870101925083870160005b8281101561071d577fffffffffffffffffffffffffffffffffffffffffffffffffffffffffffffffc088860301845261070b85835161067e565b945092850192908501906001016106d1565b5092979650505050505050565b6020815260006101a5602083018461067e565b6001600160a01b038116811461075257600080fd5b50565b60006020828403121561076757600080fd5b81356101a58161073d565b60006020828403121561078457600080fd5b81516101a58161073d565b600082601f8301126107a057600080fd5b81516107ae610622826105b2565b8181528460208386010111156107c357600080fd5b6107d482602083016020870161065a565b949350505050565b600060208083850312156107ef57600080fd5b825167ffffffffffffffff8082111561080757600080fd5b818501915085601f83011261081b57600080fd5b81518181111561082d5761082d610552565b8060051b61083c858201610581565b918252838101850191858101908984111561085657600080fd5b86860192505b83831015610892578251858111156108745760008081fd5b6108828b89838a010161078f565b835250918601919086019061085c565b9998505050505050505050565b6000602082840312156108b157600080fd5b815167ffffffffffffffff8111156108c857600080fd5b6107d48482850161078f565b6001600160a01b03831681526040602082015260006107d4604083018461067e56fea264697066735822122084a606e638bf780d0ab2956b5953879b5b83e343008237f044d430ac21eada6564736f6c63430008110033",
  "libraries": {
    "AddressSet": "0xe816f9c968c92bef011eabc25bb1e062f23f0ce3",
    "AttributeLib": "0x54b27B50D22583c3F8D44062105fa3746092F98D",
    "Base64": "0x18f7751ECdE5e9A20F7ba3b3E6419e5486dce02C",
    "Bytes32Set": "0xF8cF9DDd669304191Db084053CB0CB2B996721A8",
    "ClaimStorageLib": "0xb355293012312F75756CE66d5D6208D50E9570D9",
    "ClaimTopicLib": "0xfA5F92fB7D658b83Bd8eb891CFa1de03B2dE6ca0",
    "DiamondFactoryLib": "0x5e3a72a725e885D3297Df110fed8513c1A89590F",
    "DiamondLib": "0xfF3811e752E2fB8ca0192Ac977ec7EE0154C27D7",
    "ERC721AEnumerationLib": "0x3862fD7Aee0687c461D40A3c6AbaD9bD9F15e6c4",
    "ERC721ALib": "0x185d29cB9B14a6EA5d114534EF1A99C205d13204",
    "IdentityLib": "0x8187074C0542Adc6f8679958106A546F2Ac498cc",
    "LibDiamond": "0x0ef6EE0407615E57bC04bF16C21a9aeA1530f650",
    "MetadataLib": "0xFFa8D07fA502AbD668CFdba501999F3074f1a78c",
    "StringsLib": "0xfe30ea7bcFa85debB8FC3c8AA925ebEb22011b6f",
    "Strings": "0x9fF441f16e0163DCa2109c376d15348b3001232D",
    "SVGTemplatesLib": "0xB66E75ed2C1202b29F37e862e00CdA37B4edA8A3",
    "TrustedIssuerLib": "0x2DE50b277A2b56220F676E9C84524f9c3fdc12F3",
    "UInt256Set": "0xCA610CCce4b2aB25Adc1072a0C21df42320478A3",
    "IdentityFactory": "0xEA0f9DE12192E09bA196a2819081c196BAc99104"
  },
  "devdoc": {
    "kind": "dev",
    "methods": {
      "createSVG(string)": {
        "params": {
          "_name": "the name of the svg",
          "_tplAddress": "the svg data as a string"
        }
      },
      "setSVGManager(address)": {
        "params": {
          "_manager": "the address of the svg manager"
        }
      },
      "svgAddress(string)": {
        "params": {
          "_name": "the name of the svg"
        },
        "returns": {
          "_svgAddress": "the address of the svg"
        }
      },
      "svgString(string)": {
        "params": {
          "_name": "the name of the svg"
        },
        "returns": {
          "data_": "the svg data as a string"
        }
      },
      "svgs()": {
        "returns": {
          "_0": "the names of the svgs"
        }
      }
    },
    "title": "SVGTemplatesFacet",
    "version": 1
  },
  "userdoc": {
    "kind": "user",
    "methods": {
      "createSVG(string)": {
        "notice": "add a new svg template and return the template address to the caller"
      },
      "setSVGManager(address)": {
        "notice": "set the svg manager"
      },
      "svgAddress(string)": {
        "notice": "get the svg address of the given svg name. does not mean the file exists."
      },
      "svgString(string)": {
        "notice": "get the svg data of the given svg name as a string"
      },
      "svgs()": {
        "notice": "get all the svgs stored in the contract"
      }
    },
    "notice": "This contract is used to create and manage SVG templates",
    "version": 1
  },
  "storageLayout": {
    "storage": [],
    "types": null
  }
}