{
  "address": "0xe63f1d64eC975e617C23a2f444F2540c0843c3eE",
  "abi": [
    {
      "anonymous": false,
      "inputs": [
        {
          "indexed": true,
          "internalType": "address",
          "name": "trustedIssuer",
          "type": "address"
        },
        {
          "indexed": false,
          "internalType": "uint256[]",
          "name": "claimTopics",
          "type": "uint256[]"
        }
      ],
      "name": "ClaimTopicsUpdated",
      "type": "event"
    },
    {
      "anonymous": false,
      "inputs": [
        {
          "indexed": true,
          "internalType": "address",
          "name": "trustedIssuer",
          "type": "address"
        },
        {
          "indexed": false,
          "internalType": "uint256[]",
          "name": "claimTopics",
          "type": "uint256[]"
        }
      ],
      "name": "TrustedIssuerAdded",
      "type": "event"
    },
    {
      "anonymous": false,
      "inputs": [
        {
          "indexed": true,
          "internalType": "address",
          "name": "trustedIssuer",
          "type": "address"
        }
      ],
      "name": "TrustedIssuerRemoved",
      "type": "event"
    },
    {
      "inputs": [
        {
          "internalType": "address",
          "name": "_trustedIssuer",
          "type": "address"
        },
        {
          "internalType": "uint256[]",
          "name": "_claimTopics",
          "type": "uint256[]"
        }
      ],
      "name": "addTrustedIssuer",
      "outputs": [],
      "stateMutability": "nonpayable",
      "type": "function"
    },
    {
      "inputs": [
        {
          "internalType": "address",
          "name": "issuerAddress",
          "type": "address"
        }
      ],
      "name": "getTrustedIssuer",
      "outputs": [
        {
          "components": [
            {
              "internalType": "address",
              "name": "claimIssuer",
              "type": "address"
            },
            {
              "internalType": "uint256[]",
              "name": "claimTopics",
              "type": "uint256[]"
            }
          ],
          "internalType": "struct TrustedIssuer",
          "name": "",
          "type": "tuple"
        }
      ],
      "stateMutability": "view",
      "type": "function"
    },
    {
      "inputs": [
        {
          "internalType": "address",
          "name": "_trustedIssuer",
          "type": "address"
        }
      ],
      "name": "getTrustedIssuerClaimTopics",
      "outputs": [
        {
          "internalType": "uint256[]",
          "name": "",
          "type": "uint256[]"
        }
      ],
      "stateMutability": "view",
      "type": "function"
    },
    {
      "inputs": [],
      "name": "getTrustedIssuers",
      "outputs": [
        {
          "components": [
            {
              "internalType": "address",
              "name": "claimIssuer",
              "type": "address"
            },
            {
              "internalType": "uint256[]",
              "name": "claimTopics",
              "type": "uint256[]"
            }
          ],
          "internalType": "struct TrustedIssuer[]",
          "name": "",
          "type": "tuple[]"
        }
      ],
      "stateMutability": "view",
      "type": "function"
    },
    {
      "inputs": [
        {
          "internalType": "address",
          "name": "_issuer",
          "type": "address"
        },
        {
          "internalType": "uint256",
          "name": "_claimTopic",
          "type": "uint256"
        }
      ],
      "name": "hasClaimTopic",
      "outputs": [
        {
          "internalType": "bool",
          "name": "",
          "type": "bool"
        }
      ],
      "stateMutability": "view",
      "type": "function"
    },
    {
      "inputs": [
        {
          "internalType": "address",
          "name": "_issuer",
          "type": "address"
        }
      ],
      "name": "isTrustedIssuer",
      "outputs": [
        {
          "internalType": "bool",
          "name": "",
          "type": "bool"
        }
      ],
      "stateMutability": "view",
      "type": "function"
    },
    {
      "inputs": [
        {
          "internalType": "address",
          "name": "_trustedIssuer",
          "type": "address"
        }
      ],
      "name": "removeTrustedIssuer",
      "outputs": [],
      "stateMutability": "nonpayable",
      "type": "function"
    },
    {
      "inputs": [
        {
          "internalType": "address",
          "name": "issuerAddress",
          "type": "address"
        },
        {
          "components": [
            {
              "internalType": "address",
              "name": "claimIssuer",
              "type": "address"
            },
            {
              "internalType": "uint256[]",
              "name": "claimTopics",
              "type": "uint256[]"
            }
          ],
          "internalType": "struct TrustedIssuer",
          "name": "trustedIssuer",
          "type": "tuple"
        }
      ],
      "name": "setTrustedIssuer",
      "outputs": [],
      "stateMutability": "nonpayable",
      "type": "function"
    },
    {
      "inputs": [
        {
          "internalType": "address",
          "name": "_trustedIssuer",
          "type": "address"
        },
        {
          "internalType": "uint256[]",
          "name": "_claimTopics",
          "type": "uint256[]"
        }
      ],
      "name": "updateIssuerClaimTopics",
      "outputs": [],
      "stateMutability": "nonpayable",
      "type": "function"
    }
  ],
  "transactionHash": "0x8c5de27c9d99d19d263143e16e0cd39555cc66993b9a0c4634da5c00b271b2eb",
  "args": [],
  "numDeployments": 1,
  "solcInputHash": "db7be833eb31146ace18bf1ce65f8bcb",
  "bytecode": "0x608060405234801561001057600080fd5b50610f32806100206000396000f3fe608060405234801561001057600080fd5b50600436106100a35760003560e01c8063b93d28eb11610076578063d21f20651161005b578063d21f20651461014f578063d9dd24c514610162578063ef2ed1a41461017757600080fd5b8063b93d28eb1461011c578063c28fb2781461012f57600080fd5b806304bc7e84146100a85780631fe8b2d0146100bd57806334a89987146100e65780639f63ea9814610109575b600080fd5b6100bb6100b6366004610a69565b61018a565b005b6100d06100cb366004610aef565b6101bd565b6040516100dd9190610b6a565b60405180910390f35b6100f96100f4366004610b7d565b610204565b60405190151581526020016100dd565b6100bb610117366004610a69565b6102a3565b6100bb61012a366004610aef565b610381565b61014261013d366004610aef565b61045c565b6040516100dd9190610ba7565b6100bb61015d366004610c7f565b6104fe565b61016a61052f565b6040516100dd9190610d6d565b6100f9610185366004610aef565b610561565b7fcb4ddd6b6517b610f6735ef98143f8a0f586e598ccc77ed29d967b7a6b5e83676101b7818585856105a4565b50505050565b6040805180820190915260008152606060208201527fcb4ddd6b6517b610f6735ef98143f8a0f586e598ccc77ed29d967b7a6b5e83676101fd81846105fc565b9392505050565b6040517f34a899870000000000000000000000000000000000000000000000000000000081526001600160a01b0383166004820152602481018290526000907324657fBB0f8Ed0961Ea034250D06b6e71231b277906334a8998790604401602060405180830381865af415801561027f573d6000803e3d6000fd5b505050506040513d601f19601f820116820180604052508101906101fd9190610ded565b336102d57fc8fcad8db84d3cc18b4c41d551ea0ee66dd599cde068d998e57d5e09332c1320546001600160a01b031690565b6001600160a01b031614806102e957503033145b610354576040517f08c379a000000000000000000000000000000000000000000000000000000000815260206004820152601f60248201527f6e6f7420617574686f72697a656420746f2063616c6c2066756e6374696f6e0060448201526064015b60405180910390fd5b7fcb4ddd6b6517b610f6735ef98143f8a0f586e598ccc77ed29d967b7a6b5e83676101b7818585856106b9565b336103b37fc8fcad8db84d3cc18b4c41d551ea0ee66dd599cde068d998e57d5e09332c1320546001600160a01b031690565b6001600160a01b031614806103c757503033145b61042d576040517f08c379a000000000000000000000000000000000000000000000000000000000815260206004820152601f60248201527f6e6f7420617574686f72697a656420746f2063616c6c2066756e6374696f6e00604482015260640161034b565b7fcb4ddd6b6517b610f6735ef98143f8a0f586e598ccc77ed29d967b7a6b5e83676104588183610737565b5050565b6040517fc28fb2780000000000000000000000000000000000000000000000000000000081526001600160a01b03821660048201526060907324657fBB0f8Ed0961Ea034250D06b6e71231b2779063c28fb27890602401600060405180830381865af41580156104d0573d6000803e3d6000fd5b505050506040513d6000823e601f3d908101601f191682016040526104f89190810190610e0f565b92915050565b7fcb4ddd6b6517b610f6735ef98143f8a0f586e598ccc77ed29d967b7a6b5e836761052a818484610778565b505050565b60607fcb4ddd6b6517b610f6735ef98143f8a0f586e598ccc77ed29d967b7a6b5e836761055b81610875565b91505090565b6001600160a01b0380821660009081527fcb4ddd6b6517b610f6735ef98143f8a0f586e598ccc77ed29d967b7a6b5e8367602052604081205490911615156104f8565b60006105b085856105fc565b905082828080602002602001604051908101604052809392919081815260200183836020028082843760009201919091525050505060208201526105f5858583610778565b5050505050565b6040805180820190915260008152606060208201527fcb4ddd6b6517b610f6735ef98143f8a0f586e598ccc77ed29d967b7a6b5e83676001600160a01b038084166000908152602092835260409081902081518083018352815490931683526001810180548351818702810187019094528084529394919385830193928301828280156106a857602002820191906000526020600020905b815481526020019060010190808311610694575b505050505081525050905092915050565b60006040518060400160405280856001600160a01b03168152602001848480806020026020016040519081016040528093929190818152602001838360200280828437600092019190915250505091525090506105f57fcb4ddd6b6517b610f6735ef98143f8a0f586e598ccc77ed29d967b7a6b5e83678583610778565b6001600160a01b0381166000908152602083905260408120805473ffffffffffffffffffffffffffffffffffffffff19168155906101b760018301826109cc565b6001600160a01b03828116600090815260208590526040902054166107d45760018381018054918201815560009081526020902001805473ffffffffffffffffffffffffffffffffffffffff19166001600160a01b0384161790555b6001600160a01b038281166000908152602085815260409091208351815473ffffffffffffffffffffffffffffffffffffffff1916931692909217825582810151805184939261082b9260018501929101906109ed565b50905050816001600160a01b03167f7f2dd682796354e23322812d813709f1a1a35bc597a4867a561303713782849b826040516108689190610b6a565b60405180910390a2505050565b600181015460609067ffffffffffffffff81111561089557610895610beb565b6040519080825280602002602001820160405280156108db57816020015b6040805180820190915260008152606060208201528152602001906001900390816108b35790505b50905060005b60018301548110156109c65782600001600084600101838154811061090857610908610ea0565b60009182526020808320909101546001600160a01b039081168452838201949094526040928301909120825180840184528154909416845260018101805484518185028101850190955280855291938584019390929083018282801561098d57602002820191906000526020600020905b815481526020019060010190808311610979575b5050505050815250508282815181106109a8576109a8610ea0565b602002602001018190525080806109be90610eb6565b9150506108e1565b50919050565b50805460008255906000526020600020908101906109ea9190610a38565b50565b828054828255906000526020600020908101928215610a28579160200282015b82811115610a28578251825591602001919060010190610a0d565b50610a34929150610a38565b5090565b5b80821115610a345760008155600101610a39565b80356001600160a01b0381168114610a6457600080fd5b919050565b600080600060408486031215610a7e57600080fd5b610a8784610a4d565b9250602084013567ffffffffffffffff80821115610aa457600080fd5b818601915086601f830112610ab857600080fd5b813581811115610ac757600080fd5b8760208260051b8501011115610adc57600080fd5b6020830194508093505050509250925092565b600060208284031215610b0157600080fd5b6101fd82610a4d565b6000604083016001600160a01b0383511684526020808401516040828701528281518085526060880191508383019450600092505b80831015610b5f5784518252938301936001929092019190830190610b3f565b509695505050505050565b6020815260006101fd6020830184610b0a565b60008060408385031215610b9057600080fd5b610b9983610a4d565b946020939093013593505050565b6020808252825182820181905260009190848201906040850190845b81811015610bdf57835183529284019291840191600101610bc3565b50909695505050505050565b634e487b7160e01b600052604160045260246000fd5b6040805190810167ffffffffffffffff81118282101715610c2457610c24610beb565b60405290565b604051601f8201601f1916810167ffffffffffffffff81118282101715610c5357610c53610beb565b604052919050565b600067ffffffffffffffff821115610c7557610c75610beb565b5060051b60200190565b60008060408385031215610c9257600080fd5b610c9b83610a4d565b915060208084013567ffffffffffffffff80821115610cb957600080fd5b9085019060408288031215610ccd57600080fd5b610cd5610c01565b610cde83610a4d565b81528383013582811115610cf157600080fd5b80840193505087601f840112610d0657600080fd5b82359150610d1b610d1683610c5b565b610c2a565b82815260059290921b83018401918481019089841115610d3a57600080fd5b938501935b83851015610d5857843582529385019390850190610d3f565b80868401525050809450505050509250929050565b6000602080830181845280855180835260408601915060408160051b870101925083870160005b82811015610de0577fffffffffffffffffffffffffffffffffffffffffffffffffffffffffffffffc0888603018452610dce858351610b0a565b94509285019290850190600101610d94565b5092979650505050505050565b600060208284031215610dff57600080fd5b815180151581146101fd57600080fd5b60006020808385031215610e2257600080fd5b825167ffffffffffffffff811115610e3957600080fd5b8301601f81018513610e4a57600080fd5b8051610e58610d1682610c5b565b81815260059190911b82018301908381019087831115610e7757600080fd5b928401925b82841015610e9557835182529284019290840190610e7c565b979650505050505050565b634e487b7160e01b600052603260045260246000fd5b60007fffffffffffffffffffffffffffffffffffffffffffffffffffffffffffffffff8203610ef557634e487b7160e01b600052601160045260246000fd5b506001019056fea26469706673582212202d90ddb2379b7380146e782e7042b2261ae4c9a0c086649f7b14ed847e084fc564736f6c63430008110033",
  "deployedBytecode": "0x608060405234801561001057600080fd5b50600436106100a35760003560e01c8063b93d28eb11610076578063d21f20651161005b578063d21f20651461014f578063d9dd24c514610162578063ef2ed1a41461017757600080fd5b8063b93d28eb1461011c578063c28fb2781461012f57600080fd5b806304bc7e84146100a85780631fe8b2d0146100bd57806334a89987146100e65780639f63ea9814610109575b600080fd5b6100bb6100b6366004610a69565b61018a565b005b6100d06100cb366004610aef565b6101bd565b6040516100dd9190610b6a565b60405180910390f35b6100f96100f4366004610b7d565b610204565b60405190151581526020016100dd565b6100bb610117366004610a69565b6102a3565b6100bb61012a366004610aef565b610381565b61014261013d366004610aef565b61045c565b6040516100dd9190610ba7565b6100bb61015d366004610c7f565b6104fe565b61016a61052f565b6040516100dd9190610d6d565b6100f9610185366004610aef565b610561565b7fcb4ddd6b6517b610f6735ef98143f8a0f586e598ccc77ed29d967b7a6b5e83676101b7818585856105a4565b50505050565b6040805180820190915260008152606060208201527fcb4ddd6b6517b610f6735ef98143f8a0f586e598ccc77ed29d967b7a6b5e83676101fd81846105fc565b9392505050565b6040517f34a899870000000000000000000000000000000000000000000000000000000081526001600160a01b03831660048201526024810182905260009073__$9ff6c2ed2fd52f18960e5593de4fd7f398$__906334a8998790604401602060405180830381865af415801561027f573d6000803e3d6000fd5b505050506040513d601f19601f820116820180604052508101906101fd9190610ded565b336102d57fc8fcad8db84d3cc18b4c41d551ea0ee66dd599cde068d998e57d5e09332c1320546001600160a01b031690565b6001600160a01b031614806102e957503033145b610354576040517f08c379a000000000000000000000000000000000000000000000000000000000815260206004820152601f60248201527f6e6f7420617574686f72697a656420746f2063616c6c2066756e6374696f6e0060448201526064015b60405180910390fd5b7fcb4ddd6b6517b610f6735ef98143f8a0f586e598ccc77ed29d967b7a6b5e83676101b7818585856106b9565b336103b37fc8fcad8db84d3cc18b4c41d551ea0ee66dd599cde068d998e57d5e09332c1320546001600160a01b031690565b6001600160a01b031614806103c757503033145b61042d576040517f08c379a000000000000000000000000000000000000000000000000000000000815260206004820152601f60248201527f6e6f7420617574686f72697a656420746f2063616c6c2066756e6374696f6e00604482015260640161034b565b7fcb4ddd6b6517b610f6735ef98143f8a0f586e598ccc77ed29d967b7a6b5e83676104588183610737565b5050565b6040517fc28fb2780000000000000000000000000000000000000000000000000000000081526001600160a01b038216600482015260609073__$9ff6c2ed2fd52f18960e5593de4fd7f398$__9063c28fb27890602401600060405180830381865af41580156104d0573d6000803e3d6000fd5b505050506040513d6000823e601f3d908101601f191682016040526104f89190810190610e0f565b92915050565b7fcb4ddd6b6517b610f6735ef98143f8a0f586e598ccc77ed29d967b7a6b5e836761052a818484610778565b505050565b60607fcb4ddd6b6517b610f6735ef98143f8a0f586e598ccc77ed29d967b7a6b5e836761055b81610875565b91505090565b6001600160a01b0380821660009081527fcb4ddd6b6517b610f6735ef98143f8a0f586e598ccc77ed29d967b7a6b5e8367602052604081205490911615156104f8565b60006105b085856105fc565b905082828080602002602001604051908101604052809392919081815260200183836020028082843760009201919091525050505060208201526105f5858583610778565b5050505050565b6040805180820190915260008152606060208201527fcb4ddd6b6517b610f6735ef98143f8a0f586e598ccc77ed29d967b7a6b5e83676001600160a01b038084166000908152602092835260409081902081518083018352815490931683526001810180548351818702810187019094528084529394919385830193928301828280156106a857602002820191906000526020600020905b815481526020019060010190808311610694575b505050505081525050905092915050565b60006040518060400160405280856001600160a01b03168152602001848480806020026020016040519081016040528093929190818152602001838360200280828437600092019190915250505091525090506105f57fcb4ddd6b6517b610f6735ef98143f8a0f586e598ccc77ed29d967b7a6b5e83678583610778565b6001600160a01b0381166000908152602083905260408120805473ffffffffffffffffffffffffffffffffffffffff19168155906101b760018301826109cc565b6001600160a01b03828116600090815260208590526040902054166107d45760018381018054918201815560009081526020902001805473ffffffffffffffffffffffffffffffffffffffff19166001600160a01b0384161790555b6001600160a01b038281166000908152602085815260409091208351815473ffffffffffffffffffffffffffffffffffffffff1916931692909217825582810151805184939261082b9260018501929101906109ed565b50905050816001600160a01b03167f7f2dd682796354e23322812d813709f1a1a35bc597a4867a561303713782849b826040516108689190610b6a565b60405180910390a2505050565b600181015460609067ffffffffffffffff81111561089557610895610beb565b6040519080825280602002602001820160405280156108db57816020015b6040805180820190915260008152606060208201528152602001906001900390816108b35790505b50905060005b60018301548110156109c65782600001600084600101838154811061090857610908610ea0565b60009182526020808320909101546001600160a01b039081168452838201949094526040928301909120825180840184528154909416845260018101805484518185028101850190955280855291938584019390929083018282801561098d57602002820191906000526020600020905b815481526020019060010190808311610979575b5050505050815250508282815181106109a8576109a8610ea0565b602002602001018190525080806109be90610eb6565b9150506108e1565b50919050565b50805460008255906000526020600020908101906109ea9190610a38565b50565b828054828255906000526020600020908101928215610a28579160200282015b82811115610a28578251825591602001919060010190610a0d565b50610a34929150610a38565b5090565b5b80821115610a345760008155600101610a39565b80356001600160a01b0381168114610a6457600080fd5b919050565b600080600060408486031215610a7e57600080fd5b610a8784610a4d565b9250602084013567ffffffffffffffff80821115610aa457600080fd5b818601915086601f830112610ab857600080fd5b813581811115610ac757600080fd5b8760208260051b8501011115610adc57600080fd5b6020830194508093505050509250925092565b600060208284031215610b0157600080fd5b6101fd82610a4d565b6000604083016001600160a01b0383511684526020808401516040828701528281518085526060880191508383019450600092505b80831015610b5f5784518252938301936001929092019190830190610b3f565b509695505050505050565b6020815260006101fd6020830184610b0a565b60008060408385031215610b9057600080fd5b610b9983610a4d565b946020939093013593505050565b6020808252825182820181905260009190848201906040850190845b81811015610bdf57835183529284019291840191600101610bc3565b50909695505050505050565b634e487b7160e01b600052604160045260246000fd5b6040805190810167ffffffffffffffff81118282101715610c2457610c24610beb565b60405290565b604051601f8201601f1916810167ffffffffffffffff81118282101715610c5357610c53610beb565b604052919050565b600067ffffffffffffffff821115610c7557610c75610beb565b5060051b60200190565b60008060408385031215610c9257600080fd5b610c9b83610a4d565b915060208084013567ffffffffffffffff80821115610cb957600080fd5b9085019060408288031215610ccd57600080fd5b610cd5610c01565b610cde83610a4d565b81528383013582811115610cf157600080fd5b80840193505087601f840112610d0657600080fd5b82359150610d1b610d1683610c5b565b610c2a565b82815260059290921b83018401918481019089841115610d3a57600080fd5b938501935b83851015610d5857843582529385019390850190610d3f565b80868401525050809450505050509250929050565b6000602080830181845280855180835260408601915060408160051b870101925083870160005b82811015610de0577fffffffffffffffffffffffffffffffffffffffffffffffffffffffffffffffc0888603018452610dce858351610b0a565b94509285019290850190600101610d94565b5092979650505050505050565b600060208284031215610dff57600080fd5b815180151581146101fd57600080fd5b60006020808385031215610e2257600080fd5b825167ffffffffffffffff811115610e3957600080fd5b8301601f81018513610e4a57600080fd5b8051610e58610d1682610c5b565b81815260059190911b82018301908381019087831115610e7757600080fd5b928401925b82841015610e9557835182529284019290840190610e7c565b979650505050505050565b634e487b7160e01b600052603260045260246000fd5b60007fffffffffffffffffffffffffffffffffffffffffffffffffffffffffffffffff8203610ef557634e487b7160e01b600052601160045260246000fd5b506001019056fea26469706673582212202d90ddb2379b7380146e782e7042b2261ae4c9a0c086649f7b14ed847e084fc564736f6c63430008110033",
  "libraries": {
    "AddressSet": "0x99D84A2aA566300d09323EE12ad120177B7654bA",
    "AttributeLib": "0x929098055005A237C806Df3e2dC0E9B07390D83D",
    "Base64": "0x672911b00d6E0d0f6959A1726B4960090a357a4f",
    "Bytes32Set": "0xdDe75BdD8C22C231325997274D523aa0588648cf",
    "ClaimStorageLib": "0x245Fa7026c58705C70557586693F6575327E170c",
    "ClaimTopicLib": "0xEB45Bf980CfdfEAbde13A10b97B3494b78841bed",
    "DiamondFactoryLib": "0x0eDb1d08BeD07306Ca8F41Ac92149B92edB5a9ae",
    "DiamondLib": "0xC3A48dfc8d0b95404E416B9E76C046299e582431",
    "ERC721AEnumerationLib": "0x2F25585979FD3EAda22229F7Cf1c41D59D2AA6e8",
    "ERC721ALib": "0x409f63a3961986d9BeBfB9B5B11464e925804A90",
    "IdentityLib": "0x4E8e895927958e8E924C0d5145D08A6bdd0F0670",
    "LibDiamond": "0x07af5C2d7417f303eb35fff3943cD593Ca2c4352",
    "MetadataLib": "0x17276309aca9bb8272367aB843d0E869405Dd5B6",
    "StringsLib": "0x09a89Cfbdbe53e34fF1E919006a47d12a6aABd40",
    "Strings": "0xE0e88D1dFaf4Bf95dAFB567fE65862827849AAbE",
    "SVGTemplatesLib": "0x318B833110D5d0DEB641bF3bd723DDc830BbBBd8",
    "TrustedIssuerLib": "0x24657fBB0f8Ed0961Ea034250D06b6e71231b277",
    "UInt256Set": "0x8d8632635555c6c20F54a1b0b4A79b7A69f04026",
    "IdentityFactory": "0x72A85A19daeeCC35bDc5208b3bc338CD680dA729"
  },
  "devdoc": {
    "kind": "dev",
    "methods": {
      "getTrustedIssuer(address)": {
        "params": {
          "issuerAddress": "The address of the trusted issuer"
        },
        "returns": {
          "_0": "trustedIssuer The trusted issuer struct"
        }
      }
    },
    "title": "TrustedIssuersRegistryFacet",
    "version": 1
  },
  "userdoc": {
    "kind": "user",
    "methods": {
      "getTrustedIssuer(address)": {
        "notice": "get the trusted issuer struct given the trusted issuer address"
      }
    },
    "notice": "This contract is used to manage the trusted issuers registry",
    "version": 1
  },
  "storageLayout": {
    "storage": [],
    "types": null
  }
}