{
  "address": "0xE8436ffC894A1171E7b322Ece280d623f941b068",
  "abi": [
    {
      "anonymous": false,
      "inputs": [
        {
          "indexed": true,
          "internalType": "address",
          "name": "issuerAddress",
          "type": "address"
        },
        {
          "components": [
            {
              "internalType": "address",
              "name": "claimIssuer",
              "type": "address"
            },
            {
              "internalType": "uint256[]",
              "name": "claimTopics",
              "type": "uint256[]"
            }
          ],
          "indexed": false,
          "internalType": "struct TrustedIssuer",
          "name": "trustedIssuer",
          "type": "tuple"
        }
      ],
      "name": "TrustedIssuerUpdated",
      "type": "event"
    },
    {
      "inputs": [
        {
          "internalType": "address",
          "name": "_trustedIssuer",
          "type": "address"
        }
      ],
      "name": "getTrustedIssuerClaimTopics",
      "outputs": [
        {
          "internalType": "uint256[]",
          "name": "",
          "type": "uint256[]"
        }
      ],
      "stateMutability": "view",
      "type": "function"
    },
    {
      "inputs": [
        {
          "internalType": "address",
          "name": "_issuer",
          "type": "address"
        },
        {
          "internalType": "uint256",
          "name": "_claimTopic",
          "type": "uint256"
        }
      ],
      "name": "hasClaimTopic",
      "outputs": [
        {
          "internalType": "bool",
          "name": "hasTopic",
          "type": "bool"
        }
      ],
      "stateMutability": "view",
      "type": "function"
    }
  ],
  "transactionHash": "0x1aa956cacb97bbe740db083f9233a3775083861785c2358755fd7e2478d0c8d0",
  "args": [],
  "numDeployments": 1,
  "solcInputHash": "484eba28627d1a62f03f1e15ade25543",
  "bytecode": "0x61038e61003a600b82828239805160001a60731461002d57634e487b7160e01b600052600060045260246000fd5b30600052607381538281f3fe73000000000000000000000000000000000000000030146080604052600436106100405760003560e01c806334a8998714610045578063c28fb2781461006d575b600080fd5b61005861005336600461023a565b61008d565b60405190151581526020015b60405180910390f35b61008061007b366004610264565b610176565b6040516100649190610286565b73ffffffffffffffffffffffffffffffffffffffff821660009081527fcb4ddd6b6517b610f6735ef98143f8a0f586e598ccc77ed29d967b7a6b5e8367602090815260408083206001018054825181850281018501909352808352849383018282801561011957602002820191906000526020600020905b815481526020019060010190808311610105575b5050505050905060005b8151811015610169578382828151811061013f5761013f6102ca565b60200260200101510361015757600192505050610170565b80610161816102f9565b915050610123565b5060009150505b92915050565b73ffffffffffffffffffffffffffffffffffffffff811660009081527fcb4ddd6b6517b610f6735ef98143f8a0f586e598ccc77ed29d967b7a6b5e8367602090815260409182902060010180548351818402810184019094528084526060939283018282801561020557602002820191906000526020600020905b8154815260200190600101908083116101f1575b50505050509050919050565b803573ffffffffffffffffffffffffffffffffffffffff8116811461023557600080fd5b919050565b6000806040838503121561024d57600080fd5b61025683610211565b946020939093013593505050565b60006020828403121561027657600080fd5b61027f82610211565b9392505050565b6020808252825182820181905260009190848201906040850190845b818110156102be578351835292840192918401916001016102a2565b50909695505050505050565b7f4e487b7100000000000000000000000000000000000000000000000000000000600052603260045260246000fd5b60007fffffffffffffffffffffffffffffffffffffffffffffffffffffffffffffffff8203610351577f4e487b7100000000000000000000000000000000000000000000000000000000600052601160045260246000fd5b506001019056fea26469706673582212208495fd2cddc6cea6f20a9339e0246afc4af27f33d3c0ef37b9ebe2b0e042e79f64736f6c63430008110033",
  "devdoc": {
    "kind": "dev",
    "methods": {
      "getTrustedIssuerClaimTopics(address)": {
        "params": {
          "_trustedIssuer": "The trusted issuer"
        },
        "returns": {
          "_0": "trustedIssuer The trusted issuer"
        }
      },
      "hasClaimTopic(address,uint256)": {
        "params": {
          "_claimTopic": "The claim topic",
          "_issuer": "The address of the issuer"
        },
        "returns": {
          "hasTopic": "True if the issuer has this claim topic"
        }
      }
    },
    "version": 1
  },
  "userdoc": {
    "kind": "user",
    "methods": {
      "getTrustedIssuerClaimTopics(address)": {
        "notice": "Get the trusted issuer"
      },
      "hasClaimTopic(address,uint256)": {
        "notice": "Does this issuer have this claim topic"
      }
    },
    "version": 1
  },
  "storageLayout": {
    "storage": [],
    "types": null
  }
}